:020000040800F2
:1000000028CA01209D0100080117000855140008A6
:10001000E116000819090008E5400008000000008A
:10002000000000000000000000000000D31E0008D7
:10003000C111000800000000C91700088D1F00084A
:10004000B7010008B7010008B7010008B7010008B0
:10005000B7010008B7010008B7010008B7010008A0
:1000600021130008B7010008B7010008B701000814
:10007000B7010008B7010008B7010008E510000843
:10008000B7010008B701000807080008B701000819
:1000900039090008B7010008B7010008B7010008D6
:1000A000B7010008B7010008B7010008B701000850
:1000B000ED1F0008F11F0008B7010008B701000894
:1000C000B7010008B7010008B7010008B701000830
:1000D000B7010008A1210008A5210008A9210008F6
:1000E000ED120008B7010008B7010008B7010008C9
:1000F000B7010008B7010008B7010008B701000800
:10010000B7010008D11C0008F51F0008B70100085E
:10011000B7010008B7010008B7010008F91F00087F
:10012000B7010008B7010008B70100081111000865
:10013000B7010008B7010008B7010008B7010008BF
:10014000B7010008B7010008B701000899170008B7
:10015000B7010008B7010008B7010008B70100089F
:10016000B7010008B7010008B7010008B70100088F
:10017000B7010008B7010008B7010008B70100087F
:10018000B7010008B7010008DFF80CD000F0DEFA74
:1001900000480047216E000828CA01200648804711
:1001A00006480047FEE7FEE7FEE7FEE7FEE7FEE75C
:1001B000FEE7FEE7FEE7FEE7911F00088901000861
:1001C0002DE9F05F0546002092469B46884606468C
:1001D000814640241BE0284641464746224600F01F
:1001E00025F953465A46C01A914110D31146184674
:1001F000224600F00CF92D1A67EB01084F46224603
:100200000120002100F003F917EB00094E41201EE8
:10021000A4F10104DFDC484631462A464346BDE8E6
:10022000F09F10B5431A934209D28318881803E04F
:1002300010F8011D03F8011D521EF9D210BD40EA4D
:1002400001039B0703D009E008C9121F08C0042A54
:10025000FAD203E011F8013B00F8013B521EF9D23B
:1002600010BDD2B201E000F8012B491EFBD270474D
:100270000022F6E710B513460A4604461946FFF772
:10028000F0FF204610BD421C10F8011B0029FBD1D5
:10029000801A70472DE9FE4F804681EA0300C00FA7
:1002A0000C46009021F0004123F00045B8EB02001D
:1002B000A94105D24046214690461C460B460246BF
:1002C00023F00040104347D0270DC7F30A00C3F3C3
:1002D0000A510290401A019040286BDAC3F31300D0
:1002E00040F4801B0098924620B10023D2EB030A11
:1002F00063EB0B0B01985946C0F14002504600F0E9
:1003000086F806460D4650465946019A00F09EF87A
:1003100010EB08006141002487EA115284EAE77378
:100320001A4340D0009A62B3019A012A4FEA075259
:1003300015DC001B61EB02014FF0004202EA07529C
:10034000CDE90042001C41F5801132462B4600F0F9
:100350009EF803B0BDE8F08F40462146F9E7001B48
:1003600061EB0201001C41F5801300185B4120186D
:10037000A2F5001747EB030140EAD570B6196D41AD
:1003800011E06D084FEA360645EAC0754FEA07529C
:10039000001B61EB0201001C41F5801149084FEA86
:1003A00030000019514132462B4603B0BDE8F04FF2
:1003B00000F05EB80098012240000023D0EB02025A
:1003C00063EBE073009821464FEAE074B8EB00005D
:1003D00061EB0401E9E783F000435BE781F0004152
:1003E00058E730B50B46014600202022012409E0E1
:1003F00021FA02F59D4205D303FA02F5491B04FADE
:1004000002F52844151EA2F10102F1DC30BD202ABC
:1004100004DB203A00FA02F1002070479140C2F15B
:10042000200320FA03F3194390407047202A04DB8D
:10043000203A21FA02F00021704721FA02F3D0405D
:10044000C2F120029140084319467047202A06DB7A
:10045000CB17203A41FA02F043EAE07306E041FA92
:1004600002F3D040C2F12002914008431946704780
:1004700010B5141E73F1000408DA401C41F10001AC
:1004800092185B411A4301D120F0010010BD2DE903
:10049000F04D92469B4611B1B1FA81F202E0B0FAFA
:1004A00080F220329046FFF7B2FF04460F4640EA42
:1004B0000A0041EA0B0153465A46084313D011463D
:1004C00053EA010019D0C8F140025046FFF7AEFFD1
:1004D00005460E46504659464246FFF798FF0843E8
:1004E00005D0012004E020463946BDE8F08D00200B
:1004F000054346EAE0762C4337430A986305E40A4D
:10050000A0EB08000022FD0A44EA47540A3002D555
:1005100000200146E9E7010510196941DDE90845B8
:1005200000196941BDE8F04DA2E72DE9FE4F81EACF
:10053000030404F0004421F0004100944FF0000B4C
:1005400023F0004350EA01045ED052EA03045BD07A
:10055000C3F30A54C1F30A552C44A4F2F3340194B2
:10056000A0FB0254C1F3130141F48011C3F3130340
:1005700043F4801301FB024400FB034E840A970AF4
:1005800044EA815447EA8357A4FB076802958D0A21
:1005900005FB07854FEA932C04FB0C542705029DAD
:1005A0004FEA065847EA1637B5EB08056EEB070C1D
:1005B000870E920E47EA811742EA8312A7FB0201D7
:1005C000B6EB0B0164EB00042B0D43EA0C335E1811
:1005D00044EB1C50DA465146E7FB0201C5F3130415
:1005E0004FEA0B3343EA14534FEA0432019C43EAC7
:1005F0000603A4F10C040294009CCDE900B4FFF7BB
:1006000046FF03B0BDE8F08F00200146F9E72DE971
:10061000F04D81EA030404F0004B21F0004514463C
:100620004FF0000A23F0004150EA050220D054EABE
:1006300001021DD0C5F30A570246C5F31303C1F3E7
:100640001300C1F30A5640F4801543F48013A7EB5E
:100650000608101BD64608F2FD3873EB050002D3DE
:1006600008F1010801E092185B41B8F1000F03DACC
:1006700000200146BDE8F08D00204FF480110646B1
:1006800084460EE0171B73EB050705D3121B63EBC3
:10069000050306434CEA010C49084FEA3000921862
:1006A0005B4150EA0107EDD152EA030012D082EA21
:1006B000040083EA0501084305D0101BAB4106D2B4
:1006C0000122002306E000224FF0004302E06FF019
:1006D000010253101AEB06004CEB085110EB0A0014
:1006E00041EB0B01BDE8F04DFFF7C2BEC1F30A526A
:1006F000C1F3130140F2FF3341F480119A4202DA50
:1007000000200146704740F233439A42A2F233423E
:1007100002DC5242FFF78ABEFFF779BE30B5041EF5
:1007200071F1000404DB4FF00044404264EB01012E
:10073000141E73F1000405DB1C464FF000435242C7
:1007400063EB0403994208BF904230BD064C074D4D
:1007500006E0E06840F0010394E807009847103491
:10076000AC42F6D3FFF714FD9CC60008BCC60008D7
:1007700070B58C1810F8015B15F0070301D110F863
:10078000013B2A1106D110F8012B03E010F8016B90
:1007900001F8016B5B1EF9D12B0705D40023521E13
:1007A0000DD401F8013BFAE710F8013BCB1A921C7B
:1007B00003E013F8015B01F8015B521EF9D5A14279
:1007C000D8D3002070BDC94301607047090AC943EE
:1007D00001607047C06C80B270470246002012680A
:1007E0000A4200D00120704730B5024600200B0AB3
:1007F000546801258D402C401168194202D0002C0C
:1008000000D0012030BD06F097BB70B5072609293E
:100810000AD9C568A1F10A0404EB4404A640B54313
:10082000A3401D43C56007E0056901EB4104A640F4
:10083000B543A3401D4305611F23072A09D2446B1A
:10084000521E02EB820293409C4391400C4344634E
:1008500070BD0D2A09D2046BD21F02EB82029340B5
:100860009C4391400C43046370BDC46A0D3A02EB93
:10087000820293409C4391400C43C46270BD8168E6
:1008800041F080418160704710B5074C20600846F8
:1008900000F00CF820680028FCD1BDE810400021D1
:1008A0004FF0804001F0BCBB000200203EB5044682
:1008B0004FF080450021284601F0B2FB00220121C3
:1008C000284601F0C5FB022C02D0012C03D005E024
:1008D0000B20019002E042F6DF6001900520ADF8A8
:1008E00000000020ADF80800ADF802006946284677
:1008F00001F00AFC0121284601F08FFB0121284666
:1009000001F07CFB01221146284601F0A1FB0121E8
:10091000284601F085FB3EBD02A1012009F0DAF86E
:10092000FEE700004275734661756C745F48616E46
:10093000646C65720D0A000006F04ABB10B500EB4E
:100940000113D3F8B04104F004041472002C2CD02D
:10095000D3F8B041E408546003F5D8731C6804F080
:10096000020454725C6804F00F0494725C68240AF8
:10097000D4749C68D4729C68240A14739C68240CF8
:1009800054739C68240E9473DC68D473DC68240A66
:100990001474DC68240C5474DB681B0E937449B126
:1009A000016941F02001016110BDD3F8B041640D2F
:1009B0001460D1E7C16841F02001C16010BD0000A2
:1009C00008B5034A1044143000900098016008BD37
:1009D0000074004010B50A46110602F07F0306D5E8
:1009E00003EB830100EBC10101F58E7105E002EB21
:1009F000820100EBC10101F55D7100248C700B7068
:100A0000D2094A7002F0BCFA002010BD70B50D4644
:100A100005F07F0404EB84012E0600EBC10102D532
:100A200001F58E7101E001F55D710C70ED094D70FD
:100A30008A60CB7005B1CC80022B01D100220A71F3
:100A400002F070FA002070BD10B501F07F0404EBD5
:100A5000840100EBC10101F55D71CA604B610023A7
:100A60008B614B700C70C378012B00D10A610A783E
:100A70001AB102F0C3FA002010BD02F0C9F9FAE77A
:100A8000002261F30A120069016811430160704796
:100A900010B50A46110602F07F0306D503EB830169
:100AA00000EBC10101F58E7105E002EB820100EB64
:100AB000C10101F55D7101248C700B70D2094A707F
:100AC00002F07CFA002010BD70B501F07F0404EB49
:100AD000840100EBC10101F58E7101254D700C7090
:100AE000CA600A6100228A614B61002C03D002F0C7
:100AF00085FA002070BD02F08BF9FAE770B586B078
:100B00000646304602F05BF901A800F0A5FE029D02
:100B1000F068C16821F470540594C460304602F056
:100B200041FB0146002003290ED00120B070402077
:100B3000B0803E483E49284488420FD224F4705089
:100B400000F56050059066E0B0704FF40070B08022
:100B500024F4705000F5105005905CE0354836499B
:100B60002844884205D224F4705000F55050059076
:100B700051E0324832492844884205D224F470506A
:100B800000F54050059046E02E482F492844884201
:100B900005D224F4705000F5305005903BE02B480E
:100BA0002B492844884205D224F4705000F5205087
:100BB000059030E0274828492844884205D224F48B
:100BC000705000F51050059025E024482449284431
:100BD000884205D224F4705000F5005005901AE0C8
:100BE000204821492844884205D224F4705000F559
:100BF000E05005900FE01D481D492844884205D269
:100C000024F4705000F5C050059004E024F47050B6
:100C100000F5A0500590F1680598C8604FF40050A9
:100C2000F168486106B0012070BD0000401E1BFF46
:100C300040420F0000DC0BFFE0C810002013FBFE59
:100C400020D61300003DE7FE006A180000D3CEFE58
:100C500040771B00C05BB3FEC091210000CA91FE2B
:100C600040AC2700C01D6AFE40E13300803C36FEE8
:100C7000E09C4100F8B5054600240020009028467D
:100C800002F011FB064652E0F0074ED0E1B22846D2
:100C900000F0CEF90090C0071CD0012101FA04F247
:100CA0002869436B93434363009105EB840080699B
:100CB00081602148E1B20068426828469047E878A0
:100CC000012807D134B995F81101042802D128462A
:100CD00002F012F90098000705D50820009005EBF6
:100CE0008401896988600098C00605D510200090AD
:100CF00005EB8401896988600098400605D540208D
:100D0000009005EB8401896988600098800705D50B
:100D10000220009005EB8401896988600098000634
:100D200003D52146284600F091F9641C7608002E70
:100D3000AAD10120F8BD0000480200202DE9FC41A5
:100D40000546002400200190284602F0B2FA06462B
:100D5000274F47E0F00743D0E1B2284602F0AFFA50
:100D60000190C00726D00121019105EB8400426D5E
:100D70009160E97801290DD1406D0069009004EB84
:100D8000840105EBC101C0F31200D1F87C23101AD5
:100D9000C1F88C033868E1B2026828469047E878C9
:100DA000012807D134B995F81101052802D1284648
:100DB00002F0A2F80198800705D50220019005EB0A
:100DC0008401496D88600198000709D538688168F9
:100DD000284688470820019005EB8401496D88600A
:100DE000641C7608002EB5D10120BDE8FC8100000E
:100DF0004802002038B50446A07A002808D0D4F86C
:100E00000C01016821F0020121F001010091016053
:100E10002069416821F0010141600548006881694D
:100E2000204688474FF00040E1684861012038BD06
:100E3000480200207CB5054610200190E8688169D1
:100E400021F010018161E868006A009000F00F0154
:100E500001EB810105EBC10404F55D74C0F343416E
:100E6000072923D2DFE801F02222042222221600E1
:100E700047F6F071084219D0C0F30A1632462846E8
:100E8000E16802F027FAE0683044E060A06930448D
:100E9000A0610BE0082205F2CC51284602F01AFAB4
:100EA0000099A069C1F30A110844A061E86881694A
:100EB00041F01001816101207CBD000010B50446A5
:100EC000044920460968C96888470821E0684161EB
:100ED000012010BD480200201FB5044600200090EC
:100EE00094F812010090174800684169204688472D
:100EF0002069806801904FF400610391E2685161BC
:100F0000A17AE1B1C0071AD094F81501012816D1D1
:100F10009DF80000032812D1D4F80C01016841F0BB
:100F20000101016003200290D4F80C01016841F036
:100F3000030101600448016841F00601016004B04A
:100F4000012010BD4802002010ED00E070B586B011
:100F50000446002505950495039502950095012604
:100F600001962069416821F001014160002120467D
:100F700002F0F6F80020FF2206E004EB80018B6906
:100F80009A60496D8A60401C61788142F5D8216978
:100F90004FF0FF308861ADF81460ADF8166021693C
:100FA0000598C86145F0080040F0010040F00200DB
:100FB0002169486145F0010040F0080040F002005E
:100FC000216908612069016821F4FE610160204601
:100FD00001F092FF4FF48050E168486103480068D7
:100FE00001692046884706B0012070BD48020020F4
:100FF00010B50446054920460968C96988474FF479
:101000008011E0684161012010BD0000480200200D
:1010100010B50446054920460968096A88474FF417
:101020000011E0684161012010BD0000480200206D
:1010300002691369526BCA4002F0010243EAC2120C
:1010400000EB810080698068104070472DE9F8430B
:1010500006460F460020009007EB870006EBC00411
:1010600004F58E74D4E90501401AA168814200D2CA
:101070000846C01C4FEA900906EB8708D8F818000C
:101080008069009021E0D51AA268AA4200D21546D4
:10109000E81C4FEA9009ABB2FAB23046E16803F0BF
:1010A0000DF8E0682844E060A0692844A061D8F801
:1010B0001810896900916169814206D12078012167
:1010C00081403069426B8A434263009880B2484550
:1010D00005D9D4E90523934201D2002AD3D10120B6
:1010E000BDE8F88370B5084C084D2146284600F04D
:1010F0003DF8012807D12146284600F021F8BDE837
:10110000704006F0F3BA70BD20800020706002408D
:1011100000F0EEBD074A904201D2074801E00548C1
:101120001038064A8B0001EA020101D5C160704700
:101130008160704710640240006002407D0F7D0FA7
:10114000074A904201D2074801E005481038064A94
:101150008B0001EA020101D5C160704781607047D0
:1011600010640240006002407D0F7D0F30B5002406
:101170000F4A904201D20F4A01E00D4A103A0E4B3D
:10118000194205D01E2303EAD12503682B4002E053
:10119000406900F08003880001D5506800E01068C5
:1011A000064A1040084201D003B10124204630BD58
:1011B00010640240006002403C0F3C0F7D0F7D0F29
:1011C00001A1012008F086BC44656275674D6F6E11
:1011D0005F48616E646C65720D0A000003490A681D
:1011E000104448600A689042FCD870470000002014
:1011F0001B4A506803681146002B89680DDB0368A1
:10120000DB050AD58B685B1C8B608B68012B00D1DA
:10121000086050684860012070470368002B0EDBAF
:1012200003689B050BD50368DB0508D40860002024
:101230004860012088605068C06850600DE0036815
:10124000002B0ADB03689B0507D40368DB0504D485
:101250008B685B1C8B60C06850600020704700008A
:101260007C0200201EB500210191094B59680A68D3
:10127000C2F30D42121F00929A6814680294126819
:1012800092680192C96859609DE80E000EC01EBDAB
:101290007C02002018B500220092124A136903F064
:1012A0001C044FF6FF7303EAC02323434FF4F86096
:1012B00000EA8110184320F0020040F001001061A4
:1012C00009490098401C00901069C00702D000989E
:1012D0008842F6D30098884201D1002018BD506999
:1012E00080B218BD00800240FFFF040010B54FF42B
:1012F0008044204600F02EF828B1002000F034F899
:10130000204600F021F84FF48064204600F022F8D7
:10131000002804D02046BDE8104000F015B810BDEC
:1013200010B5042000F016F8002809D00548D0F8C0
:10133000900040698047BDE81040042000F004B8E8
:1013400010BD00006863012001490860704700007B
:10135000143C014001460020024A12680A4200D0B3
:1013600001207047143C014010B50446122120466C
:10137000FFF790FF80040FD510212046FFF78AFF6A
:10138000C00704D0BDE81040044807F042B9BDE8EA
:101390001040024807F030B910BD0000FC63012086
:1013A0002DE9F041002201274FF0030C07FA02F566
:1013B0000B682B40AB422CD1066853000CFA03F4A7
:1013C000A64306600E79D0F800809E4046EA0806E3
:1013D00006600E79012E01D0022E12D18668A64336
:1013E00086604E79D0F808809E4046EA08068660FE
:1013F0004668AE43466045688E799640B6B235433E
:101400004560C568A543C560CC799C40C3681C4352
:10141000C460521C102AC9D3BDE8F08110B54B0737
:10142000DB0E9A40C90800EB8100016A0F249C4042
:10143000A1430162016A1143016210BD024600200E
:1014400012690A4200D0012070474183704701832E
:101450007047000002A1012008F03CFBFEE70000FD
:10146000486172644661756C745F48616E646C6556
:10147000720D0A0030B58BB0002507953D4C2078E1
:1014800001282FD002282BD13B494868E060002872
:101490003BD003202070084604F042FEE068010EB5
:1014A0008DF81C10C0F307448DF81D40C0F30723CE
:1014B0008DF81E30C2B28DF81F20CDE900412FA15A
:1014C00002A802F021FE31A1032008F003FB35A1A0
:1014D000032008F0FFFA02AA38A1032008F0FAFA64
:1014E0000BB030BD02202070234804F0BFFDE56042
:1014F00034A1032008F0EEFA38A1032008F0EAFA3C
:101500003CA1032008F0E6FAEAE7486A407B042899
:10151000E6D904202070184804F002FE3B480A90E7
:101520006FF07F4009903A48089008AB09AA0AA9D1
:10153000114807F005F837A1032008F0CBFA0A207C
:101540008DF81C008DF81D50A8238DF81E30C02288
:101550008DF81F20CDE9005034A102A802F0D4FD7F
:1015600036A1032008F0B6FA02AA3AA1032008F037
:10157000B1FAB5E764020020FC6301202025642E47
:1015800025642E25642E256400000000495020614A
:101590006464726573732061737369676E65640D4B
:1015A0000A00000020206279206120444843502036
:1015B00073657276657220200D0A00002025730D78
:1015C0000A00000020202020204C6F6F6B696E679E
:1015D00020666F72202020200D0A0000202020208D
:1015E0002044484350207365727665722020202085
:1015F0000D0A00002020202020706C65617365209A
:10160000776169742E2E2E200D0A0000C0A8000AF2
:10161000C0A8000120202020444843502074696D58
:10162000656F7574202020200D0A0000202025649D
:101630002E25642E25642E2564000000202053747E
:10164000617469632049502061646472657373201A
:101650002020000025730D0A0000000031B51C4C4D
:1016600000996068081AFA2803D30098606008F0AF
:10167000A3F80098A168401A41F28831884203D348
:101680000098A06005F05CF900982169401AB0F557
:10169000FA7F0ED30098206104F0A2F82078032886
:1016A00007D02078042804D02078052801D0FFF73F
:1016B000E1FE00986169401A4EF66021884205D328
:1016C00000986061BDE8384003F06EBF38BD00008F
:1016D00064020020014805F055B90000FC630120B8
:1016E00002A1012008F0F6F9FEE700004D656D4DFE
:1016F000616E6167655F48616E646C65720D0A00BA
:1017000002A1012008F0E6F9FEE700004E4D495F16
:1017100048616E646C65720D0A00000030B50F23DD
:10172000C27801250178002A1FD0154A126802F4F8
:10173000E062C2F5E062C2F30722C2F10404D340C2
:101740004278A24084781C401443220101F1E02138
:1017500081F80024007800F01F018D4040098000CE
:1017600000F1E020C0F8005130BD01F01F008540BD
:101770004809800000F1E020C0F8805130BD000031
:101780000CED00E002490843024908607047000080
:101790000000FA050CED00E010B5074801F077FDF8
:1017A00020B1BDE81040044801F04CBABDE810403B
:1017B000014800F08FBF0000D458012001490862A1
:1017C0007047000000000E4270470000054A0029E3
:1017D00003D01168014311607047116881431160A3
:1017E0007047000030380240054A002903D01168D4
:1017F0000143116070471168814311607047000018
:1018000040380240054A002903D0116801431160A5
:101810007047116881431160704700002038024012
:10182000054A002903D0116801431160704711680F
:10183000814311607047000044380240054A002986
:1018400003D0116801431160704711688143116032
:10185000704700002438024070B5244B196801F02D
:101860000C01234C00291ED0661004291DD0082924
:101870001DD00460196801F0F00109091D4A545C8B
:101880000168E14041601C6804F4E054A40A145D5E
:1018900021FA04F484601B6803F460435B0BD25CA0
:1018A000D140C16070BD0460E4E70660E2E70F4A22
:1018B000121F1168C1F38055116801F03F0135B165
:1018C000B6FBF1F11468C4F38814614305E0B4FB7E
:1018D000F1F11468C4F3881461431268C2F3014241
:1018E000521C5200B1FBF2F10160C3E7083802401C
:1018F0000024F400090000200246002051090129BB
:101900000BD002290DD00949096802F01F020123FA
:1019100093400B4200D00120704704497439096894
:10192000F3E70249091F0968EFE700007438024035
:10193000064900220A700A70012804D0042801D147
:101940000520087070470120087070477038024009
:1019500001490860704700003C0E4742C0F3012176
:10196000032907D1074B196821F4F81206490140F1
:1019700011431960034A68321168C0F30B00014338
:101980001160704708380240FFFCFF0F010901EBAE
:101990008101490000F00F000844C0B270470021E7
:1019A00003E0491CC9B20A38C0B20A28F9D20907B3
:1019B00040EA11607047000008B5002000900E4911
:1019C0000868400615D44FF0FF3008608B13086894
:1019D00000F04000009A521C0092009A9A4201D0F6
:1019E0000028F4D00868400601D5012008BD002079
:1019F00008BD012008BD00000C2800400248016815
:101A000021F08001016070470C28004010B50246AB
:101A10000C460E4801680E480140080CE070C1F306
:101A20000423637001F03F03A370C1F342312170BE
:101A3000002A0AD1FFF7AAFFE0706078FFF7A6FF3F
:101A40006070A078FFF7A2FFA07010BD04280040CE
:101A50003FFFFF0010B502460C460F4801680F48D3
:101A60000140C1F305402070C1F30623637001F00B
:101A70007F03A37001F48001090CE170002A0AD1F0
:101A8000FFF784FF20706078FFF780FF6070A07818
:101A9000FFF77CFFA07010BD002800407F7F7F0013
:101AA00070B504460025114ECA20306053203060C6
:101AB000FFF782FFA8B10D481C38016821F04001F2
:101AC000016001682268114301600848A168143868
:101AD00001600168A28841EA02410160FFF78EFFC0
:101AE0000125FF203060284670BD000024280040FA
:101AF00008B5034901EB800000900098006808BD1C
:101B00005028004070B505460C460026002D06D131
:101B10006078C10603D520F010000A3060702DB146
:101B20006078FFF733FFA078FFF730FF55B1A0785A
:101B3000E17840EA014560782178000240EA4130CE
:101B400005430FE0E078FFF72AFF05046078FFF710
:101B500026FF45EA0025A078FFF721FF05432078FE
:101B600045EA40350E4CCA20206053202060FFF724
:101B700023FF88B10B480540094820380560FFF76E
:101B80003DFF07481C380068800604D400F060F868
:101B900010B1012600E00126FF202060304670BD14
:101BA000242800403FFFFF002DE9F04105460C4688
:101BB00000260020244F002D06D03968490608D59C
:101BC0002078FFF7E3FE05E03968490602D4E070AB
:101BD00000E0E07055B1A078217840EA01456078D6
:101BE000E178000240EA014005430FE02078FFF76A
:101BF000D6FE05046078FFF7D2FE45EA0025A078FE
:101C0000FFF7CDFE0543E07845EA00450E4CCA20BB
:101C10001C34206053202060FFF7CEFE78B10B48C3
:101C20000540094808380560FFF7E8FE3868800677
:101C300004D400F00DF810B1012600E00126FF20C9
:101C400020603046BDE8F081082800407F7F7F009B
:101C500018B500200090104BCA201860532018605F
:101C60000D491839086820F0A00008604FF40034CE
:101C7000086800F02000009A521C0092009AA242CC
:101C800001D00028F4D00868800601D5012000E0CA
:101C90000020FF21196018BD2428004008B5034A20
:101CA00002EB800000900098016008BD50280040C1
:101CB0000149086070470000382C014001460020AF
:101CC000024A12680A4200D001207047342C0140B9
:101CD00000F022B8054A002903D0116801431160C1
:101CE0007047116881431160704700003C2C01402F
:101CF0000748006810F0C05F08D00649012048611D
:101D000003484FF0C2515830FFF704BA7047000043
:101D1000006402401C01002070B54FF48075284615
:101D2000FFF7CCFF1F4C30B1002020702846FFF792
:101D3000BFFF012020610220FFF7C0FF20B1022079
:101D4000FFF7B6FF022020700820FFF7B7FF20B191
:101D50000820FFF7ADFF042020702020FFF7AEFF22
:101D600020B12020FFF7A4FF062020701020FFF7ED
:101D7000A5FF20B11020FFF79BFF052020704FF436
:101D800000752846FFF79AFF20B12846FFF790FF1D
:101D90000720207000214CF23A30FFF79BFF20789B
:101DA00070BD00001C010020002904D0018841F012
:101DB000400101807047018821F040010180704797
:101DC00010B52A4988420AD1841401212046FFF720
:101DD00035FD2046BDE810400021FFF72FBD244906
:101DE00088420AD1041401212046FFF70BFD20464A
:101DF000BDE810400021FFF705BD1E4988420AD109
:101E0000C41301212046FFF7FDFC2046BDE8104029
:101E10000021FFF7F7BC184988420AD14414012178
:101E20002046FFF70BFD2046BDE810400021FFF7DC
:101E300005BD124988420AD101210C052046FFF751
:101E4000FDFC2046BDE810400021FFF7F7BC0C491F
:101E500088420AD101214C052046FFF7EFFC2046BD
:101E6000BDE810400021FFF7E9BC10BD0030014083
:101E700000380040003C0040003401400050014068
:101E8000005401400246002012890A4200D001207D
:101E90007047808970478181704730B5028802F4AD
:101EA00041530A884C88CD8822438C882C43224396
:101EB0000C8922434C8922438C892243CC892243BA
:101EC0001A430280828B22F400628283098A018293
:101ED00030BD70470CB50022019200922749086876
:101EE00040F4803008604FF4A043086800F40030EC
:101EF00000900198401C0190009810B901989842F8
:101F0000F3D10868800302D50120009000E0009220
:101F10000098012831D119484030026842F08052BF
:101F200002601748026842F44042026013480830D9
:101F300002680260026842F400420260026842F4F1
:101F4000A0520260021F0F4B13600A6842F08072B9
:101F50000A600A689201FCD50B4A40F205711160D3
:101F6000016821F003010160016841F00201016094
:101F70000168C1F381010229FAD10CBD0038024089
:101F80000070004008544007003C024000F000B9D7
:101F900010B51248016841F47001016010480168F1
:101FA00041F0010101600E4A00210832116002680F
:101FB0000C4B1A400260031D0B4A1A60026822F49F
:101FC0008022026006480C300160FFF783FF03495E
:101FD0004FF000608039086010BD000088ED00E01F
:101FE00000380240FFFFF6FE1030002400F0C0BEB3
:101FF00005F0BCBC05F00CBD05F05EBD002904D0A9
:10200000018841F0800101807047018821F0800142
:1020100001807047C94301827047C94301827047FC
:10202000002904D0018841F0010101807047018836
:1020300021F001010180704702460020138A0B4005
:1020400092890A40002B02D0002A00D0012070475C
:10205000002A03D082890A438281704782898A4399
:102060008281704770B5028C22F010020284028CCB
:102070008388048B24F4E04424F440760D884FF6E2
:10208000FF7404EA0525354322F020028E8904EA14
:10209000061616434A8804EA02123243114EB04231
:1020A00002D0114EB04217D122F08002CE8904EA4C
:1020B0000616164326F040068A8804EA02123243C6
:1020C00023F4806323F400630E8A04EA86061E4329
:1020D0004B8A04EA830333438380058389688163E1
:1020E000028470BD0000014000040140028B22F414
:1020F00000624FF6FF7303EA012111430183704729
:10210000816370474162704730B50288164C174DA5
:10211000A0420DD0A8420BD0B0F1804F08D0144B94
:10212000984205D0134B984202D0134B984203D1EA
:1021300022F070034A881A43104B984206D0104B85
:10214000984203D022F440730A891A4302804A68F5
:10215000C2620A880285A04201D0A84201D1897AD0
:1021600001860121818230BD000001400004014050
:102170000004004000080040000C00400010004037
:102180000014004001480068704700000000002073
:1021900002480168491C01607047000000000020EF
:1021A00005F0DCBC05F024BD05F06EBD8A05C94311
:1021B0000180704740F66A120A0A01219140C94322
:1021C00001807047002904D0818941F40051818148
:1021D0007047818921F400518181704702460020B7
:1021E00012880A4200D00120704770B5002440F6E2
:1021F0006A12C1F3421301F01F05012606FA05F227
:10220000012B0CD0022B0DD0838A1340090A8E407B
:10221000008830400BB100B10124204670BD838995
:102220001340F3E7038A1340F0E710B540F66A1352
:10223000C1F3421301F01F040121A140012B07D07B
:10224000022B07D014303AB102680A43026010BD75
:102250000C30F8E71030F6E702688A43026010BDE0
:102260007FB504460D46208A20F44051E888084393
:102270002082A08941F20C618843A9882A891143F0
:102280006A8902431143A181A08A20F44071A88980
:102290000843A0826846FFF7DFFA1E48844202D056
:1022A0001D48844201D1039800E00298A1890904E5
:1022B00008D500EBC00101EB001029684900B0FB14
:1022C000F1F007E000EBC00101EB00102968890084
:1022D000B0FBF1F06422B0FBF2F109010B096FF0E1
:1022E00018056B4300EB8300A3891D044FF03203F4
:1022F00007D503EBC000B0FBF2F000F00700084385
:1023000006E003EB0010B0FBF2F000F00F00084312
:1023100020817FBD00100140001401408088C0F37F
:1023200008007047C1F308018180704710B5D0F8EC
:10233000E42552689047002010BD10B5044694F87B
:102340001201022806D0032804D02046BDE8104020
:1023500000F023B8488801280CD10020C4F81801E7
:10236000D4F8E4058268204690472046BDE8104036
:1023700000F043B810BD10B5002413460A460021F2
:10238000FEF762FB204610BD10B5002413460A4636
:102390000021FEF799FB204610BD10B504468021B0
:1023A0002046FEF775FB00212046FEF771FB204614
:1023B000BDE8104000F0A0BD70B505460024052022
:1023C00085F8110100231A4619462846FEF73CFB02
:1023D000284600F091FD204670BD10B50024C0F8DD
:1023E0003C21C0F83821022380F8113113460A46F7
:1023F0000021FEF769FB204610BD70B5054600249C
:10240000042085F8110100231A4619462846FEF7D4
:102410005BFB284600F070FD204670BD70B5054698
:10242000002909D0D5F8E4054269002A56D095F86C
:102430001201032850D051E005F58E7495F8110172
:10244000002602283ED1E169A068814215D9081A08
:10245000E061E878012803D1D4E902100844E06083
:10246000A08BE16882B22846FFF78EFF00231A4650
:1024700019462846FEF7E8FA24E0216AB1FBF0F29B
:1024800000FB12128AB981420FD3606A81420CD2DA
:10249000002211462846FFF777FF666200231A469E
:1024A00019462846FEF7D0FA0CE0D5F8E405C168D5
:1024B00029B195F81201032801D1284688472846FA
:1024C000FFF77AFF95F81601012807D1284600F09A
:1024D0009DF985F8166101E028469047002070BDFF
:1024E00070B50546002908D0D5F8E40582690AB31D
:1024F00095F8120103282CD02DE005F55D7495F8B0
:102500001101032827D1E169A068814213D9081A73
:10251000E061E878012803D1D4E902100844E060C2
:10252000E169A068814200D2084682B22846E1688B
:10253000FFF721FF0FE0D5F8E405016929B195F80F
:102540001201032801D1284688472846FFF755FF86
:1025500001E028469047002070BD0000CA88012A8B
:1025600001D0FFF71ABF90F81221022A03D0032AE4
:1025700005D0FFF712BF01220349FFF72EBF01224A
:1025800000F58871FFF729BF5802002038B50446CE
:102590000D46E88800906888010A08296ED2DFE8B5
:1025A00001F06D040C186D6D6368D4F8EC15A0781B
:1025B0000A6869469047014642E0D4F8E415A078DD
:1025C0008A6A69469047014602204870C4F8F015AF
:1025D00036E0C0B2062842D2DFE800F0030B131B3E
:1025E000232BD4F8EC15A0784A6869469047014639
:1025F00026E0D4F8EC15A0788A6869469047014631
:102600001EE0D4F8EC15A078CA68694690470146E8
:1026100016E0D4F8EC15A0780A696946904701469F
:102620000EE0D4F8EC15A0784A6969469047014657
:1026300006E0D4F8EC15A0788A696946904701460F
:10264000BDF80000002809D0EA88002A06D082429E
:1026500000D9024600922046FFF7BFFE38BD29464A
:102660002046FFF79AFE38BD29462046FFF795FE23
:1026700038BD29462046FFF790FE38BD2946204642
:10268000FFF78BFE38BD000090F81221022A03D01C
:10269000032A01D0FFF781BE06490122CA60D0F8A3
:1026A00018210AB10322CA60024902220C31FFF745
:1026B00094BE00005002002010B5D0F8E415096A5D
:1026C0008847002010BD10B5D0F8E415496A884746
:1026D000002010BD7CB506460024304600F0CEFD3B
:1026E000002849D0304600F0D9FD05460190E8B3F6
:1026F000280303D53046FEF721FB0446680303D5C3
:102700003046FEF7B7FA0443A80703D5022000902D
:10271000F1684861002D03DA3046FEF76BFB044395
:10272000280503D53046FEF7D7FB0443280703D519
:102730003046FEF7C3FB0443E80603D53046FEF7F8
:1027400079FB0443E80403D53046FEF7FFFB04435E
:10275000A80403D53046FEF7D1F90443E80203D5B7
:102760003046FEF745FC0443A80200E006E003D52E
:102770003046FEF74DFC044320467CBD00207CBD66
:1027800090F8CC250A7090F8CD254A7090F8CE25A7
:1027900090F8CF3502EB03224A8090F8D02590F8CC
:1027A000D13502EB03228A8090F8D22590F8D335F8
:1027B00002EB032292B2CA80C0F84021012180F8C6
:1027C0001111704710B504460023402219462046D7
:1027D000FEF71CF90023402280212046FEF716F95F
:1027E000012084F81201D4F8E815A07849688847D8
:1027F000002010BD10B50446D4F8E80500698047F4
:10280000032084F81201002010BD0000024909686D
:1028100000694160002070474C02002010B5D0F8DC
:10282000E415C969002900D08847002010BD70B5A3
:1028300004468888002801D1C88820B12046BDE818
:102840007040FFF7AABD887800F07F0594F8120168
:1028500003280DD084F8145129462046FEF710F9BC
:102860002046FFF7CAFD45B1022084F8120170BD71
:102870002046BDE87040FFF790BD012084F81201AA
:1028800070BD10B50446D4F8E405026820469047B0
:10289000D4F8E80580688047002010BD70B5044674
:1028A0000846284D81782970012905D9014620461E
:1028B000BDE87040FFF771BD94F81221022A07D0DD
:1028C000032A18D001462046BDE87040FFF765BDD9
:1028D00061B184F81011032084F812012046FFF73B
:1028E000D0FF2046BDE87040FFF787BD2046BDE819
:1028F0007040FFF782BD91B194F8100188421BD05F
:1029000001462046FFF712FD297884F81011204671
:10291000FFF7B7FF2046BDE87040FFF76EBD02200D
:1029200084F8120184F810112046FFF7FFFC2046BE
:10293000BDE87040FFF761BD2046BDE87040FFF77D
:102940005CBD00005002002038B5044648880122D2
:10295000012810D0022841D1888810F0FF0F3DD106
:10296000216949680091000A062829D2DFE800F0B1
:10297000280F14191E23C4F81821D4F8E40582681E
:10298000204690472046BDE83840FFF736BD21F08D
:1029900070001030009017E021F07000203000909F
:1029A00012E021F07000303000900DE021F0700056
:1029B0004030009008E021F070005030009003E0BB
:1029C00021F070001030009005480099016084F8F3
:1029D00016212046BDE83840FFF70FBD38BD000086
:1029E0004C0200201CB5044669462046FFF7C8FE8D
:1029F0009DF8002012F01F010AD001290DD00229F4
:102A000010D002F080012046FEF742F800201CBDE5
:102A10006946204600F00BF8F8E76946204600F0CA
:102A2000C9F8F3E76946204600F026F8EEE710B54E
:102A300000244A780A2A1BD2DFE802F011171A1480
:102A40001A08051A0E0BFFF7A1FD13E0FFF7EFFEC2
:102A500010E0FFF723FF0DE0FFF780FD0AE0FFF72E
:102A600013FE07E0FFF770FF04E0FFF766FC01E0EC
:102A7000FFF793FC204610BD70B504460D460026B6
:102A800029792878C0F34110012806D0687880B3EE
:102A900001282FD003285BD107E0D4F8E4052946AC
:102AA000826820469047304670BD94F81201022893
:102AB00006D003280BD029462046FFF76EFC47E0DE
:102AC00011B3802944D02046FDF7E2FF40E068883A
:102AD00028B921B1802902D02046FDF7D9FFD4F8CA
:102AE000E40529468268204690472046FFF785FC8A
:102AF0002EE023E094F81201022806D003280BD020
:102B000029462046FFF749FC22E009B380291FD05F
:102B10002046FDF7BDFF1BE06888C8B951B1802988
:102B200008D02046FDF756FFD4F8E4052946826810
:102B3000204690472046FFF760FC09E094F8120118
:102B4000022807D003280DD029462046FFF725FC90
:102B5000304670BD0029FBD08029F9D02046FDF712
:102B600097FFF5E7124A08064FF000054FF0010302
:102B70000CD501F07F0000EB800004EBC00090F862
:102B80001E0108B153600BE0556009E001EB8100C4
:102B900004EBC00090F8760308B1536000E0556084
:102BA00003490222091D2046FFF717FCD0E7000069
:102BB0005002002070B504460D46002694F812011C
:102BC000032805D029462046FFF7E7FB304670BDB5
:102BD000287901280CD8D4F8E405294682682046D3
:102BE0009047E8880028F1D12046FFF706FCEDE782
:102BF00029462046FFF7D1FBE8E710B500F58970BC
:102C00000178417004210170D0F8D604C068804773
:102C1000002010BD0121C0F8F4170020704770B5E6
:102C200004460021204600F06DF8E068002585612B
:102C3000E168681E4861204600F0B9F8C4F8F4570E
:102C4000002070BD38B505460024002000902846BD
:102C500000F01DFB002847D0284600F01FFB009025
:102C6000009808B9002038BD0098C0F3C00018B122
:102C7000284601F00DFA04430098C0F3001018B183
:102C8000284601F052F904430098C0F3401018B1EF
:102C9000284600F07EFF04430098C0F3806018B11E
:102CA000284601F0ABF804430098C0F3406018B127
:102CB000284600F058FB04430098C0F3006018B1A8
:102CC000284600F0FDFF04430098C0F3407018B19F
:102CD000284600F00FFB04430098C0F3405018B1A1
:102CE000284600F01DFB04432046BCE70021C0F845
:102CF000F817002070470121C0F8F817002070472E
:102D0000002070472DE9FC4100240326174F4FF4A3
:102D10008065002917D001214020FEF757FD00955E
:102D20008DF8056001228DF804208DF806208DF8BD
:102D3000074069463846FEF733FB29463846FEF71A
:102D400084FBBDE8FC8101214020FEF73FFD00959A
:102D50008DF805608DF804408DF806408DF8074029
:102D600069463846FEF71CFBEBE7000000180240FE
:102D700010B501218C072046FFF75EF9002809D025
:102D800001212046FFF749F906490A681AB1086887
:102D9000401E086010BD2046BDE810400021FFF72E
:102DA0003FB90000000200200221FDF76DBD0022A6
:102DB000C068816821F001018160104670471EB52E
:102DC00000240021009101698968029183691A68D1
:102DD0000192C1F34101002911D001290FD002292C
:102DE00011D003290BD0D10AC902019101991960B0
:102DF0000069416841F48071416020461EBDD10ADE
:102E0000C9020191F2E7D10AC902C91C0191EDE79B
:102E1000FCB500260022019200924A784B69012AF3
:102E200016D00A7800EB8204626D1568019512696C
:102E30000092EBB38B684B6163F3060242F400220D
:102E40000092636D009A1A61C278012A41D046E06F
:102E5000826917680197146900943BB18D68AB4291
:102E60000AD94D6165F30604009408E024F07F035D
:102E700043F40023009306E063F306040094009BF0
:102E800043F400230093009B1361C378012B05D109
:102E90000C780B6900EB8404A469636147F08063DC
:102EA00043F0004301931360C27812BB4A6900E00B
:102EB00008E0F2B10A78012191400069426B0A43AF
:102EC000426316E00B7A63F3060242F4002200929A
:102ED000B7E70B780A6900EB83035B6D5A6145F035
:102EE000806242F000420192097800EB8100406D5F
:102EF00002603046FCBD00000CB509490191426DED
:102F00001161C178012909D1426D00F2CC515161A2
:102F1000416D08684FF08020009008600CBD0000F3
:102F2000180008607CB500250022019200920C7800
:102F30004E780123A34000EB8402012E1CD0526D79
:102F4000ADF80230136801931C040ED40C8964F3AD
:102F50000A03CC7864F39343897961F3995343F07E
:102F6000805141F40041019111600069C169009AEA
:102F70001143C16128467CBD9269ADF80030E1E79C
:102F800018B503460020002200924C780A78012CE4
:102F900003EB82020AD0526D136823F400130093EE
:102FA000C978032904D0022902D004E09269F3E72A
:102FB00043F0805100910099116018BD08B5024698
:102FC0000020002300934B780978012B02EB81014C
:102FD00006D0496D0A6842F4001200920A6008BDEA
:102FE0008A6911680091002902DA41F0804100915C
:102FF000009941F400110091116008BDFEB5002553
:103000000022029201924C780B784A694FF0010C31
:1030100000EB8303012C1DD05C6D266802962469A9
:103020000194002A76D08F683A44521EB2FBF7F220
:1030300062F3DC44C4F3C9427A4362F3120401949C
:10304000C4F312024A615B6D019A1A61C278012AC7
:1030500067D06CE09B691E6802961C6901946AB196
:1030600062F312048F683A44521EB2FBF7F262F325
:10307000DC440194CA78012A06D00AE0E20CD204AA
:103080006CF3DC42019204E024F0C04202F10052F1
:103090000192019A1A61C278012A10D0CA78012AD5
:1030A00009D04A693AB10A780CFA02FC0269536BFA
:1030B00043EA0C035363CA78012A07D00FE00B7868
:1030C0000A6900EB83039B695A61F4E7026992681D
:1030D0000092120AD20711D046F080520292029A50
:1030E00042F0806242F0004202920B7800EB8303D0
:1030F0009B691A60CA78012A04D02FE046F000527A
:103100000292ECE78A8A93B20A78C96800F0D6FF87
:1031100024E0FFE78A6862F312046CF3DC44019454
:1031200091E70B780A6900EB83035B6D5A61CA78FB
:10313000012A08D14A791AB146F00052029202E0FF
:1031400046F080520292029A42F0806242F00042BF
:103150000292097800EB8100406D02602846FEBDB6
:1031600038B50025002200230093009B43F0200384
:103170000093009B61F38A1300930099C36819615F
:10318000074BC1680C690094521C9A4202D8009CFB
:10319000A006F7D40320FFF707FE284638BD00003D
:1031A000400D030008B5006980680090C0F341003D
:1031B000002807D0012807D0022807D0032803D011
:1031C000022008BD032008BD022008BD012008BD63
:1031D000C068406900F00100704710B50346002048
:1031E0004FF00042012464F3DC4203EB810151F80B
:1031F000903F1A6109680A6842F0004222F080425A
:103200000A6010BD30B586B00024002203920192FE
:1032100000EB8103D3F89020116841F080410091C8
:1032200011F4402F0BD0C1F38145022D07D0406926
:1032300000690190019810F47F0F0CD00FE0C06876
:10324000C06A0390039810F47F0F08D121F000406A
:103250000090106003E021F00040009010600098A2
:1032600040F00040D3F89010086006B0204630BD12
:103270004069026861F301020260704700B5FFF720
:10328000A7FF012801D0012000BD002000BD00B52E
:10329000FFF79EFF012800D0002000BDC0684169F3
:1032A00080690840704700698169C069084080B240
:1032B000704700698169C0690840000C704700EBE5
:1032C0008101496D8968006940690840704740691B
:1032D0004069704710B5044608460021D21C930887
:1032E000D4F8D02003E0146840F8044B491C9942FC
:1032F000F9D310BD38B50446002000900748006897
:10330000816820468847009820F0005000F1005066
:1033100000900098E1684861012038BD1802002043
:103320000CB50146D1F8900000680090009820F09C
:10333000004000F100400090009820F0804000F133
:1033400080400090009AD1F8900002600020019027
:10335000019820F4001000F5001001900198CA684F
:10336000506101200CBD7CB505460024002628468E
:10337000FFF7ADFF019000BF1BE0019880B2012173
:10338000A1400840A0B105F1900050F82400006869
:1033900000900098C0F3C03028B12146284600F0C4
:1033A0000DF8064304E02146284600F016FA0643CD
:1033B000641C2878A042E0D830467CBD70B586B049
:1033C00005460C4605F1900050F82460B068059061
:1033D000F0680490DDE904100840059005F19000C4
:1033E00050F8240000680390002004900598C0F372
:1033F0008000D0B100200190019820F00400001D51
:1034000001900198B06005F1900050F82400C06868
:103410000190019820F00200801C019005F19000BD
:1034200050F824000199C16073E00598C0F3401082
:1034300048B100200190019820F020002030019038
:103440000198B06065E00598C0F3C00078B305F15D
:10345000900050F82400C0680190019820F002000C
:10346000801C019005F1900050F824000199C16082
:10347000052105F67400015500200190019820F007
:103480001000103001900198B06000200190019868
:1034900020F00800083001900198B060059820F0F5
:1034A00010000590E1B22846FFF7ACFE31E0FFE7DF
:1034B0000598C0F3802060B305F1900050F8240017
:1034C000C0680190019820F00200801C019005F175
:1034D000900050F824000199C160E1B22846FFF73E
:1034E00091FE00200190019820F010001030019012
:1034F0000198B060082105F6740001550020019084
:10350000019820F4806000F5806001900198B0601F
:1035100000BF0598C0F34020F8B105F1900050F8C5
:103520002400C0680190019820F00200801C0190E6
:1035300005F1900050F824000199C160E1B22846DD
:10354000FFF760FE00200190019820F4007000F564
:10355000007001900198B0603CE1059800F0010016
:10356000002871D0E878012812D105F1900050F8B8
:1035700024000069029005F6940000EB44100069F5
:103580000299C1F31201411A05F6380040F82410DF
:10359000012105F6740001550021783840F8241007
:1035A00000200190019820F00100401C019001983A
:1035B000B0600398C0F3814020B10398C0F381400C
:1035C00002282AD105F1900050F82400C06801902B
:1035D000019820F00200801C019005F1900050F845
:1035E00024000199C160E1B22846FFF70BFE0020DC
:1035F0000190019820F01000103001900198B06007
:1036000005F6940000EB4410007E80F0010105F601
:10361000940000EB44100176DCE00398C0F3814095
:10362000032899D1039820F0005000F10050039036
:1036300005F1900050F8240003990160012105F67E
:1036400083000155C6E0FFE70598C0F3400000285D
:1036500051D005F1900050F82400C0680190019805
:1036600020F00200019005F1900050F8240001992B
:10367000C16005F67400005D012804D1012105F642
:10368000830001552DE005F67400005D052804D186
:10369000042105F68300015523E005F67400005D62
:1036A000062804D005F67400005D082808D1002122
:1036B00005F2FC7040F8241003218730015510E01A
:1036C0000398C0F3814003280BD105F6940000EB6A
:1036D0004410007E80F0010105F6940000EB4410D8
:1036E000017600200190019820F00200801C0190DA
:1036F0000198B0606EE00598C0F3C01010B305F1FA
:10370000900050F82400C0680190019820F0020059
:10371000801C019005F1900050F824000199C160CF
:10372000062105F674000155E1B22846FFF76AFD4F
:1037300000200190019820F08000803001900198D5
:10374000B06047E00598C0F30010E0B30398C0F301
:103750008140032816D105F1900050F82400C0687C
:103760000190019820F00200801C019005F190006A
:1037700050F824000199C160E87818B9E1B22846F0
:10378000FFF740FD032105F674000155002001906C
:10379000019820F01000103001900198B06003985B
:1037A000C0F3814020B10398C0F38140022811D1B9
:1037B000039820F0004000F100400390039820F0AF
:1037C0008040039000E005E005F1900050F82400EF
:1037D00003990160012006B070BD7FB505460C4617
:1037E00005F1900050F82460B0680390F0680290F2
:1037F000DDE902100840039005F1900050F8240024
:10380000006801900398C0F38000D0B100200090C0
:10381000009820F00400001D00900098B06005F1B1
:10382000900050F82400C0680090009820F002003A
:10383000801C009005F1900050F824000099C160B0
:10384000A4E10398C0F3401048B100200090009814
:1038500020F02000203000900098B06096E103989E
:10386000C0F34020F8B105F1900050F82400C06882
:103870000090009820F00200801C009005F190005C
:1038800050F824000099C160E1B22846FFF7BAFC65
:1038900000200090009820F4007000F50070009067
:1038A0000098B06072E1039800F0010038B3002185
:1038B00005F2FC7040F8241005F1900050F8240047
:1038C000C0680090009820F00200801C009005F174
:1038D000900050F824000099C160E1B22846FFF73B
:1038E00091FC00200090009820F00100401C009006
:1038F0000098B060012105F67400015546E1039877
:10390000C0F3C00010B300200090009820F0080021
:10391000083000900098B06005F1900050F8240045
:10392000C0680090009820F00200801C009005F113
:10393000900050F824000099C160E1B22846FFF7DA
:1039400061FC052105F6740001551FE10398C0F3E1
:10395000001048B3002105F2FC7040F8241005F176
:10396000900050F82400C0680090009820F00200F9
:10397000801C009005F1900050F824000099C1606F
:10398000E87818B9E1B22846FFF73CFC0020009027
:10399000009820F01000103000900098B0600321D3
:1039A00005F674000155F1E00398C0F3C01010B3A0
:1039B00005F1900050F82400C0680090009820F0B5
:1039C0000200801C009005F1900050F8240000993E
:1039D000C160E1B22846FFF715FC062105F6740028
:1039E000015500200090009820F080008030009069
:1039F0000098B060CAE00398C0F3801048B300217B
:103A000005F2FC7040F8241005F1900050F82400F5
:103A1000C0680090009820F00200801C009005F122
:103A2000900050F824000099C160E87818B9E1B21C
:103A30002846FFF7E7FB00200090009820F04000A8
:103A4000403000900098B060042105F674000155E4
:103A50009CE00398C0F3802060B305F1900050F81B
:103A60002400C0680090009820F00200801C0090A4
:103A700005F1900050F824000099C160E1B2284699
:103A8000FFF7C0FB00200090009820F010001030DD
:103A900000900098B060082105F6740001550020E0
:103AA0000090009820F4806000F5806000900098FD
:103AB000B0606BE00398C0F34000002866D005F1C9
:103AC000900050F82400C0680090009820F0020098
:103AD000009005F1900050F824000099C16005F6AF
:103AE0007400005D012815D1012105F68300015500
:103AF0000198C0F3814002283ED105F6940000EB06
:103B00004410407E80F0010105F6940000EB441063
:103B1000417631E005F67400005D032804D10221EE
:103B200005F68300015527E005F67400005D0428C2
:103B30000FD105F6940000EB44100079012803D161
:103B4000E1B22846FFF749FB022105F68300015543
:103B500012E005F67400005D052804D1042105F685
:103B60008300015508E005F67400005D062803D1C6
:103B7000032105F68300015500200090009820F0F5
:103B80000200801C00900098B06000BF012004B0CB
:103B900070BD7FB50446E068C06A00900198C0F32C
:103BA000C30104F6940000EB41100069C01CC0F38F
:103BB0008F0673E04FF6FF71009801EA80050198C7
:103BC000C0F3C30104F6940000EB41100069A84261
:103BD00015D20198C0F3C30104F6940000EB411024
:103BE000008A85B200200390039820F02000203046
:103BF0000390E068806903998843E16888610198CF
:103C0000C0F3C30104F6940000EB41100069C01C2E
:103C1000C0F38F060198C0F3C302C0F3C30304F6D8
:103C2000940000EB43102B46C168204600F046FA92
:103C30000198C0F3C30104F6940000EB4110C06882
:103C400041190198C0F3C30204F6940000EB42103E
:103C5000C1600198C0F3C30104F6940000EB411069
:103C60000069411B0198C0F3C30204F6940000EB05
:103C7000421001610198C0F3C30104F6940000EB07
:103C80004110406941190198C0F3C30204F6940041
:103C900000EB42104161E068C06A0090009880B279
:103CA000B0420ADD0198C0F3C30104F6940000EBB2
:103CB0004110006900287FF47DAF012004B070BD81
:103CC0007FB50446002500200090019003900290EB
:103CD000D4F8CC0000680390D4F8CC0000680290BF
:103CE000029820F004000290029820F00200029056
:103CF000029820F008000290029820F02000029024
:103D00000398C0F3400058B1029820F00200801CD4
:103D100002903948006841682046884745F001050F
:103D20000398C0F3C000002853D0029820F0080088
:103D3000083002900398C0F38000002844D0039814
:103D4000C0F34140022804D00398C0F34140012849
:103D500025D16069006801900398C0F341400228B2
:103D60001DD141F2707160694160019800F003005B
:103D7000022814D0207A022804D102212046FFF71D
:103D800077FA0CE04BF6803160694160019800F0F1
:103D90000300012803D001212046FFF769FA1648E5
:103DA0000068C1682046884700200090009820F0F5
:103DB000005000F100500090E0688069009988434D
:103DC0000843E168886104E00B4800680169204607
:103DD00088470398C0F3401030B1029820F02000CB
:103DE0002030029045F001050299D4F8CC00016022
:103DF000284604B070BD000018020020FEB504463D
:103E00006069006900900198C0F3C30104F6940052
:103E100000EB41100069C01CC0F38F0674E04FF640
:103E2000FF71009801EA80050198C0F3C30104F610
:103E3000940000EB41100069A84216D20198C0F32B
:103E4000C30104F6940000EB4110008A85B2002003
:103E50000290029820F0806000F180600290E0689B
:103E6000806902998843E16888610198C0F3C301C1
:103E700004F6940000EB41100069C01CC0F38F06EB
:103E80000198C0F3C302C0F3C30304F6940000EB2F
:103E900043102B46C168204600F010F90198C0F38A
:103EA000C30104F6940000EB4110C0684119019869
:103EB000C0F3C30204F6940000EB4210C160019805
:103EC000C0F3C30104F6940000EB41100069411BEC
:103ED0000198C0F3C30204F6940000EB42100161A4
:103EE0000198C0F3C30104F6940000EB411040694F
:103EF00041190198C0F3C30204F6940000EB42108C
:103F00004161606900690090009880B2B0420ADDAA
:103F10000198C0F3C30104F6940000EB411000695E
:103F200000287FF47CAF0120FEBD30B585B004468B
:103F3000002000900390039820F0100010300390B0
:103F4000E068806903998843E1688861E068006AF5
:103F50000490049800F00F00009004F190009DF888
:103F6000001050F82100006801900498C0F343400D
:103F7000022806D0032878D0052877D0072873D1E7
:103F800075E00498C0F30A10002869DD04F6940077
:103F90009DF8001000EB4110C068002860D0049824
:103FA000C0F30A1204F694009DF8003000EB4310B1
:103FB000C1682046FFF78EF9049800F00F0104F65F
:103FC000940000EB4110C0680499C1F30A11014448
:103FD000049800F00F0204F6940000EB4210C16058
:103FE000049800F00F0104F6940000EB41104069C2
:103FF0000499C1F30A110144049800F00F0204F679
:10400000940000EB4210416104F694009DF800100A
:1040100000EB4110456904F638009DF8001040F8A7
:10402000215004F190009DF8001050F82100006923
:1040300002900298C0F3C940002811DD019820F0D9
:10404000004000F100400190019820F08040019074
:1040500004F190009DF80020019950F822000160C1
:1040600006E002E002E0FFE700BF00BF00BF00BFC4
:1040700000BF039820F0100010300390E0688069C2
:1040800003990843E1688861012005B030BD000054
:1040900038B50446002000900748006801682046B3
:1040A0008847009820F00800083000900098E168E8
:1040B0004861012038BD00001802002030B50546D7
:1040C0000020EC78002C0CD1DB1C9B0805EB820255
:1040D000D2F8D02003E051F8045B1560641C9C42C8
:1040E000F9D330BD02A1012005F0F4FCFEE7000089
:1040F00055736167654661756C745F48616E646C89
:1041000065720D0A000000000FB4084B10B504A939
:1041100002AA039800F0E0F8044602A9002000F08B
:1041200072FC204610BC5DF814FB0000074A000832
:1041300037B514460846064B6A46214600F0CCF8CF
:1041400004466946002000F05EFC20463EBD0000AB
:10415000074A000802E008C8121F08C1002AFAD165
:1041600070477047002001E001C1121F002AFBD1F7
:10417000704700002DE9FF5FDDE90220010DDDF849
:1041800038B0024318D044F61050A1F2FF31414339
:104190000D140F98012820D0A5EB0B00401C5FEAFE
:1041A000000A4FF00004474EDFF81C91A04650462D
:1041B00016D5CAF1000728E00F98012443A2012870
:1041C00008D0002100980F9BC0E90021C0E90243FC
:1041D000BDE8FF9F6FEA0B01F4E7CBF10000DEE7DB
:1041E000074612E0F80707D02246334640464946C4
:1041F000FCF79BF98046894622463346104619460D
:10420000FCF793F904460E467F10002FEAD1DDE952
:104210000201BAF1000F42464B4602DAFCF785F97B
:1042200001E0FCF7F4F904460E460022284BFCF7A7
:1042300075FA03D84FF0FF30014607E00022254B06
:1042400020463146FCF726F8FCF750FA102409E026
:10425000002C0ADB0A220023FBF7B2FF019B30325D
:104260001A55641E50EA0102F2D1641C019AC4F18D
:10427000110314440F9A012A03D0012208430DD1DF
:104280000AE0084304D000204FF0110B0F9080E7A4
:10429000A3EB0B056D1E0DE05B4504DD4FF0000246
:1042A00005F1010504E003DA4FF00002A5F1010574
:1042B000002AECD000980F99C0E90231C0E900450E
:1042C00086E70000000024400000F03F30000000BE
:1042D0000000F0430000E03F2DE9FF4F95B09B4602
:1042E0008946064600250FE2252877D10024274677
:1042F000F84A0121059400E0044316F8013F203BF1
:1043000001FA03F01042F7D130782A2811D06FF06B
:104310002F033078A0F13002092A16D8059A44F00C
:10432000020402EB820203EB42021044761C059069
:10433000EFE759F8042B0592002A03DA504244F4BF
:104340000054059044F00204761C30782E2816D1D3
:1043500016F8010F44F004042A280DD06FF02F0244
:104360003078A0F13003092B09D807EB870302EB63
:104370004303C718761CF3E759F8047B761C3078A2
:104380006C280FD006DC4C2817D068280DD06A287E
:1043900014D104E0742810D07A280FD10DE044F431
:1043A00000140AE044F4801401E044F440147278EC
:1043B000824202D104F58014761C761C307866287F
:1043C0000BD013DC582877D009DC002875D045289D
:1043D000F6D04628F4D047281AD19DE118E063288A
:1043E00035D0642879D0652812D195E1702873D032
:1043F00008DC6728F1D069286FD06E280DD06F28AF
:1044000006D1B5E073282CD0752875D0782874D0E3
:104410005A46179990476D1C75E1C4F30250022863
:1044200009D003280DD0D9F8001004280DD00D6054
:1044300009F1040967E1D9F80010EA17C1E900524F
:10444000F6E7D9F800100D80F2E70D70F0E719F8E3
:10445000041B8DF8001000208DF80100EA460120B1
:1044600003E059F804AB4FF0FF3061074FF0000153
:1044700002D40DE008F101018846B9420FDA804507
:10448000F8DB1AF808100029F4D108E008F101015E
:1044900088468142FADB1AF808100029F6D10598FF
:1044A0005B46A0EB080721463846179A00F094FABD
:1044B000284400EB080507E04DE029E10DE01AF87B
:1044C000010B5A4617999047B8F10108F7D25B469D
:1044D00021463846179A13E142E00A220092C4F3BB
:1044E00002524FF0000A022A08D059F804CB032ADE
:1044F0004FEAEC710AD00DE029E02AE009F107014A
:1045000021F00702F2E802C1914609E00FFA8CFCA3
:104510004FEAEC71042A03D14FFA8CFC4FEAEC719C
:10452000002907DA0A460021DCF1000C61EB0201E8
:104530002D2202E0220504D52B228DF80420012231
:1045400003E0E20701D02022F7E7904659E00A2174
:1045500002E010220DE010214FF0000A00910BE064
:1045600010224FF0000A44F004040827009203E0F0
:1045700008224FF0000A0092C4F30252022A05D02A
:1045800059F804CB0021032A08D009E009F10701FA
:1045900021F00702F2E802C1914605E01FFA8CFC07
:1045A000042A01D10CF0FF0C4FF00008220728D597
:1045B000702806D0009B83F0100353EA0A0305D04D
:1045C0000EE040228DF80420012208E05CEA01029E
:1045D00006D030228DF804208DF805000222904686
:1045E000009B83F0080353EA0A030AD15CEA010244
:1045F00001D1620705D530228DF804204FF0010863
:104600007F1E582804D034A003900EA802900DE01D
:1046100036A0F9E753466046009AFBF7D1FD844681
:104620000398825C0298401E029002705CEA0100CE
:10463000F0D1029806A9081A00F1200A600702D5F5
:1046400024F4803400E00127574502DDA7EB0A007F
:1046500000E0002000EB0A01009005984144401A58
:104660000590E00306D45B462146179A059800F0B2
:10467000B3F90544002706E001A85A46C05D179922
:1046800090476D1C7F1C4745F6DBE0030CD55B466D
:104690002146179A059800F09FF9054404E0302060
:1046A0005A46179990476D1C0099481E00900029A2
:1046B000F5DC08E0029802995A460078491C0291FC
:1046C000179990476D1CBAF10001AAF1010AF1DCBB
:1046D00065E10000092801003031323334353637C6
:1046E000383961626364656600000000303132333E
:1046F00034353637383941424344454600000000DE
:1047000000F058F90544761C307800287FF4ECADB1
:1047100019B02846BDE8F08F620700D4062709F1DA
:10472000070222F0070CFCE80223E14603F00048F0
:104730005FEA080C02D00FF2702C0DE05FEA045C17
:1047400002D50FF2682C07E05FEAC47C02D00FF2BA
:10475000602C01E0AFF2700C4FF0FF3823F0004303
:10476000CDF850C065280CD006DC452809D0462875
:104770001DD047283DD13DE0662818D067287ED15E
:1047800038E00021112F01DB112000E0781CCDE979
:10479000000106A90EA8FFF7EDFCDDE90F010E9A56
:1047A00003910021009207F1010A04914DE04FF0BE
:1047B00000400097CDE9011006A90EA8FFF7DAFC2A
:1047C000DDE90F0203920E9B11990022DDF80CA087
:1047D0000093049211B9791C00EB010AB7EB0A00AF
:1047E00004D4C0F1FF3007F1010A0490AAEB0700DE
:1047F000019044E0012F00DA01270021112F01DD93
:10480000112000E03846CDE9000106A90EA8FFF707
:10481000B1FCDDE90F010E9A039100210491009291
:10482000BA4621070CD40399514500DA8A46BAF1F9
:10483000010F05DD009AAAF10101515C302908D071
:10484000B84202DA10F1040F06DA0121CDE90110B5
:1048500015E0AAF10101E9E7002805DC049901440B
:104860000491AAEB000102E0411C514500DD8A469B
:104870000499401A401C01904FF00040029020071C
:1048800004D40198504501DBCDF8048000208DF858
:104890004F0002980DF14F07B0F1004F25D02B20AB
:1048A0000E9002984FF0020800280CDA4042029065
:1048B0002D200E9007E00A210298FBF792FD30317F
:1048C000029007F8011DB8F10001A8F10108F2DC1F
:1048D00002980028EFD1791E0E980870307800F009
:1048E000200040F0450007F8020D12A8C01B00F19F
:1048F00007081498007800B1012000EB0A01019824
:1049000001EBE07105984144401A401E0590E00318
:1049100006D45B462146179A059800F05DF80544D9
:104920001498007818B15A46179990476D1CE00307
:1049300024D55B462146179A059800F04DF80544AA
:104940001CE00498002807DBDDE90301884203DD51
:104950000098405C179901E0179930205A4690471B
:10496000049805F10105401C04900198401E019037
:1049700004D12E205A46179990476D1CBAF10001B8
:10498000AAF1010ADDDC05E017F8010B5A46179978
:1049900090476D1CB8F10001A8F10108F4DC5B46FA
:1049A0002146179A0598ABE62D0000002B00000069
:1049B000200000002DE9F041044600251E46174660
:1049C000880404D405E039462020B0476D1C641EDD
:1049D000F9D52846BDE8F0812DE9F04104460025CF
:1049E0001E469046C80301D5302700E020278804E2
:1049F00004D505E041463846B0476D1C641EF9D524
:104A00002846BDE8F0810A68531C0B60107070479F
:104A1000054A4FF40041012802D01046FCF715BDAD
:104A20001046FCF714BD0000000402407CB50121D3
:104A30004020FCF7CBFE01208DF8040000218DF80A
:104A4000061002218DF805108DF807001020009047
:104A50000E4D69462846FCF7A3FC10212846FCF7BA
:104A6000F6FC8021009169462846FCF799FC8021DC
:104A70002846FCF7ECFC6C15009469462846FCF7C8
:104A80008FFC21462846FCF7E2FC7CBD0018024062
:104A900010B5074A4FF40071012804D01046FCF706
:104AA000D4FC002010BD1046FCF7D1FCF9E7000053
:104AB00000180240332002F015BF000010B5FFF7C8
:104AC000B5FF6420FCF78AFB084C80212046FCF7E8
:104AD000BCFC6420FCF782FB80212046FCF7B7FC7D
:104AE0006420FCF77BFB002010BD00000018024092
:104AF00008220321332002F01ABF000038B5044613
:104B000010210A48FCF7A1FC8DF800400021332059
:104B100002F0F7FE012300226946332002F016FF5F
:104B20000121332002F0EDFE002038BD00180240C4
:104B300070B505460C4610210948FCF788FC002199
:104B4000332002F0DEFE234600222946332002F005
:104B5000FDFE0121332002F0D4FE002070BD0000D4
:104B6000001802401CB501210820FCF72FFE0F4C55
:104B700002220D212046FCF751FC4FF40051009118
:104B800002218DF8041003218DF8051000218DF805
:104B9000061001218DF8071069462046FCF700FC3D
:104BA0005421FA2002F000FF00201CBD000C02403E
:104BB0000020704710B50D4C0D4B2168481C5A5C05
:104BC000411C2160185C42EA002000B247F6FF71E8
:104BD0000844C0F30F1002F01BFA2068B0F5075F1D
:104BE00001D302F0D7FE002010BD0000D00000204D
:104BF000AC9B00081CB501210846FCF7E7FD01202D
:104C0000009000218DF8041003218DF805108DF817
:104C1000070069460248FCF7C3FB00201CBD0000EA
:104C2000000002400149002088607047AC0000206D
:104C3000F0B5044600200D4B9A68002A01D0401EB2
:104C4000F0BD0B4D00260CE0AA5C22541A78521CD1
:104C5000D2B21A700C2A00D31E70401CC0B2884217
:104C6000EED21A785F78BA42EED1F0BDAC000020E7
:104C7000A004002038B51A4CA068002802D04FF0DC
:104C8000FF3038BD01211748FCF7D8FB00909DF894
:104C90000000A1780022884203D022719DF8000014
:104CA000A0709DF80000E178884216D02079401C61
:104CB000C0B220710A2810D3227101209DF8001083
:104CC00001B18120084B61785854491CC8B260700A
:104CD0000C2800D36270A078E070002038BD00007E
:104CE000AC00002000000240A004002038B501F014
:104CF000E9FB104C38B91048206001202071402099
:104D000020818020E0800421012000F017F8206835
:104D10004169012088470120FFF77AFE4FF6E070D5
:104D2000009020682389E1880022C4681046A047CB
:104D3000002038BD64100020C00100200F4A137904
:104D4000834206D083F001001071D0881389D3808C
:104D500010811079012804D0084650711168C96982
:104D6000084700204B0700D40420CB0701D0801C4B
:104D7000C0B28907F1D4401CC0B2EEE76410002035
:104D800008B5194C4FF000084FF47A764FF6FF77CC
:104D9000002316A22021142003F0E8FE3046FCF781
:104DA0001DFA0097206800222389C568E188104613
:104DB000A8473046FCF712FACDF8008020680022A0
:104DC0002389C568E1881046A8473046FCF706FAF3
:104DD0000097206800222389C568E1881046A8470B
:104DE0003046FCF7FBF9D3E764100020414443440C
:104DF0002057554A49515545202100007CB50121D5
:104E00004020FCF7E3FC4FF48074009401208DF8FF
:104E1000040003228DF8052000228DF806208DF86D
:104E20000700054D69462846FCF7BAFA2146284690
:104E3000FCF70BFB00207CBD001802402DE9F05F61
:104E40000024DFF88890A9F1300A04EB440B09EB49
:104E50008B0595F8048008220321404602F067FD87
:104E600068BB284600F044F8064659F82B20334624
:104E700017A1042004F02EFE284600F05DF8074636
:104E800059F82B203B4616A1042004F023FE0020F5
:104E900000EB40010AEBC1014A68B24208D18968BF
:104EA000B94205D100EB40000AEBC000A86003E066
:104EB000401CC0B20228EBD3404602F013FD641C34
:104EC000E4B2022CC1D30020BDE8F09F0401002011
:104ED0002573206A69643A307825780D0A0000004D
:104EE0002573206D69643A307825780D0A0000003A
:104EF0007CB5044601259F2001902079002102F015
:104F000000FD20792B46002201A902F01FFD03239A
:104F100020796A46002102F019FD2079012102F072
:104F2000F0FC9DF800009DF8011001EB00209DF8B9
:104F3000021001EB00207CBD7CB5044604259020C6
:104F40008DF8040000208DF805008DF806008DF81E
:104F500007002079002102F0D4FC20792B460022A2
:104F600001A902F0F3FC022320796A46002102F035
:104F7000EDFC2079012102F0C4FC9DF800009DF8B1
:104F8000011001EB00207CBD10B50523034A002170
:104F9000602002F027FB002010BD0000C5000020AB
:104FA000F0B506460020134B884222DA00EB40029F
:104FB00006EB82025C8897680F4D04EB440405EB16
:104FC0008404A7605C88176804EB440445F82470E7
:104FD00054685A8802EB420205EB820254605A88F8
:104FE000521C5A805A88FA2A01D300225A80401C47
:104FF000DAE7F0BDAC010020AC0400202DE9FE434F
:105000004E4E3169002903D04FF0FF30BDE8FE83DA
:1050100032780121E2B1494B0F03494CDB8800256E
:105020004FF40068012A19D0022A5AD0032A69D005
:10503000357039462046FCF70AFA41462046FCF70F
:1050400004FA01223F49642002F054FD0020DDE70C
:10505000F0803170082001F0ABFFF7E7308100F5F8
:10506000C8729A420FD90220307039462046FCF7A8
:10507000ECF941462046FCF7E8F9012231490220CB
:1050800002F038FDE2E700F5FA6098421AD2707833
:1050900048B9717002954FF6FF70009001900121A0
:1050A0006846FFF77DFF357039462046FCF7CFF99B
:1050B00041462046FCF7C9F901222249642002F04A
:1050C00019FDC3E7357039462046FCF7C0F9414663
:1050D0002046FCF7BAF901221A49142002F00AFD11
:1050E000B4E770810320307039462046FCF7ADF9F3
:1050F00041462046FCF7ABF901221249022002F09A
:10510000F9FCA3E73189591AC1F5C8710291718977
:105110000091019001216846FFF742FF75703570DC
:1051200039462046FCF793F941462046FCF78DF9B5
:1051300001220449022002F0DDFC87E7AC010020D7
:10514000000C02404951000804480078032802D0AE
:10515000092001F02DBF082001F02ABFAC0100207A
:1051600010B502F0CFFA00F054F9002010BD2DE97F
:10517000F04704460D4654EA050051D00B2168075C
:1051800000D5CB2104F0010704F0020057EA000823
:1051900001D041F01001012000F070F90021E80772
:1051A0004FF4C07600D03146E00701D041F0140141
:1051B000A00701D541F02801600701D541F0300179
:1051C000A00701D541F02801A00601D541F0030157
:1051D000022000F053F90021680700D53146A807E6
:1051E00001D541F060010DB141F00C01E00601D59F
:1051F00041F00301032000F041F90021600700D5D0
:105200004421A00701D541F03001E00701D041F071
:1052100003012C2000F032F9A00604D50C2103E094
:105220000020BDE8F08700210E2000F027F9A0063D
:1052300010D5002631461B2000F020F931461C20F5
:1052400000F01CF931461D2000F018F931461E20EF
:1052500000F014F900263146202000F00FF9314605
:10526000212000F00BF93146222000F007F9072138
:10527000232000F003F94FF48079B8F1000F00D03B
:105280004E46200701D546F00306600701D546F0DB
:10529000300631462F2000F0F1F83146302000F082
:1052A000EDF8FF210F2000F0E9F840F2FF18414629
:1052B000102000F0E3F80021A80700D510212007F6
:1052C00001D541F00F012B2000F0D8F80021E006B5
:1052D00000D56021A80701D541F00601680701D576
:1052E00041F01801312000F0C9F80026200701D54F
:1052F0004FF4F07604F00400384301D1A00701D543
:1053000046F01E06E00601D546F001063146322081
:1053100000F0B4F83146332000F0B0F800216807FF
:1053200000D50821382000F0A9F80021680700D531
:105330001221392000F0A2F8E00608D5FF210B2049
:1053400000F09CF841460C2000F098F807E000219E
:105350000B2000F093F849460C2000F08FF8E0068F
:1053600003D500210A2000F089F8002059E7000049
:10537000024A32F8100008800020704736010020F1
:1053800038B500F0070469462F20FFF7F1FFBDF89C
:10539000000020F00701009121432F2000F06EF85B
:1053A00069463020FFF7E4FFBDF8000020F0070158
:1053B00000912143302000F061F8002038BD10B585
:1053C00000F03F0421462D2000F058F844F480718D
:1053D0002E2000F053F8002010BD10B500F03F045F
:1053E0002146342000F04AF844F48071352000F062
:1053F00045F8002010BD10B500F03F0421463620CE
:1054000000F03CF844F48071372000F037F80020B9
:1054100010BD10B50021084600F030F80446601CAD
:105420002AD01B21012000F029F84FF4D871022066
:1054300000F024F80C21032000F020F800210620C1
:1054400000F01CF810212B2000F018F80621312064
:1054500000F014F800210846FFF789FE3220FFF71C
:10546000AEFF2820FFF7B9FF2820FFF7C4FF032075
:10547000FFF786FF204610BD204610BD38B5054613
:105480000C46C4F3002040EA45008DF800008DF87A
:10549000014002236A4600211A2002F0A3F80028E6
:1054A00002D1024921F8154038BD00003601002024
:1054B0002DE9FC410546002D5BD06C6A002C58D0CC
:1054C000626B4FF03C01501C4FF480374FF00106E7
:1054D0004FF6FF7309D01E32B2FBF1F0B84200D391
:1054E000184682B2A28302B9A683A26B501C09D0CF
:1054F0001E32B2FBF1F1B94200D319468AB2E283FF
:1055000002B9E683A08BE28B904202D30AB100205D
:10551000A083A07B10B1A06A01900DE094F8242034
:105520007F2A02D8FF20019006E0C02A03D36FF043
:105530007F40019000E00193E06A009028B9606A22
:105540000199084040F08070009004F12401284641
:1055500003F01CF801A9284603F07CF869462846A8
:1055600003F00CF8284603F07CF80A21204600F0EE
:1055700075FDBDE8FC8170B505466C6A08212046C2
:1055800000F06CFD002204F12401284601F0E4F84B
:10559000607B401C60734FF4FA7040F2E731B1FB5E
:1055A000F0F0608370BD000010B50E48046815E08F
:1055B000606A90B1C18B4A1EC283012906D0616A1C
:1055C000888B421E8A83012804D006E0204600F022
:1055D000CAFD02E0204600F0BBFD2468002CE7D1A4
:1055E00010BD00009C0200202DE9F04105460C464C
:1055F0001646002D0CD07CB100224FF49A71104653
:1056000003F03FF8206150B1627B3D4952B10CE09C
:105610006FF00D00BDE8F0816FF00500FAE74FF084
:10562000FF30F7E70A68521C0A6009682160406889
:1056300060610121017060694170616995F82A001B
:10564000887060690027C770206801F0A9FB616954
:10565000486060690781606947816069C760082E9A
:1056600008D0042E06D0032E07D1207B052801D0B8
:10567000042802D161696868C8606069076160696F
:10568000476160698761002095F82A10814203D93B
:10569000291891F82B1000E00021636900F11C0229
:1056A0009954401C80B21028EED30020626900F1AA
:1056B0002C015754401C80B24028F7D30020626967
:1056C00000F16C015754401C80B28028F7D3616907
:1056D0000C48C1F8EC0027830020626900F1F0015A
:1056E0005054401C80B24428F7D301223521204673
:1056F00000F01DF93146204600F027F9002089E727
:10570000880200206382536310B50446002C06D043
:10571000206908B103F026F900202061606110BD06
:10572000F8B505466C6A002060620621204600F04C
:1057300095FC012221462846FFF756FF0646300019
:1057400030D102223921204600F0F1F8298D20467F
:1057500000F01FF904223721204600F0E8F801216B
:10576000204600F0F2F80321204600F0EEF81C215C
:10577000204600F0EAF80621204600F0E6F8204630
:1057800000F016F9208BF03081B2206903F04DF95A
:1057900000954323114A2169606804F033F92046DB
:1057A000FFF7B2FF607B401CC1B26173062902D2D1
:1057B0000120884000E03C2000EB4001C1EBC0101C
:1057C0004FF6FF7101EAC00000F2F3104FF4FA71D6
:1057D000B0FBF1F060833046F8BD0000D0C5000892
:1057E00070B50B48046800250EE0606A58B1418B23
:1057F000012903D9A1F10101418304E003D14583CB
:10580000204600F0BBFC2468002CEED170BD0000E7
:105810009C02002070B5446A0020A062E062164E2F
:10582000A6F12805F178002901D0E96821633179D2
:1058300011B12969616302E0216B490861637179E3
:1058400011B16969A16301E0216BA163A1680969D4
:105850006162B17931B1A86901F0A2FAA0620120B8
:10586000A07300E0A073F079002803D0E86901F08C
:1058700097FAE06270BD00005C64012070B50446D8
:10588000656A204602F06DFE0A49204602F07EFE5F
:105890000849204602F072FE0649204602F0DAFE70
:1058A0000C21284600F0DAFB2046BDE87040FFF7E7
:1058B00037BF0000CCC5000870B505466C6A0948C2
:1058C000807800280DD007482838806801F068FAF1
:1058D0002062A068006960622846BDE8704000F060
:1058E00047BB70BD5C64012070B505466C6A002C36
:1058F0001CD0217B002604290FD004DC002915D000
:10590000032904D109E0052907D00A2905D06673C7
:105910002846BDE87040FFF703BF284602F021FE8D
:1059200066732846BDE8704000F0D6B970BD10B56A
:10593000038B5C1C04834469F033E154018B4B1CE2
:1059400003834069F031425410BD028B531C038322
:105950004069F0328154704710B5028B0C0E531C15
:1059600003834369F0329C54028B0C0C531C038359
:105970004369F0329C54028B0C0A531C0383436925
:10598000F0329C54028B531C03834069F0328154E3
:1059900010BD10B5028B0C0A531C03834369F0320F
:1059A0009C54028B531C03834069F032815410BD18
:1059B000002814D0018BFF234A1C02834269F03176
:1059C0005354002304E04A1C02834269F0315354CB
:1059D000018B442901D38A0701D04429F3D37047AE
:1059E0002DE9F34F83B004464FF0000B00210291E4
:1059F0000A219648FAF73CFC049949892C2904D2DB
:105A00006FF0010005B0BDE8F08F04994968A1600E
:105A1000F0260498B0F80880049F06E0311A8EB290
:105A2000A8EB00001FFA80F83F6817B17889B042F0
:105A3000F4D917B1D7F804A0D4E06FF00100E1E782
:105A40004FF0FF34B01C1FFA80F97A89701C824233
:105A500003D90AEB0600407805E0386810B14068C9
:105A6000007800E00020054634294DD00BDC0329E6
:105A700028D003DCD1B101290DD11CE0062929D0A1
:105A8000332908D137E0352945D036294AD03A297B
:105A90004FD03B2954D000253044801C86B27DB3C2
:105AA000002001906948005D58B38AE00020054657
:105AB000761EB6B2F0E7042802D06FF00500A1E729
:105AC0000624E9E70425042802D26FF0050099E7CF
:105AD0000724E1E7810702D06FF0050092E708286C
