:020000040800F2
:1000000010540020D5020008571C0008531C00089B
:10001000551C0008711B00084D230008000000005B
:10002000000000000000000000000000271F000882
:10003000891B000800000000C11C0008E11F000827
:10004000EF020008EF020008EF020008EF020008CC
:10005000EF020008EF020008EF020008EF020008BC
:10006000EF020008EF020008EF020008EF020008AC
:10007000EF020008EF020008EF020008EF0200089C
:10008000EF020008EF020008EF020008EF0200088C
:10009000EF020008EF020008EF020008EF0200087C
:1000A000EF020008EF020008EF020008EF0200086C
:1000B000EF02000841200008EF020008EF020008EC
:1000C000EF020008EF020008EF020008EF0200084C
:1000D000EF020008EF020008EF020008C921000843
:1000E000EF020008EF020008EF020008EF0200082C
:1000F000EF020008EF020008EF020008EF0200081C
:10010000EF020008EF02000845200008EF02000897
:10011000EF020008EF020008EF020008EF020008FB
:10012000EF020008EF020008EF020008EF020008EB
:10013000EF020008EF020008EF020008EF020008DB
:10014000EF020008EF020008EF020008EF020008CB
:10015000EF020008EF020008EF020008EF020008BB
:10016000EF020008EF020008EF020008EF020008AB
:10017000EF020008EF020008EF020008EF0200089B
:10018000EF020008EF02000800F002F800F092F819
:100190000AA090E8000C82448344AAF10107DA45E2
:1001A00001D100F087F8AFF2090EBAE80F0013F0A2
:1001B000010F18BFFB1A43F0010318474058000015
:1001C00060580000103A24BF78C878C1FAD85207A6
:1001D00024BF30C830C144BF04680C6070470000C1
:1001E0000023002400250026103A28BF78C1FBD840
:1001F000520728BF30C148BF0B6070476E2900F01E
:100200007D81702900F0BF82662903F07082652924
:1002100003F06D82672903F06A82612903F0698225
:1002200003681B0A28BF41F08001692900F02A8178
:10023000642900F02781752900F024816F2900F0DE
:100240004D82782900F08B82E92900F0E781E429CA
:1002500000F0E481F52900F0E181EF2900F04A8205
:10026000F82900F08A820368DB0928BF41F0800189
:10027000632900F08B87732900F09087E32900F051
:100280009B87F32900F0A087002070471FB503F07B
:1002900029FA00F0EBFF04000020002103F00CFA23
:1002A000401C60600020002103F0F0F9E0601FBDF9
:1002B00010B510BD00F0ACFF1146FFF7E7FF02F0EC
:1002C00041FC01F085F803B4FFF7F2FF03BC01F035
:1002D0008DF800000948804709480047FEE7FEE71F
:1002E000FEE7FEE7FEE7FEE7FEE7FEE7FEE7FEE7E6
:1002F00004480549054A064B70470000E51F000801
:100300008901000810120020105400201014002051
:10031000101400201CB50C46064B7B446946009027
:10032000204600F004F904460020694600F012F966
:1003300020461CBD370200004FF0013C50F8042B52
:1003400051F8043B9A4221D1A2EB0C03934313EAE8
:10035000CC1317D150F8042B51F8043B9A4215D115
:10036000A2EB0C03934313EACC130BD150F8042BEC
:1003700051F8043B9A4209D1A2EB0C03934313EAD0
:10038000CC13DBD04FF00000704700BFD01A01BA89
:10039000B1FA81F101F0180122FA01F0CB40C1F16C
:1003A0002001DBB2C0B2C01A2CFA01F3D11A91437A
:1003B00011EAC311E6D1704770477047704770B5B6
:1003C000044685690068C10601D5302600E0202674
:1003D000C00707D070BDD4E9012130469047206A9C
:1003E000401C20626D1EF6D570BD70B5044685694F
:1003F0000078C00707D170BDD4E9012120209047C3
:10040000206A401C20626D1EF6D570BD09684A0541
:1004100001D540B27047C905FCD500B270470968E4
:100420004A0501D5C0B27047C905FCD580B27047F6
:1004300070B50C460546012A05D02878800600D5FF
:10044000EA69002302E0012305E05B1C934202D22B
:10045000E05C0028F9D1A869E618C01AA861286AEA
:10046000184428622846FFF7AAFF04E0D5E90121D5
:1004700014F8010B9047B442F8D32846FFF7B5FFB4
:1004800070BD00002DE9F041064600241068752972
:10049000314616A510D0FFF7B9FF002802DA404216
:1004A00013A507E031688A0701D512A502E04907C4
:1004B00004D511A5012401E0FFF7B1FF00210A22B4
:1004C00006F1240709E0B0FBF2FCB0FBF2F302FBFB
:1004D0001C00303078541846491C0028F3D12346BC
:1004E0002A463046BDE8F04100F061BA0000000045
:1004F0002D0000002B0000002000000011680268A1
:10050000006A530501D508700AE0D30501D50880BB
:1005100006E0130603D5C217C1E9000200E0086037
:100520000120704701694A1C02610878704700B5D4
:100530008FB0CDE901310021059105497944CDE91C
:1005400003101146684600F029F90FB000BD000005
:10055000E5FFFFFF0A6802F8010B0A607047000020
:100560002DE9FF5F15468A460446DFF8AC80F84463
:100570000027D8E900103E46CDE9001010E03AF817
:1005800016106A4602A800F023FE411C07D021780D
:10059000890603D5E269391891420DD80744761CC3
:1005A0002078800602D5E069B84205DDAE42E6DB80
:1005B0003AF816000028E2D1A069C01BA0612046CD
:1005C000FFF7FDFED8E90010CDE90010002017E08C
:1005D0003AF818106A4602A800F0FAFDB0F1FF3FA1
:1005E00081460BD000250DF1080B05E0D4E901216F
:1005F0001BF8050090476D1C4D45F7D308F101002D
:10060000B0428046E4DB206A384420622046FFF78F
:10061000ECFEBDE8FF9F0000565300002DE9F041BD
:100620008046D21D22F007020025D2E90002F529FA
:1006300015A614D0011E72F1000106DA0023D0EBDA
:10064000030063EB020211A608E0D8F800108B0744
:1006500001D50FA602E0490701D50EA601251146D6
:10066000002408F1240704E000F05CF930323A5528
:10067000641C50EA0102F7D12B463246214640461F
:10068000BDE8F04100F093B9000000002D0000002B
:100690002B0000002000000030B4002100F12404F1
:1006A00008E002F00705D208303542EA4372DB0861
:1006B0006554491C52EA0305F3D10468002310A2D3
:1006C000250708D504F020040C4304D0C469012395
:1006D0000CA2641EC46130BC00F069B910B50446B8
:1006E00021461068FFF79BFE02462046BDE81040F9
:1006F0000023D1E7D21D22F00701D1E90023CBE787
:100700000000000030000000F0B40D46018809052B
:1007100002D5214C7C4402E01F4C7C440E34002165
:1007200000F1240608E002F00F071209E75D42EA33
:1007300003721B097754491C52EA0307F3D102786C
:100740000023120704D5702D06D009B102231134FD
:100750002246F0BC00F02BB901231034F8E770B545
:1007600004460D4621461068FFF759FE0246294609
:100770002046BDE870400023C6E7D21D22F00703E3
:10078000D3E90023C0E70368126843F02003036045
:100790000823C3610023B7E7B85100002DE9F05FDB
:1007A000894604464FF0000ADFF874B1FB44C0F8F4
:1007B00020A02046E1688847002874D0252806D06C
:1007C000D4E901219047206A401C2062F1E700260D
:1007D0005F462046E16888472028054607DB312D23
:1007E00005D2781910F8200C08B10643F1E7B007DC
:1007F00001D526F00406C4F81CA00027C4F818A0F0
:100800002A2D09D0284601F0BAFD38B304EB870839
:10081000303DC8F8185019E059F8041B204604EB85
:1008200087029161E1688847012F054618D1E06988
:10083000002820DA26F020061DE0D8F8180000EB8A
:10084000800005EB40003038C8F818002046E16809
:100850008847054601F093FD0028EED1012F0AD00C
:100860002E2D08D12046E16888477F1C0546022FBF
:1008700046F02006C4DBA069002803DA404246F0B7
:100880000106A061F00701D026F010066C2D0BD0F8
:10089000682D09D04C2D39D06A2D35D0742D35D026
:1008A0007A2D33D016E038E0E1682F46204688479D
:1008B000B842054609D16C2F26D04FF48060E1681C
:1008C000064320468847054604E06C2F1AD04FF4B3
:1008D000807006430DB3A5F14100192802D82035D8
:1008E00046F400664A462946204626604E46FFF7F3
:1008F00085FC80B101280BD0F61D26F0070000F121
:10090000080956E74020E4E78020D8E70020D6E732
:1009100006F104094DE7284652E7206ABDE8F09F3A
:100920004851000030B5B0F10A024FEA900E71F163
:1009300000034EEA817EB0EB0E0061EB91014FEABD
:10094000101E4EEA017E10EB0E0041EB11114FEA32
:10095000102E4EEA016E10EB0E0041EB11214FEA12
:10096000104E4EEA014E10EB0E0041EB11414018C3
:1009700041F100014FEAD00040EA41704FEAD10155
:1009800010EB80054FEA810444EA907444EB0104C3
:100990006D1944EB0404521BA3414FF0000348BF00
:1009A0000A3200D530BD401C41F1000130BD2DE9B7
:1009B000F0470D4699469246044600F12408016826
:1009C000880604D5E06921F01001216000E00120D3
:1009D000A84201DD471B00E00027A1697A1902EB5C
:1009E0000900081AA0612078C00602D42046FFF74B
:1009F000E6FC002608E0D4E901211AF80600904739
:100A0000206A401C761C20624E45F4DB2078C0062C
:100A10000AD52046FFF7D3FC06E0D4E901213020B7
:100A20009047206A401C2062381EA7F10107F4DCC1
:100A300007E0D4E9012118F805009047206A401C1E
:100A40002062281EA5F10105F3DC2046FFF7CDFC4E
:100A50002078000602D50220BDE8F0870120FBE7E0
:100A600070472DE9FF4F0C461E464FF0FF378BB005
:100A7000D2E90001DDF860800A908A46C1F30A5588
:100A800005B93D46002108464FF00000BAF1000FBD
:100A900000F4400005DA00EB80004FF4400101EA69
:100AA00050004FEA9059B9F1010F00DDB9460A989C
:100AB00050EA4A000ED044F61050A5F2FF354543E7
:100AC0002F14B8F1000F1ED07542291E1EDDC9F18A
:100AD00000021CE0B8F1010F4FF0000001D03021FE
:100AE00003E0F24305E02154401CB042FBDB3046FA
:100AF0000022002121540B99C1F80880C1E900208F
:100B00000FB0BDE8F08FBD1B6D1CDEE74A4600DA72
:100B1000694206A800F0EEFB06AB93E8070003ABC2
:100B200083E8070050460A9900F067FC8DE807004B
:100B3000A0F500501F3800900398002D09DD42F207
:100B40001F014A46084403A90390684600F0C6FE08
:100B500008E0A0F500504A461F3803A903906846F4
:100B600000F0D0FE8DE807000004000C03D04FF029
:100B7000FF30410800E01046B8F1000F03D000221A
:100B8000009215461EE0751E05D4FFF7CBFE3032ED
:100B900062556D1EF9D5B3460122084302D00022EA
:100BA0007F1C04E02078302801D100227F1E002A1B
:100BB000099786D01DE0112D07DAFFF7B3FE30321A
:100BC00062556D1C50EA0102F5D1084302D000982D
:100BD000C8B10EE00021681E05E0235C625C63542E
:100BE0002254401E491C8142F7DBAB46A81B401E25
:100BF0000990002004F80B000B98099AC0F80880AF
:100C0000C0E9002B7CE711264FF0000859E72DE9D9
:100C1000F04F88460446D21D22F0070191B0D1E979
:100C20000001CDE90A0101F092FB02460B98C00FCA
:100C300001D02D2007E02068810701D52B2002E09C
:100C4000202101EAC000032A099001D0072A05DB10
:100C500003464146204600F00DFB0BE1207880065C
:100C600001D5E06900E00620B8F1650F814606D0A5
:100C7000B8F1660F18D0B8F1670F70D131E00020DD
:100C8000B9F1110F009001DB112301E009F101031B
:100C90000AAA01A90CA8FFF7E4FEDDE90C70002602
:100CA00009F10105834647E001204B4600904FF0D3
:100CB00000470AAA01A90CA8FFF7D3FEDDE90DB091
:100CC0000C995D46002610B909F101000D18B9EB29
:100CD000050003D4C0F1FF3609F10105A5EB0900B9
:100CE0002BE0B9F1010F01DA4FF001090020B9F151
:100CF000110F0090484601DD112300E003460AAAC7
:100D000001A90CA8FFF7ADFEDDE90C704D460026E9
:100D10008346207800070AD4AB4500DA5D4601A877
:100D2000012D04DD411911F8011C302907D04F4570
:100D300002DA17F1040F04DA012082460FE06D1E7B
:100D4000EEE7002F02DCED1B3E4403E0781CA842D6
:100D500000DD7D1CB81B00F1010A4FF00047207830
:100D6000000703D4AA4501DB4FF0FF3A0021B7F199
:100D7000004F0DF143088DF8431024D002202B239F
:100D8000002F01DA7F422D230A21021EA0F101006B
:100D900000DC5FB197FBF1FC97FBF1F201FB1C7CDF
:100DA00017460CF1300C08F801CDEEE7A8F1010070
:100DB00003702188090501D5452100E06521A0F1D6
:100DC000010800F8011C09980FA9A1EB0807FF1DF5
:100DD00000B10120411901EBEA70A1693844081AF9
:100DE000401EA0612078C00602D42046FFF7E7FA33
:100DF000099828B1D4E901219047206A401C20625B
:100E00002078C00622D52046FFF7D9FA1EE0002E32
:100E100004DBB34502DD01A8805D00E03020D4E9A9
:100E200001219047206A401C2062761CAAF1010033
:100E30005FEA000A0AD100F019FAC0680168405C54
:100E4000D4E901219047206A401C2062281EA5F1A8
:100E50000105DCDC07E0D4E9012118F8010B90471B
:100E6000206A401C2062381EA7F10107F3DC2046EF
:100E7000FFF7BBFA032011B043E600002DE9F04F65
:100E800004460D46D21D22F0070089B0D0E9009239
:100E900048461746394601F05AFA0246F80F01D083
:100EA0002D2307E02068810701D52B2302E02021B4
:100EB00001EAC0038DF820300BB1012000E00020D2
:100EC000032A824601D0072A04DB2946204600F087
:100ED000D1F93DE12078800601D40D2500E0E569D7
:100EE000C7F30A560D2D49DA00214FEA175B084671
:100EF0004FF00000002F00F4400007DA00EB800004
:100F00004FF4400100EBD07001EA60008115012927
:100F100001DD4FF0FF3100224FEA850CBCF1180FC4
:100F200006D31346ACF118004FF08052C24003E0E4
:100F30004FF4801323FA0CF30CF10C0CBCF1200FCE
:100F400004D3ACF1200C09FA0CF001E007FA0CF024
:100F500000294FF0004801DD18B90FE00ED14045DF
:100F60000CD319EB02095F4121B9404502D19F43DF
:100F700029EA0209BBEB175F00D0761C2088000528
:100F800002D57B48784402E079487844193808AAA9
:100F9000302302F80A30037C0AF10101002E0AF125
:100FA000020A53546A4602DC4FF0300101E04FF070
:100FB00031014FF001088DF8001002D0A6F2FF3683
:100FC00003E059EA470100D06A4E002D02DC217887
:100FD000090704D54FF002082E218DF80110C446F0
:100FE00000210BE0C7F303433F01C35C491C6D1EA6
:100FF00002F80830052908F1010801DA002DF1DCBA
:1010000000210CE000EB1973491C1B786D1E0829A8
:1010100002F808304FEA091908F1010801DA002D39
:10102000F0DC2178890602D514E0A8F10108E0453A
:1010300005DD02EB080111F8011C3029F5D0B8F1EB
:10104000000F07DD02EB080111F8011C2E2901D168
:10105000A8F10108002D05DD3E2102F808106D1EE3
:1010600008F10108407C002E02F8080008F1010890
:1010700004DA2D20764202F8080002E02B2002F864
:1010800008000A214FF47A70864208F101080BDB50
:1010900096FBF0F3303302F8083096FBF0F308F1DA
:1010A000010800FB136601E0642E0CDB642096FB54
:1010B000F0F3303302F8083096FBF0F308F1010842
:1010C00000FB136601E00A2E06DB96FBF1F03030E0
:1010D00002F8080008F1010896FBF1F001FB10602E
:1010E000303002F80800A16908F1010808EB050298
:1010F00002EB0A00081AA0612078C00602D420463C
:10110000FFF75DF9216A08AE01EB0A00206204E0F6
:10111000D4E9012116F8010B9047BAF1010AF7D280
:101120002078C00602D52046FFF749F96E4609E04F
:1011300016F8010B3E280FD0D4E901219047206A10
:10114000401C2062B8F10108F2D22046FFF74DF9A9
:1011500009B00320BDE8F08F206A2844206203E034
:10116000D4E90121302090476D1EEBD3F8E7000051
:101170009449000002FCFFFF10B5436913B1AFF3BF
:10118000008001E0FFF754F9012010BD127800F152
:1011900024010A7000224A700122EDE711684FF025
:1011A000FF32E9E710B5436913B1AFF3008001E006
:1011B000FFF7D6F9012010BD128800F124018284C6
:1011C0000022C2840122EDE711684FF0FF32E9E707
:1011D00070B516460C46054600F040F8036893F8D3
:1011E0000101012806D0FF2C0FD8185D68B101203D
:1011F0002C7070BDD3F807013246214603F2071365
:1012000003442846BDE8704018474FF0FF3070BDDA
:10121000754600F0E7F8AE4605006946534620F0F3
:101220000700854618B020B5FFF762F8BDE82040FA
:101230004FF000064FF000074FF000084FF0000B92
:1012400021F00701AC46ACE8C009ACE8C009ACE845
:10125000C009ACE8C0098D467047000010B500F029
:1012600005F8001D10BD00BF512400000048704764
:10127000D01100202DE9F0411F46044603260168E5
:10128000072A01F4006004DB08B116A505E016A5E5
:1012900003E008B115A500E015A521F010002060BD
:1012A000A069C01EA0610FB1401EA0612046FFF7DB
:1012B00086F84FB1D4E9012138469047206A401C96
:1012C0002062C01C206206E0206AFAE7D4E901210E
:1012D00015F8010B9047761EF8D22046FFF785F8E7
:1012E000BDE8F0814E414E006E616E00494E4600F1
:1012F000696E66002DE9F047814616468AB033488C
:1013000078440DC88DE80D0030487844801C03AC4B
:101310000DC884E80D0041F69B300844372190FB4E
:10132000F1F290FBF1F5A5F1800501FB12041B3CE5
:1013300002D56442012000E00020DFF890A0804642
:101340000027FA44AAF1BE0A0DE0E00709D03246B0
:10135000684607EB47010AEB810100F0D3FA8DE8FC
:10136000070064107F1C002CEFD1184F7F44AC3F66
:1013700018E0E80714D007EB04100DF1180A90E804
:101380000E008AE80E00C068F04201D1981908905A
:10139000324606A903A800F0B5FA03AB83E80700BC
:1013A0006D10641C002DE4D132466946B8F1000F7F
:1013B00003A802D000F092FA01E000F0A3FAC9E914
:1013C0000001C9F808200AB0BDE8F087A84600006F
:1013D00010B50446AFF300802046BDE81040FEF78C
:1013E00072BF000000487047B0110020014918206A
:1013F000ABBEFEE72600020070475FEA400C08BF64
:1014000091F0000F4FEA8C234FEAC12243EA515179
:101410004FEA1C5018BF00F5F0404FEA300018BFEB
:1014200041F000415FEA6C5C00F02980BCF1FF3FB5
:1014300008BF40F080407047130C06BF12044FF005
:10144000100C4FF0000C130E04BF12020CF1080C2C
:10145000130F04BF12010CF1040C930F04BF920090
:101460000CF1020CD30F04BF52000CF1010C114619
:101470004FF00002A0F11F00A0EB0C00704711F02C
:10148000004F08BF704731F000413FF4D5AF0B0C5F
:1014900006BF09044FF0100C4FF0000C0B0E04BFF8
:1014A00009020CF1080C0B0F04BF09010CF1040C2C
:1014B0008B0F04BF89000CF1020CCB0F04BF490055
:1014C0000CF1010CCCF12003A0EB0C0022FA03F389
:1014D00002FA0CF241EA030100F10100704720F02A
:1014E0007F4C80EA030023F07F47ACEB070303F552
:1014F0007C5300F0004003F1FF032DE980494FEADF
:10150000154B09B44FEA144325EA0B4E24EA03486D
:101510000FF2042606EB132749083E785FEA3202F1
:1015200003FB0667C7F5000707FB06F64FEA5437CB
:101530004FEAD64606F1020607FB066CCCF1005CCA
:101540004FEA1C472CEA074C07FB06F40CFB06F598
:1015500004EB15464FEA961634BF00204FF00040CA
:101560004FEAD13706FB07FC4FEA1C4C0CFB0BF78C
:10157000D21B03FB0CF761EB07010CFB0EF7B0EB82
:10158000074072EB17420CFB08F734BFA2EB07428F
:10159000B2EB074261EB17414FEA0C444FEA910767
:1015A00006FB07FC4FEA1C4C0CFB0BF7B0EBC740EB
:1015B00072EB573203FB0CF734BFA2EBC742B2EB1E
:1015C000C74261EB57310CFB0EF7B0EBC70072EB73
:1015D00057720CFB08F734BFA2EBC702B2EBC7028D
:1015E00061EB5771039F4FEA816141EA921104EB6D
:1015F000CC044FEAD1374FEA826206FB07FC42EA8D
:1016000090124FEA80604FEA1C4C0CFB0BF7D21B88
:1016100003FB0CF761EB07010CFB0EF7B0EB074087
:1016200072EB17420CFB08F734BFA2EB0742B2EB98
:10163000074261EB17414FEA8C554FEA910704EBE3
:101640009C2406FB07FC4FEA1C4C0CFB0BF7B0EB91
:10165000C74072EB573203FB0CF734BFA2EBC74213
:10166000B2EBC74261EB57310CFB0EF7B0EBC70092
:1016700072EB57720CFB08F734BFA2EBC702B2EB58
:10168000C70261EB577115EB4C254FEA816141EAC6
:1016900092114FEA82624FEAD13742EA901206FB7A
:1016A00007FC44F100044FEA80604FEA1C4C0CFB3D
:1016B0000BF7D21B03FB0CF761EB07010CFB0EF7DA
:1016C000B0EB074072EB17420CFB08F734BFA2EBFC
:1016D0000742B2EB074261EB174115EB1C154FEACD
:1016E000813141EA92414FEA823242EA90424FEA26
:1016F00080304FEA0C7644F1000448EA03434EEA96
:101700000B484FF0000EB2EB080C71EB030724BF3F
:10171000624639464EEB0E0E4FF0000B0018524158
:1017200049414BEB0B0BB2EB080C71EB03077BF160
:10173000000B24BF624639464EEB0E0E4FF0000BF5
:101740000018524149414BEB0B0BB2EB080C71EB0B
:1017500003077BF1000B24BF624639464EEB0E0EA9
:1017600051EA020718BF46F0010616EB0E7655F156
:10177000000254F1000103D5BDE88901BDE80088ED
:10178000BDE88901BDE80048B619524141EB0101AD
:10179000A3F10103704780807F7E7D7C7B7A79781E
:1017A000777676757473727171706F6E6E6D6C6C26
:1017B0006B6A6A69686867666665646463636261C8
:1017C0006160605F5F5E5E5D5D5C5C5B5B5A5A5949
:1017D00059585857575656555555545453535252B5
:1017E0005251515050504F4F4F4E4E4D4D4D4C4C0D
:1017F0004C4B4B4B4A4A4A49494948484847474756
:101800004746464645454544444444434343434292
:10181000424242414141002B26D4770021D01CB5E1
:101820004FEA370703B44FF010004FF010014FF0AC
:1018300000000FBCBDE810400BF1010BBBF1010F24
:1018400008BF5FEA170722BF12F1010211F101017F
:101850004FF0004143F1000300F0004043EA000074
:101860007047F9D35708DAE746EA064613F1400F06
:101870004FEA16461FDD13F1200FDFBF16430A465D
:10188000002120335B42C8D0C3F1200746EA064658
:1018900002FA07F74FEA164646EA0706C3F12007A1
:1018A00022FA03F201FA07F721FA03F14FF00003DD
:1018B00042EA0702B1E746EA020646EA06464FEA6E
:1018C000164646EA0106BCBF46EA0646360C4FF00D
:1018D00000034FF000024FF000019EE72DE9C048E1
:1018E000934630B491E8380007C831EA400C48BF4D
:1018F00034EA430C03D5FFF7F2FDFFF78CFFF0BC91
:10190000BDE800882DE9C048934630B491E838001E
:1019100007C810F0804F08BF13F0804F03D100F0CC
:1019200005F8FFF778FFF0BCBDE8008820F07F479E
:1019300080EA030023F07F4C07EB0C03A3F57C53F4
:1019400000F00040A3F1FE0392F0000F00F0B3801E
:1019500095F0000F00F077802DE901494FEA114022
:101960004FEA144621EA004800FB06FC24EA064739
:1019700008FB06F607FB08F800FB07F718EB06481C
:101980004CEB164C4FEA124B18EB07484FEA154642
:101990004CEB174022EA0B4E0BFB06FC25EA0647F0
:1019A0000EFB06F607FB0EFE0BFB07F71EEB064EC3
:1019B0004CEB164C4FF000061EEB074E4CEB174B52
:1019C00018EB0B0840F1000018EB0E0B58EB000869
:1019D00040F100008F1A4FF000013CBFC943661B65
:1019E00014BFB5EB040C00213CBFC943F61B4FEA02
:1019F00017444EEA8E0E27EA04454FEA1C4704FBC3
:101A000007622CEA074C05FB07F70CFB05F604FB05
:101A10000CFC16EB074642EB174216EB0C4642EB6A
:101A20001C421BEB060658EB0202414146EA9E06A9
:101A300001D5BDE80189B619524141EB0101A3F17D
:101A40000103BDE801894FEA14454FEA114724EA32
:101A5000054621EA074C05FB07F406FB07F70CFBDC
:101A600006F105FB0CFC11EB074144EB17444FEA70
:101A7000124711EB0C4144EB1C4422EA074C05FBD6
:101A800007F206FB07F70CFB06F605FB0CFC16EB52
:101A9000074642EB174216EB0C4642EB1C456A1810
:101AA00054F1000148BF7047B619524141EB0101A2
:101AB000A3F10103704795F0000F37D04FEA1142B0
:101AC0004FEA144721EA024624EA074C02FB07F1D9
:101AD00006FB07F70CFB06F402FB0CFC14EB0744B7
:101AE00041EB17414FEA154714EB0C4441EB1C4105
:101AF00025EA074C02FB07F506FB07F70CFB06F689
:101B000002FB0CFC16EB074645EB174516EB0C46A3
:101B100045EB1C42121951F1000148BF7047B6193C
:101B2000524141EB0101A3F1010370474FEA144513
:101B30004FEA114724EA054621EA074C05FB07F165
:101B400006FB07F70CFB06F24FF0000605FB0CFC4A
:101B500012EB074241EB174112EB0C4251EB1C41D7
:101B600048BF7047921841EB0101A3F10103704790
:101B7000FEE7000008B5034A1044143000900098B6
:101B8000016008BD007400407047000001B50348C3
:101B90000099016001680029FCD108BD0000002007
:101BA0002DE9F041002201274FF0030C07FA02F55E
:101BB0000B682B40AB422CD1066853000CFA03F49F
:101BC000A64306600E79D0F800809E4046EA0806DB
:101BD00006600E79012E01D0022E12D18668A6432E
:101BE00086604E79D0F808809E4046EA08068660F6
:101BF0004668AE43466045688E799640B6B2354336
:101C00004560C568A543C560CC799C40C3681C434A
:101C1000C460521C102AC9D3BDE8F08110B54B072F
:101C2000DB0E9A40C90800EB8100016A0F249C403A
:101C3000A1430162016A1143016210BD0246002006
:101C400012690A4200D00120704741837047018326
:101C50007047FEE7FEE7704730B50F23C2780125D5
:101C60000178002A1FD0154A126802F4E062C2F51A
:101C7000E062C2F30722C2F10404D3404278A240DA
:101C800084781C401443220101F1E02181F80024F2
:101C9000007800F01F018D404009800000F1E02035
:101CA000C0F8005130BD01F01F0085404809800098
:101CB00000F1E020C0F8805130BD00000CED00E0E4
:101CC00070470000054A002903D0116801431160E4
:101CD000704711688143116070470000303802403E
:101CE000054A002903D0116801431160704711684B
:101CF000814311607047000040380240054A0029C6
:101D000003D011680143116070471168814311606D
:101D10007047000020380240054A002903D01168AE
:101D200001431160704711688143116070470000E2
:101D30002438024070B5244B196801F00C01234C83
:101D400000291ED0661004291DD008291DD004606A
:101D5000196801F0F00109091D4A545C0168E1406D
:101D600041601C6804F4E054A40A145D21FA04F4F0
:101D700084601B6803F460435B0BD25CD140C1609C
:101D800070BD0460E4E70660E2E70F4A121F1168C5
:101D9000C1F38055116801F03F0135B1B6FBF1F197
:101DA0001468C4F38814614305E0B4FBF1F11468CE
:101DB000C4F3881461431268C2F30142521C5200FA
:101DC000B1FBF2F10160C3E7083802400024F400DF
:101DD00005000020034B1A6822F0EC620843104310
:101DE0001860704708380240034B1A6822F07842A6
:101DF000084310431860704708380240002904D097
:101E0000018841F0400101807047018821F04001C4
:101E10000180704710B52A4988420AD184140121F3
:101E20002046FFF779FF2046BDE810400021FFF76C
:101E300073BF244988420AD1041401212046FFF7C8
:101E40005DFF2046BDE810400021FFF757BF1E4947
:101E500088420AD1C41301212046FFF74FFF2046D4
:101E6000BDE810400021FFF749BF184988420AD158
:101E7000441401212046FFF74FFF2046BDE81040E3
:101E80000021FFF749BF124988420AD101210C0500
:101E90002046FFF741FF2046BDE810400021FFF734
:101EA0003BBF0C4988420AD101214C052046FFF76F
:101EB00033FF2046BDE810400021FFF72DBF10BDC5
:101EC0000030014000380040003C00400034014038
:101ED00000500140005401400246002012890A428D
:101EE00000D001207047808970478181704730B5EC
:101EF000028802F441530A884C88CD8822438C889A
:101F00002C4322430C8922434C8922438C8922434F
:101F1000CC8922431A430280828B22F4006282839E
:101F2000098A018230BD70470CB5002201920092EF
:101F30002749086840F4803008604FF4A0430868DF
:101F400000F4003000900198401C0190009810B9F6
:101F500001989842F3D10868800302D501200090CF
:101F600000E000920098012831D119484030026801
:101F700042F0805202601748026842F44042026018
:101F80001348083002680260026842F400420260AE
:101F9000026842F4A0520260021F0F4B13600A68ED
:101FA00042F080720A600A689201FCD50B4A40F246
:101FB00005711160016821F003010160016841F0C1
:101FC000020101600168C1F381010229FAD10CBD4F
:101FD000003802400070004008544007003C0240B6
:101FE00000F0E8B810B51248016841F470010160D2
:101FF0001048016841F0010101600E4A00210832D9
:10200000116002680C4B1A400260031D0B4A1A60F3
:10201000026822F48022026006480C300160FFF75B
:1020200083FF03494FF000608039086010BD000055
:1020300088ED00E000380240FFFFF6FE103000247B
:1020400001F074B901F0C4B9002904D0018841F04D
:10205000800101807047018821F080010180704774
:10206000C94301827047002904D0018841F0010171
:1020700001807047018821F001010180704702460C
:102080000020138A0B4092890A40002B02D0002ABC
:1020900000D001207047000070B5028C22F01002C1
:1020A0000284028C8388048B24F4E04424F4407678
:1020B0000D884FF6FF7404EA0525354322F020020F
:1020C0008E8904EA061616434A8804EA021232434D
:1020D000114EB04202D0114EB04217D122F0800210
:1020E000CE8904EA0616164326F040068A8804EADA
:1020F0000212324323F4806323F400630E8A04EA5D
:1021000086061E434B8A04EA830333438380058398
:1021100089688163028470BD0000014000040140B1
:10212000028B22F400624FF6FF7303EA0121114390
:10213000018370478163704730B50288164C174D94
:10214000A0420DD0A8420BD0B0F1804F08D0144B64
:10215000984205D0134B984202D0134B984203D1BA
:1021600022F070034A881A43104B984206D0104B55
:10217000984203D022F440730A891A4302804A68C5
:10218000C2620A880285A04201D0A84201D1897AA0
:1021900001860121818230BD000001400004014020
:1021A0000004004000080040000C00400010004007
:1021B0000014004003480168002902D00168491E4C
:1021C000016070470000002001F056B98A05C9433C
:1021D0000180704740F66A120A0A01219140C94302
:1021E00001807047002904D0818941F40051818128
:1021F0007047818921F40051818170470246002097
:1022000012880A4200D00120704770B5002440F6C1
:102210006A12C1F3421301F01F05012606FA05F206
:10222000012B0CD0022B0DD0838A1340090A8E405B
:10223000008830400BB100B10124204670BD838975
:102240001340F3E7038A1340F0E710B540F66A1332
:10225000C1F3421301F01F040121A140012B07D05B
:10226000022B07D014303AB102680A43026010BD55
:102270000C30F8E71030F6E702688A43026010BDC0
:102280007FB504460D46208A20F44051E888084373
:102290002082A08941F20C618843A9882A891143D0
:1022A0006A8902431143A181A08A20F44071A88960
:1022B0000843A0826846FFF73DFD1E48844202D0D5
:1022C0001D48844201D1039800E00298A1890904C5
:1022D00008D500EBC00101EB001029684900B0FBF4
:1022E000F1F007E000EBC00101EB00102968890064
:1022F000B0FBF1F06422B0FBF2F109010B096FF0C1
:1023000018056B4300EB8300A3891D044FF03203D3
:1023100007D503EBC000B0FBF2F000F00700084364
:1023200006E003EB0010B0FBF2F000F00F000843F2
:1023300020817FBD00100140001401408088C0F35F
:1023400008007047C1F3080181807047FEE703B4BD
:1023500001984100009850EAC12018BF04204A0D9E
:1023600018BF40F0010040F2FF72B2EB515F08BFAE
:1023700040F00200012808BF052002B07047303845
:102380000A2801D201207047002070471CB50121A6
:102390000820FFF797FC0F4C02220D212046FFF783
:1023A0003DFC4FF40051009102218DF804100321EF
:1023B0008DF8051000218DF8061001218DF8071009
:1023C00069462046FFF7ECFB5421FA2000F0CCFFD1
:1023D00000201CBD000C02400020704710B50D4CC1
:1023E0000D4B2168481C5A5C411C2160185C42EA74
:1023F000002000B247F6FF710844C0F30F1000F050
:102400004BFC2068B0F5075F01D300F0A3FF00206C
:1024100010BD000048000020063700081CB501214F
:102420000846FFF74FFC0120009000218DF80410B2
:1024300003218DF805108DF8070069460248FFF763
:10244000AFFB00201CBD000000000240014900203D
:102450008860704724000020F0B5044600200D4B32
:102460009A68002A01D0401EF0BD0B4D00260CE0FA
:10247000AA5C22541A78521CD2B21A700C2A00D3C9
:102480001E70401CC0B28842EED21A785F78BA4201
:10249000EED1F0BD24000020A411002038B51A4C64
:1024A000A068002802D04FF0FF3038BD0121174846
:1024B000FFF7C4FB00909DF80000A178002288423D
:1024C00003D022719DF80000A0709DF80000E17813
:1024D000884216D02079401CC0B220710A2810D33F
:1024E000227101209DF8001001B18120084B617814
:1024F0005854491CC8B260700C2800D36270A07890
:10250000E070002038BD00002400002000000240E0
:10251000A411002010B50446207900F027FD10B169
:102520004FF0FF3010BD00202060A060207110BD72
:102530002DE9F05F0024DFF88890A9F1300A04EB60
:10254000440B09EB8B0595F80480082203214046D3
:1025500000F016FE68BB284600F0B0F8064659F8B1
:102560002B20334617A1042001F070F8284600F014
:10257000C9F8074659F82B203B4616A1042001F064
:1025800065F8002000EB40010AEBC1014A68B24245
:1025900008D18968B94205D100EB40000AEBC000C0
:1025A000A86003E0401CC0B20228EBD3404600F014
:1025B000DDFC641CE4B2022CC1D30020BDE8F09F16
:1025C0007C0000202573206A69643A307825780DF4
:1025D0000A0000002573206D69643A307825780D73
:1025E0000A0000002DE9F04705460E464FF00008AE
:1025F0000024224F04EB440057F820103046FDF72A
:102600009BFEF0B1641CE4B2022CF3D31CA10420A5
:1026100001F01CF84FF0FF3604EB440907EB890486
:102620001DA1A0680268042001F010F8701C13D0EE
:1026300008220321404600F0A3FD0646701C07D087
:102640000AE004EB440007EB800090F80480E3E725
:1026500016A1042000F0FAFF761C07D057F82900D5
:10266000286020792871A068A86003E00020286015
:102670002871A8600020BDE8F08700007C000020E1
:102680006F70656E2073706920666C617368206579
:1026900072720D0A0000000073706920666C61732D
:1026A0006820747970653A25730D0A006F70656E45
:1026B00020737069206572720D0A00007CB50446B3
:1026C00001259F2001902079002100F081FC2079D4
:1026D0002B46002201A900F0BDFD032320796A46A4
:1026E000002100F0B7FD2079012100F071FC9DF878
:1026F00000009DF8011001EB00209DF8021001EB95
:1027000000207CBD7CB50446042590208DF8040093
:1027100000208DF805008DF806008DF8070020795F
:10272000002100F055FC20792B46002201A900F081
:1027300091FD022320796A46002100F08BFD20796B
:10274000012100F045FC9DF800009DF8011001EB0F
:1027500000207CBDF8B5044617461D460426002D12
:1027600020D003208DF80000080C8DF80100080A25
:102770008DF802008DF803102079002100F028FC6C
:10278000207933460022694600F064FD20792B460B
:102790003A46002100F05EFD2079012100F018FC8E
:1027A0000020F8BD0020F8BD38B5044604252020DF
:1027B0008DF80000080C8DF80100080A8DF8020061
:1027C0008DF80310204600F09CF92079002100F0DC
:1027D000FFFB20792B460022694600F03BFD207963
:1027E000012100F0F5FB204600F026F9002038BD5D
:1027F00083681B695943FFF7ADBF10B51446826863
:10280000128A93B201FB03F2214600F036F9002050
:1028100010BD000010B504A000F016F806A000F0EE
:1028200013F8002010BD0000626F6172645F737066
:1028300069666C6173680000636F72655F737069CD
:10284000666C6173680000002DE9F047ADF5015D2D
:102850000446002543A1022000F0F8FE0DF13408E3
:1028600021464046FFF7BEFE064647A102200D9ACC
:1028700000F0ECFE761C27D0002100204FF480529F
:1028800010AE3154491CC9B2401C80B29042F8D3FA
:10289000224643A1022000F0D9FE4FF0000949462C
:1028A0004046FFF781FF47A1022000F0CFFE0DF563
:1028B00082573A4649464046FFF79AFF44A1022014
:1028C00000F0C4FE00240FE043A1022000F0BEFE91
:1028D000FEE73B5DFF2B05D0224645A1022000F01C
:1028E000B5FE0125641CA4B20F980069A042F0D87F
:1028F000324649464046FFF780FF40A1022000F0E3
:10290000A5FE3A4649464046FFF772FF30A1022035
:1029100000F09CFE3CA1022000F098FE00240BE099
:10292000385D315D884205D022463BA1022000F08F
:102930008DFE0125641CA4B20F980069A042EFD857
:10294000012D0AD035A1022000F080FE4046FFF79D
:10295000E1FD0DF5015DBDE8F08733A1022000F037
:1029600075FEF3E73E3A2D2D2D2D2D2D2D64657628
:102970005F737069666C6173685F746573742D2D25
:102980002D2D2D2D2D0D0A003E3A2D2D2D2D2D2DC9
:102990002D25732D2D2D2D2D2D2D0D0A0000000020
:1029A0003E3A2D2D2D2D2D2D2D74657374207365BC
:1029B00063746F722065726173652D2D2D2D2D2D21
:1029C0002D0D0A0065726173652E2E2E0000000029
:1029D000726561642E2E2E006F70656E20737069B3
:1029E00020666C617368204552520D0A0000000099
:1029F00025783D2530325820000000007772697438
:102A0000652E2E2E000000000D0A3E3A7465737488
:102A10002077722E2E0D0A00257820004F4B207350
:102A20006563746F720D0A0062616420736563747C
:102A30006F720D0A000000007CB504460020019072
:102A40000125052000902079002100F0C1FA2079AD
:102A50002B460022694600F0FDFB20792B4601AA97
:102A6000002100F0F7FB9DF80400C007F5D12079A4
:102A7000012100F0ADFA00207CBD2DE9F8430446A9
:102A8000884615461E4637E002208DF80000280CC7
:102A90008DF80100280A8DF80200EFB28DF803705E
:102AA000204600F02EF84FF004092079002100F0B4
:102AB0008FFA20794B460022694600F0CBFBC7F520
:102AC0008077B7420ADA20793B460022414600F07F
:102AD000C1FBF01B86B2B8443D4406E02079334682
:102AE0000022414600F0B6FB00262079012100F0CB
:102AF0006FFA2046FFF7A0FF002EC5D10020BDE8E9
:102B0000F88338B50446012506200090207900217D
:102B100000F05EFA20792B460022694600F09AFB0D
:102B20002079012100F054FA002038BD10B50523AA
:102B3000034A0021602000F095F9002010BD00003C
:102B40003D0000200EB54B48FFF7F4F849486421DA
:102B50004068B0FBF1F0401E0F270025B0F1807FE8
:102B600008D24FF0E0214861434AF02010708D6197
:102B7000072008610520FFF709F801210846FFF743
:102B8000A1F84FF48070019003268DF809604FF092
:102B900002088DF808808DF80A5001248DF80B404A
:102BA00001A93648FEF7FCFF0021A005FFF712F946
:102BB00001210420FFF786F8600201908DF809607A
:102BC0008DF808808DF80A508DF80B4001A92C482B
:102BD000FEF7E6FF31070020FFF706F9012140204C
:102BE000FFF770F801978DF808408DF80A508DF8BE
:102BF00009608DF80B40234C01A92046FEF7D0FF59
:102C00000F212046FFF723F8032000F083FC1EA1CC
:102C1000032000F01BFD00F061F800F01BFAFFF745
:102C2000FDFBFFF7B3FBFFF781FFFFF7D5FBFFF7D6
:102C30007FFCFFF70BFCFFF731FC01216846FFF733
:102C40000BFC012811D19DF80000012802D0812839
:102C500007D00AE0FFF7DEFD0F212046FEF7F5FF63
:102C600003E00F212046FEF7F2FF0120FEF78EFF62
:102C7000E1E700009400002023ED00E000000240A6
:102C8000000802400018024068656C6C6F20776F86
:102C90007264210D0A00000010B501460020FEF705
:102CA00069FF002010BD10B5002000F067F800F0AB
:102CB00097F8002000F072F800F00AF8012000F008
:102CC0005DF800F005F8BDE81040002000F056B8AF
:102CD0004620401E0028FCD1704700001CB5012191
:102CE0000820FEF7EFFFC020009001208DF80400BF
:102CF00000218DF8061003218DF805108DF80700CE
:102D000069460548FEF74CFF012000F037F8012026
:102D100000F044F800201CBD000C024070B50024F7
:102D2000002500F04BF813E0002000F027F8FFF733
:102D3000CFFF012000F022F86806050E00F010F821
:102D4000012809D005F0FE05FFF7C2FF641CE4B2BC
:102D5000082CE9D3284670BD45F00105F4E70000D2
:102D600010B580210448FEF769FF012801D000203A
:102D700010BD012010BD0000000C0240064A0128D1
:102D800005D0002807D140211046FEF75EBF402144
:102D90001046FEF75CBF7047000C0240064A01284F
:102DA00005D0002807D180211046FEF74EBF8021B4
:102DB0001046FEF74CBF7047000C02401CB5802047
:102DC000009000208DF8040003218DF805108DF887
:102DD000070069460148FEF7E3FE1CBD000C0240F7
:102DE0001CB58020009001208DF8040000218DF892
:102DF000061003218DF805108DF80700694602487A
:102E0000FEF7CEFE1CBD0000000C024010B5FFF71F
:102E1000E7FF0120FFF7C2FF0120FFF7AFFFFFF739
:102E200057FF0020FFF7BAFFFFF752FFBDE8104041
:102E30000020FFF7A3BF10B5FFF7D2FF0020FFF778
:102E40009DFF0020FFF7AAFFFFF742FF0120FFF7D9
:102E500095FFFFF73DFF0120FFF7A0FFBDE8104001
:102E6000FFF736BF2DE9F04104460D461646984659
:102E7000FFF7CCFF4DB1012000EB4400C0B200F0E1
:102E80004FF800F01DF8002413E06006000EF6E78E
:102E900015B1012D06D00BE0305D00F041F800F0D7
:102EA0000FF805E0FFF73AFF0746FFF7FCFE37553E
:102EB000641C4445ECDBFFF7BEFF0020BDE8F08159
:102EC00010B50024FFF77AFF0120FFF767FFFFF737
:102ED000FFFE0120FFF752FFFFF7FAFE641CE4B289
:102EE000FA2C07D9FFF7A7FF06A1032000F0AEFBDD
:102EF000012010BDFFF734FF0028EFD1FFF73EFFA0
:102F0000002010BD6932633A776169742061636B98
:102F10002074696D65206F7574210D0A0000000032
:102F200070B505460024FFF75BFF0020FFF726FF82
:102F300018E0280603D50120FFF730FF02E000204B
:102F4000FFF72CFFFFF7C4FE0120FFF717FFFFF785
:102F5000BFFE0020FFF712FFFFF7BAFE6806050E5E
:102F6000641CE4B2082CE4D3002070BD70B5144C8E
:102F70004FF0FF352168814201D0284670BD3128CD
:102F800006D0104A322809D033280DD0284670BD0B
:102F90004FF480410C48FEF75AFE09E04FF400411F
:102FA0001046FEF754FE03E040211046FEF74FFEA8
:102FB00000210648FEF722FF2560002070BD0000BA
:102FC000200000200018024000040240003C0040A5
:102FD00070B51D4A1268824202D04FF0FF3070BDBA
:102FE0004FF48044194B6500194A012906D0312855
:102FF0001AD032281DD0332824D11FE0312804D024
:10300000322807D033281DD109E021461846FEF7A3
:103010001EFE17E029461046FEF719FE12E0402179
:103020001046FEF714FE0DE021461846FEF70DFE91
:1030300008E029461046FEF708FE03E0402110464E
:10304000FEF703FE002070BD2000002000040240B7
:10305000001802402DE9F04387B001210220FEF75D
:1030600031FE4FF48047059701248DF81840002564
:103070008DF81A5002268DF819608DF81B40DFF884
:10308000F08005A94046FEF78BFD39464046FEF725
:10309000DEFD01214020FEF715FEE70305978DF8C0
:1030A00018408DF81A508DF819608DF81B40DFF824
:1030B000C49005A94846FEF773FD39464846FEF719
:1030C000C6FD4020059005A94846FEF769FD402150
:1030D0004846FEF7BCFD01210220FEF7F3FD382033
:1030E00005908DF818608DF81A5003208DF819009E
:1030F0008DF81B4005A94046FEF752FD062203212C
:103100004046FEF78BFD062204214046FEF786FD71
:10311000062205214046FEF781FD01213846FEF7D3
:10312000DFFD154F3846FEF775FEADF800504FF441
:103130008270ADF80200ADF80450ADF80660ADF84D
:1031400008406002ADF80A000820ADF80C00ADF8A8
:103150000E500720ADF8100069463846FEF7C7FE4E
:103160000649A01E086007B00020BDE8F0830000FB
:103170000004024000180240003C004020000020F3
:103180002DE9F04385B004460D4691462B4E4FF095
:10319000FF373068401C03D0384605B0BDE8F083E7
:1031A000042D01D33846F8E7DFF894804046FEF757
:1031B00031FE00212348FEF721FE0020ADF800007B
:1031C0004FF48271ADF80210ADF804001E4931F8D9
:1031D0002520ADF8062001EB85014988ADF80810DF
:1031E0004FF40071ADF80A10ADF80C90ADF80E0078
:1031F0000720ADF8100069464046FEF778FE012131
:103200004046FEF7FBFD312C06D01048322C09D089
:10321000332C0CD03846C0E74FF480410C48FEF701
:1032200014FD07E04FF40041FEF70FFD02E04021DE
:10323000FEF70BFD34600020AFE700002000002007
:10324000003C004000300140F63600080018024003
:10325000000402402DE9F05F0F4690469B46002691
:10326000002430490968884202D0601EBDE8F09F02
:1032700057EA080002D0BBF1000F02DA4FF0FF302E
:10328000F4E74FF4802ADFF8A09006E02046641CA3
:10329000504502D94FF0FF30E8E780214846FEF75D
:1032A0001BFE0128F2D0002409E04846FEF71BFE71
:1032B0002046641C022802D94FF0FF30D6E70121D6
:1032C0004846FEF709FE0128EFD0002521E037B17E
:1032D000795D4846FEF709FE6D1C00240AE0FF21D7
:1032E0004846FEF702FEF7E7641C544502D94FF04A
:1032F000FF30BBE701214846FEF7EEFD0028F3D082
:10330000B8F1000F09D04846FEF7EDFD08F80600B9
:10331000761C5D45DBDB2846A8E74846FEF7E3FD63
:10332000F6E7000020000020003C004010B5084CEB
:1033300001212046FEF7A3FE012807D101212046E6
:10334000FEF78EFEBDE81040FFF748B810BD000044
:103350000004004010B500210248FEF784FE002062
:1033600010BD00000004004030B589B004460D4691
:1033700001210420FEF7B4FC0020ADF820006D1EF2
:10338000ADF81850ADF81A00601E07900F4D06A951
:103390002846FEF7D1FE6020ADF804000120ADF80C
:1033A00006000220ADF8100001A92846FEF774FEC1
:1033B00061082846FEF7BEFE08212846FEF7B0FE4B
:1033C00001212846FEF740FE09B030BD000800404C
:1033D00010B5084C01212046FEF751FE012807D107
:1033E00001212046FEF73CFEBDE8104000F004B885
:1033F00010BD0000000C004010B5124C2078401C9D
:10340000C0B2207001280AD002280ED0032812D0A2
:103410000DA1042000F01AF90020207010BDBDE8B5
:1034200010400CA1042000F011B9BDE810400CA11F
:10343000042000F00BB9BDE810400CA1042000F0FE
:1034400005B900001C00002074696D20696E7420AD
:10345000340D0A0074696D20696E7420310D0A0004
:1034600074696D20696E7420320D0A0074696D20D4
:10347000696E7420330D0A002DE9F041224D40F2AF
:10348000255421462846FEF7C0FE50B32146284663
:10349000FEF7A0FE4FF4587739462846FEF7B5FEF2
:1034A0001A4C012650B12846FEF748FF39462846F7
:1034B000FEF7ABFE6088A080267012E02846FEF77B
:1034C0003DFFA1884A1CA280114A5054A088B0F543
:1034D000805F01D30020A080A0886188884200D14D
:1034E00026704FF4B07421462846FEF78EFE002861
:1034F00008D021462846FEF76DFE2846BDE8F0417B
:10350000FEF71CBFBDE8F081004800401600002017
:10351000A4010020F0B587B03248002444808480A4
:1035200001210220FEF7CEFB01218804FEF7D8FB23
:103530002D4F07220A213846FEF770FB07220B2188
:103540003846FEF76BFB3815059002258DF81850AC
:103550008DF819508DF81A4001268DF81B6005A9C9
:103560003846FEF71DFBA80205908DF818508DF81F
:1035700019508DF81A408DF81B6005A93846FEF7E2
:103580000FFB4FF4E1300190ADF80840ADF80A4070
:10359000ADF80C40ADF810400C20ADF80E00134C07
:1035A00001A92046FEF76CFE01212046FEF71AFE17
:1035B00040212046FEF70AFE012240F22551204616
:1035C000FEF743FE27208DF8000003208DF8010050
:1035D0008DF802008DF803606846FEF73DFB07B0EA
:1035E0000020F0BD1600002000040240004800400A
:1035F0002DE9F0470D4616464FF0FF38002E02DC4D
:103600004046BDE8F08725B1DFF83C904FF0807769
:1036100015E04046F5E7002405E02046641CB8426A
:1036200001D34046EDE780214846FEF7E7FD00283C
:10363000F3D029784846FEF785FE6D1C761E002ED5
:10364000E9D10020DDE70000004800400FB438B5A4
:103650000C490978884212D8002406AA00920A4828
:103660000599FCF757FE084801E0641C401C0178EE
:103670000029FAD1224604490320FFF7B9FF38BCDC
:103680005DF814FB04000020A400002010B5002900
:103690000AD00878002807D005487844FCF74CFE8B
:1036A000002801D0002010BD0248784410BD000061
:1036B000822300007A23000010B500290AD0087880
:1036C000002807D005487844FCF736FE002801D0D2
:1036D000002010BD0248784410BD00007223000095
:1036E0006A2300004FF04070E1EE100A7047FDF7CA
:1036F0008EBAFDF7C3BB000000000000010002000D
:1037000000000200010000006D002C013B0143009D
:1037100008FFAAFE5FFF0E0068FF75FD17FC8CFD19
:103720002A0260074509B0055BFEF2F791F682FABE
:103730001000C3024B01A9FE54FFB404170B3A0C4E
:10374000B204B0F773ED45EDAFF7C005480EEC0CD1
:103750003B0524FFC0FFC704A106B2FF63F273E874
:1037600070EB53FC8011561D5F180707F2F5E9EF67
:103770009BF50CFE4CFFC7F729F09EF31B05E81ADA
:103780001325F819C5FE85E494DB7AE7E9FC840B80
:10379000500B64025DFE2207AB16551D900F66F1BB
:1037A0008AD5CECF8FE5EC08FC2219253A132BFFE2
:1037B000C3F8B100E9086B0250ECB1D637D616F267
:1037C000E81BE038C535A11544EF66DBEEE1ABF54B
:1037D0006D0170FBE6EDA7EC1402B923D4380F2E6F
:1037E00028067BD943C4B1D174F47D12E119C10D0F
:1037F000EB00A2036214EE20CF1612F5D8CFDCC185
:1038000067D7D703A52AB434E820F502FAF1BAF550
:103810000302830397F288DBD1D467EBBD15063929
:10382000193D171FA5F3F8D6A2D720ED4D011C04B2
:10383000C7F87AF19AFD2B1A3F328E2FC20DFBDFAB
:1038400082C3ECC93BEC2E115C219C18BB06D1FF56
:10385000F10904180B1649FC70D87FC42BD2C8FBA1
:103860005627AD397A2A2A0937EF93EB1AF86B01FC
:10387000B3F9FAE562DA39E84F0D0633CE3EDF26BA
:1038800064FA39D637CF84E367FEA90AFB03D2F87E
:10389000B3FB12119129232E0814DDE7B6C542C4EB
:1038A0008BE3400D46261723A40EC8FE9A00900D08
:1038B0006512AF01D7E1ECC96CCFDAF3B321CB3B92
:1038C0000533FD1058EF24E351ED9CFC8EFE91F082
:1038D00065E2C4E796051C2B863D0E2D3F0258D8A5
:1038E0000AC9B0D909F99A0EA40E21029FFC420917
:1038F000871FCB29431848F09CCA3BC142DB3307E2
:103900005228582CF61793001CF967020E0CAF04CE
:103910002BEBB4D186CFE8EC5C1AEC3ABF39A61990
:1039200036F20DDD84E277F5BE006EFA42EC32EA43
:1039300060FF06225639FB30590A03DD97C585D052
:10394000C2F1B00FE817AE0C5B006F03F314CF2287
:10395000EC195DF8B4D124C13DD4B5FF70279E3376
:10396000E12100050BF468F77B03F0048EF330DBF4
:1039700097D2B8E71B1236370B3E452271F7BBD9F9
:1039800095D896EC1800C00234F771EF55FBA118DA
:1039900093322F32D311ACE31CC5D9C84BE9F00DDB
:1039A000151FA017A0062100BA0AAF19BB1845FFC2
:1039B00050DA06C437CF97F7D9235A38842B990B9E
:1039C000C0F172ED56F955023EFA94E573D8E9E478
:1039D000D2091031803FFD296EFE56D950D0BFE28A
:1039E000B0FCE1085D0224F7EEF9CF0FCE296F306D
:1039F000DB1798EB8FC75CC37CE0A109A6231622D6
:103A0000E80EA0FFB501200FA71443049BE3A7C94C
:103A1000BFCCBAEFFF1D303A0134B71355F24AE577
:103A200068EE0BFD9CFEFFEFB1E0DCE45A021629C4
:103A3000F73D03306606C7DB5FCACFD8E4F6590C02
:103A4000DF0CBB005EFB6008C51FCA2BC21BEFF377
:103A5000A6CC91C035D84A035325372B8218F001E4
:103A60009CFAF703EF0DCA06B5EC92D129CDF8E820
:103A70008F160D39983A8D1C9DF58BDF97E37BF5FA
:103A8000450095F9B3EAB8E781FC0E208E39B233D0
:103A90007F0EB2E032C7A4CF45EFF70CE315760BEB
:103AA00099FF070350158C24071DD0FBDAD3BAC049
:103AB0004ED19FFB192449329622D40600F615F9FF
:103AC0000C058806C1F416DB89D012E4530E1E35AE
:103AD000AC3E3A2530FB97DCBDD948EC16FF880197
:103AE000B0F55CEDEAF8D7169F329A34D81582E724
:103AF000FDC613C892E6C60ABC1C7B164F063C00E6
:103B0000540B3E1B6A1B670275DCDAC37CCC74F372
:103B10003620C236432CD20D30F457EFAEFA6B0389
:103B200002FB67E5ABD69EE12E06D12EE23FE22CEA
:103B3000680291DCA6D13CE230FB3807C70067F58C
:103B400000F84F0EC8298B32A31B79EFB0C9C5C24C
:103B5000A7DD1606EF20E420F40E4400A5029A101B
:103B6000EF16FB06A1E5ADC94ACAA8EB291A4F38E2
:103B7000B13439163DF57CE7A5EFAAFDDFFEA2EFD3
:103B800021DFF8E1FCFECB26193EBD327E0A55DF6F
:103B9000F3CB33D8F5F4360A180B3FFFF2F946079A
:103BA000C61F9C2D351FB8F7F7CE37C063D575FFFC
:103BB0003B22E029D0181803F9FB7805DA0F0A092F
:103BC0007CEEB5D101CB16E59F12E736203B391FBD
:103BD000F0F819E2D3E4B6F50000E8F841E93DE574
:103BE00080F9D51D77392E36951280E40EC90ECF97
:103BF00000ED570AD713210AA9FE64027715212682
:103C00001B2064FF44D6A1C09BCE9CF7A620B930F0
:103C100008237408D5F7BCFAAF0648082FF63DDB39
:103C2000ACCE79E06B0AC032FD3EF127D9FE89DFC8
:103C300016DB36EC4AFE79003FF442EB5AF6CD141F
:103C40006432CC36CB1978EB23C99AC716E4B30794
:103C5000591A2F15CB052100BE0BAC1C171EA90548
:103C6000DCDEFDC3FFC964EF781CEB34BD2CD10F43
:103C700083F63BF11FFCAE04FDFB75E511D55FDE5D
:103C80006D024F2CF33F872F4C06E2DF32D3F8E171
:103C9000E6F9B2053DFF9EF3EEF5940C7D297234F2
:103CA000591F76F316CC7FC210DBA302271E871F95
:103CB000C90EB1006B03FB113819D609E6E7FFC93D
:103CC00010C8ACE737162E3615357E1808F8B5E95A
:103CD00001F179FE5BFF78EFB6DD1EDF7FFB3F244D
:103CE000EB3D37357E0EFBE2C2CDDDD740F3320827
:103CF0005B09B1FD5EF8F205881F3B2F9B22A1FBFB
:103D00008CD12FC0D3D2B8FB101F5828E11809045A
:103D10002EFDE806CC116D0B81F01FD213C94AE1CC
:103D2000950E7F34583BA62128FCB3E438E624F6F0
:103D3000F2FF6DF8EEE7C7E262F65B1B14396938F3
:103D4000921667E82ACBC1CEF8EAD607CB11B208A3
:103D50008DFD8C01641589271F231503EFD8DBC067
:103D60002ACCB3F31E1DF12E3823DA0987F956FC4D
:103D70005B082C0AD7F7A7DB07CDF5DC68062030F7
:103D8000FC3E682A670289E29CDC5CECB4FD94FF8F
:103D9000E9F227E9ABF38712DD31C038A81D85EFC2
:103DA00087CB71C7D8E1BD04EE17C3131805CEFF4A
:103DB000F10BF21DB820070982E171C4C3C76FEB94
:103DC000A318D932EE2C9611B5F81CF3A3FD1806F2
:103DD00032FDC0E5AAD333DB91FE8B29B13FE93137
:103DE000140A46E3F1D4F3E1D5F85304C6FDCFF14C
:103DF000B9F39E0AEB281B36F8228DF7BCCE8AC297
:103E0000BCD84BFF561B021E670EE80000043C1393
:103E10007A1BCC0C67EA9DCA19C6CBE32E12CF33AE
:103E20002E35871AB5FAEDEB77F273FF0C0087EFAA
:103E300078DC53DCE8F772216A3D6C376312B4E634
:103E4000C8CFCAD7C5F15406A70716FCA7F6670462
:103E5000081FA430E8259DFF60D478C084D018F8EE
:103E6000D71BA226B718C20438FE3F08BD13ED0DBC
:103E7000BEF2D4D265C798DD750AD931433BD4234D
:103E800040FF51E7BCE7C2F61B0026F8C0E65DE044
:103E900029F3A6186238613A721A61EC7ECDBECE63
:103EA0002EE97805C50F2F0749FC7C001415C128A1
:103EB0001026DB06DADB64C1FFC9EBEF8719F82CAB
:103EC0002723040B11FBDEFD100A310CB6F956DC7A
:103ED0009DCB8AD95102412DAC3E9A2CD40591E557
:103EE0004ADEB9EC57FDDEFEB0F114E7E2F008104F
:103EF0000B31713A6421A5F32ACE93C7DBDFEC01C5
:103F000084153C12380446FFF00B0E1F49237C0C2D
:103F100063E432C5CEC59AE7C0149130DB2C1E1382
:103F2000C0FAEFF434FFA5079BFE4AE677D220D80B
:103F3000A2FA8A261E3F0534BB0DB3E6DDD62BE27E
:103F4000FDF7210366FC00F06AF17108142886373A
:103F50007926B4FB9DD1E4C2ABD618FC81185B1C5A
:103F6000D40DE80064045714B11DD90F21ED89CB9D
:103F700067C409E0160E3831FC344E1C3BFD20EEC0
:103F800002F49600F300D0EF6ADBA0D93EF46C1E79
:103F90009C3C5B39231679EA01D2F9D787F09D045E
:103FA000040674FAD0F4A502471ED1311929AC03D6
:103FB00070D712C17ECE9EF49718C32454184305BF
:103FC00013FF7809A815851031F5D0D3F9C509DAA2
:103FD0004606FA2EE13ABC253202EFE95CE98FF79A
:103FE000790012F8BFE503DEDDEFB8156237133C48
:103FF0002C1E68F009D001CFA3E74203CA0D9F052C
:10400000E1FA3AFF8A14C129E728B30AFDDE3EC26D
:104010001AC846ECE815D12ADA22F50B6EFC51FFDE
:10402000C50B510EC9FB48DD74CA41D62CFE292AA6
:104030000A3E862E1A099DE81BE04AED31FD59FE25
:104040009DF00BE506EE520DEF2FDD3BFC24D2F781
:1040500002D100C821DE42FF2113A01030038AFEE6
:10406000B50BFB1FC325FF0F7EE744C622C4ECE35C
:10407000D310192E822C6714A2FCB4F6CD0052097D
:10408000390015E781D12DD5A6F651233C3ED9350F
:104090003B1126EAF1D89CE25EF71D0223FB36EEC7
:1040A00002EF1006F526AE38D429E7FFB8D48BC34B
:1040B000E1D40DF9AE15971A120DB200930449150B
:1040C000D61FF71211F0C0CCFDC271DCF5096C2EC1
:1040D0008334D41D99FF47F09CF5DE010C0255F0A6
:1040E00093DA06D788F02E1B7B3B003BBC1944EECD
:1040F00065D468D886EF15037704D0F8DDF2B100F7
:10410000451DBE32262CC607B7DAFCC1BFCC4CF128
:104110005815C222BC178B05BDFF8E0A88173113B4
:10412000DAF716D5D4C4A0D60F02E42B323A5F27B3
:10413000FB0486EC15EB86F80B0137F8EAE4C2DBEA
:1041400084EC95121436793DBD2175F4C2D288CF26
:1041500057E63701DF0B04045AF9C3FDBF13882A61
:104160009C2B930E57E268C383C6CCE84612822884
:104170005022AB0C9EFDA800750D87100FFE7FDE50
:104180008CC91FD3FFF9DD261C3D2930370CA4EB69
:1041900009E20AEE41FD07FEB0EF16E319EB690AEA
:1041A000882EFF3C692803FC0BD4B6C8AADCC2FCED
:1041B000CA10F30E01029AFD420BB32020288E1381
:1041C000CBEAA4C7C1C26AE0E50C732BEA2B7115D8
:1041D00056FE60F869021A0B08021FE8C9D05ED2C9
:1041E000A4F2E31F0A3D60378D1496ED28DB43E30C
:1041F000F9F6490101FA78EC89EC7F038F258F39B4
:10420000062D1E0404D87EC45DD32EF6E412BE181B
:10421000240C48008C040F16E321201634F344CEFE
:10422000DEC107D9D205732BC433171FC9015FF252
:1042300041F74503590315F1F3D98ED4CCECBE17E1
:104240000E3A573C251D0DF2F2D614D9C1EEBA0133
:1042500006032FF7D4F08EFEFE1B6B330B2FE10B02
:104260002FDE32C34DCB29EE1E12A520F3169D057D
:1042700035007D0B5519E915B3FAA5D6F8C366D3F9
:10428000D7FDA1283B39BB28950710EFDDECA3F93A
:10429000D10192F84AE49DD924E9430F7934923E42
:1042A0001F257FF8A6D552D04FE55BFF090A6602AD
:1042B000B9F71DFCB712122B2B2E7612E2E5DEC4E5
:1042C00038C583E5AB0E11268D21250D9CFEDD0141
:1042D0001C0FCF128200FCDFEBC82AD0D2F55F237F
:1042E000E13B8231230FA1EE0EE4F8EE86FDEBFDFB
:1042F000F0EE38E123E85107D72CD63DA62B33004A
:1043000040D7B2C97ADB72FA830E3B0DB20079FC5A
:10431000930A34215A2A211747EE50C9AFC11ADD3A
:10432000FA08AA28142B3C16D9FFF5F90204F60C5A
:1043300005046AE952D0BACFA1EE481C8D3B9A38E9
:10434000AF17FEF07CDD1DE4CEF6A90004F9CAEA41
:1043500004EABF00E323283A063051087CDBBBC5E2
:1043600024D280F32810D0160F0BABFF4E04A216F8
:10437000D3234F1983F612D00DC1CED5B4015128E5
:10438000C3321520C80360F4E9F8C804D40412F25B
:1043900090D93ED20FE921145438603D5C20D0F50D
:1043A0009FD9F8D939EE9100B50199F5BDEE3DFCE4
:1043B000751AD233C131FA0FD5E1B3C427CA38EB2D
:1043C000F10E6F1EFC1577057800420C0D1BAB1823
:1043D000B7FD79D869C35FD0A5F93325FC37D0295B
:1043E000FD0987F1B2EEE3FAC80228F9DFE39CD7B2
:1043F000C1E5C30B93325D3F4B2882FCADD85AD147
:1044000087E4B2FD4F08CB0001F64AFA71115A2B2E
:104410008E30581697E9A3C63BC46EE2190B84236D
:104420009720660D66FFEE02B21023152203BBE152
:1044300093C867CDABF1BA1F5E3A8F32DB118FF1B3
:1044400023E60DF0FFFD06FE5FEE75DF2AE51104A1
:10445000DD2A5F3EAD2E5A049DDAF3CA8EDA56F895
:10446000530C7D0B47FF2AFBA90979216D2CB01A4B
:10447000EEF148CBECC002DA1A05BF25042AC916B2
:104480002A0167FB9305E50E2E06F5EA20D046CDFE
:10449000A5EA8318C43987399A1A59F4E7DF27E562
:1044A000D9F63E0032F832E978E7D8FDF221743AC5
:1044B000D2327D0C1BDF3EC735D108F17F0DD914F8
:1044C000D809DCFED8030217A0257C1CFBF928D2F2
:1044D0008CC0CED2A2FD0C258231D020940546F6A8
:1044E00091FA61067B064CF36BD91BD058E55B1043
:1044F0005136183E5B2383F968DC13DBEDED9EFF3C
:10450000870012F499ECC3F9AD18F0334234091462
:10451000A0E57EC64EC97EE8D40B271CDD141E051F
:104520008500D80CA61C6E1BE20095DA26C390CD40
:104530007FF5A2217C369C2A300CE8F38BF03EFC00
:10454000EC03F7F9ADE3C3D566E21E086530D83F4A
:104550003F2B7800D5DB9ED2FEE33CFCB40637FF50
:1045600039F44DF8EC0F622BC0322E1A71EDADC844
:104570008FC391DF9907E020711F6D0DFBFFD603FC
:1045800031127B17E805BDE384C8DBCA92EDEF1B4F
:10459000953850335C1468F446E847F1AAFE57FE9C
:1045A00002EED6DD33E2AA009E28983E79317208E9
:1045B00018DE70CCEAD96FF63E0AC209C5FDB0F923
:1045C00086088121532E361EB9F587CD7BC023D7AF
:1045D0004C01BA22BD2817174602B8FC1507DD109A
:1045E0007D08BFEC33D007CBB7E69C14B637253A2D
:1045F0004A1D9EF763E25CE61AF708008DF7B7E7FD
:10460000EBE4CAFABF1F743A63359810DCE204C9C0
:1046100090D0C6EEEF0ADB128308DFFD2A032917CC
:104620004627A11F94FD85D45BC00AD0A1F9AD2116
:104630000530492129070DF832FC0B084A08BFF460
:1046400089D92BCEAFE1740C0734803E1C2624FDA3
:1046500045DF5EDCDBEDE0FE82FFA0F271EA25F7CC
:10466000A316C6338A3607188BE98CC8C3C8FFE582
:10467000D008D419971392045B003D0D201E2C1E08
:104680002F04F4DC33C3FECA6CF1F31DBA34222BC1
:104690002C0E2BF665F2B0FD3C05FDFAB7E317D4FE
:1046A00015DF5804F32D0040F32D570414DF16D402
:1046B000B7E3FDFA3C05B1FD64F22CF62B0E222B7C
:1046C000BB34F21D6BF1FECA32C3F3DC2F042D1E86
:1046D0001F1E3C0D5C0091049713D519D108FFE50E
:1046E000C3C88CC88CE907188B36C633A31625F7C8
:1046F00070EAA0F283FFDFFEDBED5EDC46DF24FD27
:104700001C26813E0734750CAFE12BCE89D9BFF44E
:104710004A080A0832FC0DF829074A210630AC2164
:10472000A1F909D05AC085D494FDA21F46272917A4
:104730002B03E0FD8408DB12EF0AC6EE90D003C91C
:10474000DCE297106335743ABE1FCAFAEBE4B7E7B0
:104750008DF707001AF75CE663E29FF74B1D243ADA
:10476000B6379D14B7E607CB34D0BFEC7D08DD101B
:104770001507B8FC46021817BE28BB224C0124D7E7
:104780007AC086CDB8F5361E542E81218608B0F940
:10479000C6FDC1093E0A6FF6EAD971CC19DE72086E
:1047A0007831973E9E28A90034E2D6DD03EE57FE0D
:1047B000A9FE47F147E867F45C144F339538EF1BC7
:1047C00093EDDCCA85C8BDE3E8057B173212D6033A
:1047D000FBFF6C0D711FE120980792DF8EC3ADC8FF
:1047E00072ED2E1AC032612BEC0F4DF838F437FF02
:1047F000B4063CFCFEE39DD2D4DB78003E2BD73FD1
:1048000066301E0865E2C3D5ADE3F7F9EC033EFC64
:104810008AF0E8F3310C9C2A7B36A22180F590CDFA
:1048200025C395DAE2006E1BA71CD90C85001E0576
:10483000DC14271CD40B7FE84EC97DC6A0E5091403
:104840004234F033AB18C3F999EC12F488009EFFA0
:10485000EDED13DB68DC83F95A23183E51365C100A
:1048600058E51CD06DD94CF37B06610691FA46F6EB
:104870009305D12082310D25A2FDCED28BC028D246
:10488000FAF97C1CA1250217D803DDFED809D9143A
:104890007E0D07F135D13EC71CDF7C0CD332743A54
:1048A000F321D6FD78E732E932F83D00D8F628E565
:1048B000E7DF59F4991A8739C4398318A5EA47CD37
:1048C00020D0F5EA2E06E40E930568FB2901C816F0
:1048D000032ABE25190501DAECC048CBEEF1B01A67
:1048E0006D2C7921A9092AFB47FF7E0B520C56F843
:1048F0008FDAF1CA9CDA5A04AD2E5E3EDD2A10042E
:1049000029E575DF60EE06FEFEFD0DF023E68FF172
:10491000DC118F325E3AB81FACF167CD92C8BBE1B3
:1049200021032215B210EF0265FF660D9820842343
:10493000180B6EE23BC4A2C696E957168E305B2B6D
:1049400071114AFA01F6CB004F08B1FD87E45AD144
:10495000AED883FC4B285C3F9432C30BC1E59DD796
:10496000DEE328F9C702E2FAB1EE88F1FD09D029A9
:10497000FC373325A5F960D068C37AD8B7FDAB18EA
:104980000C1B430C78007705FD156E1EF10E38EBFD
:1049900026CAB4C4D4E1FA0FC031D133761A3DFC33
:1049A000BCEE99F5B401930039EEF9D99FD9CFF552
:1049B0005C20613D553821140FE93FD290D913F2A4
:1049C000D404C804E9F860F4C7031520C3325128A1
:1049D000B501CED50DC112D082F64F19D323A3163F
:1049E0004E04ABFF100BD116281080F325D2BAC5A8
:1049F0007CDB51080730273AE323BF0004EAC9EA09
:104A000005F9A900CEF61EE47BDDFFF0AE179B385A
:104A10008D3B481CA0EEBACF52D06BE90604F60CD1
:104A20000304F4F9DAFF3C16142BA928FA081BDD5D
:104A3000AFC151C947EE20175A2A3421930A79FC95
:104A4000B3003B0D830E72FA7ADBB3C941D7320053
:104A5000A62BD63DD72C520722E837E1EFEEECFD2E
:104A600086FDF8EE0DE4A0EE230F8131E13B5F23DC
:104A7000D2F529D0EBC8FCDF8200CF121B0FDD017D
:104A80009BFE250D8E211126AA0E82E538C5DFC4B6
:104A9000E1E576122A2E122BB8121DFCB8F7660239
:104AA000080A5CFF4EE552D0A5D580F81E25933E3E
:104AB0007934410F24E99ED94AE492F8D101A3F94F
:104AC000DDEC10EF9507BC283A39A128D7FD66D355
:104AD000F9C3A3D6B3FAEA1555197D0B35009C0529
:104AE000F316A4201E1229EE4ECB33C330DEE10BA9
:104AF0000B2F6A33FE1B8DFED5F02FF70703BA018B
:104B0000C1EE14D9F2D60EF2261D563C0E3ABD1750
:104B1000CCEC8FD4F3D915F15903460341F75EF27B
:104B2000C801161FC533722BD20506D9DEC144CE8B
:104B300034F32016E3210F168C044900250CBE180F
:104B4000E5122FF65ED37EC404D81E04052D8F39DE
:104B50008E257E0389EC78EC01FA4901FAF644E3EC
:104B600028DB96ED8D1461370B3DE41FA4F25ED275
:104B7000C9D01FE80802190B6A0261F856FE7115C8
:104B8000EA2B732BE40C6BE0C2C2A3C7CAEA8F13F3
:104B90002028B320420B9AFD0102F20EC910C2FC7C
:104BA000ABDCB6C80BD403FC6928FF3C882E690A2D
:104BB00019EB16E3B1EF07FE40FD09EE08E2A4EBA6
:104BC000360C29301C3DDC26FFF91FD38DC980DE51
:104BD0000FFE8810760DA7009DFDAB0C4F22832899
:104BE0004712CDE883C668C357E2930E9C2B882AF0
:104BF000C013C3FD5BF90504DE0B370157E689CF0F
:104C0000C1D274F4BD21783D1336961283ECC2DB19
:104C1000EBE436F80C0186F814EB85ECFA045F2718
:104C2000323AE42B0F02A0D6D4C416D5DAF73113EA
:104C300087178E0ABEFF8B05BD17C22258154DF18E
:104C4000C0CCFBC1B7DAC507272CBF32441DB20068
:104C5000DDF2D0F87804140385EF68D866D444EE0A
:104C6000BC19003B7C3B2E1B89F006D792DA55F02D
:104C70000D02DD019DF548F098FFD41D84346C2EA3
:104C8000F50972DCFDC2C1CC11F0F712D61F49152F
:104C90009304B300120D981AAF150DF9E0D48BC32D
:104CA000B8D4E7FFD429AD38F526100603EF36EE69
:104CB00023FB1C025EF79BE2F0D826EA3B11D835B5
:104CC0003C3E5123A5F62CD582D115E73900520977
:104CD000CD00B2F6A2FC6714832C182ED410EDE39D
:104CE00022C444C67DE70010C225FB1FB50B8AFE17
:104CF0002F039F10201341FF1FDE01C801D1D2F7FF
:104D0000FB24DC3BEF2F520D05EE0BE59DF059FE29
:104D100030FD49ED1AE09DE81909872E0A3E2A2A3E
:104D20002BFE42D673CA47DDC9FB510EC50B51FF9E
:104D30006EFCF50BD822D22AE81545EC1BC83EC202
:104D4000FEDEB20AE628C129891439FFE1FA9F057F
:104D5000C90D4103A2E701CF07D069F02D1E123C17
:104D60006137B815DEEF04DEBEE512F879008EF784
:104D70005DE9EFE93302BC25E13AF92E470609DA8D
:104D8000FAC5D0D333F58510A815780913FF43056C
:104D90005318C42497189EF47DCE12C170D7AB036C
:104DA0001A29D131491EA502D0F474FA04069F04D1
:104DB00088F0F9D701D27AEA23165C399B3C6C1E45
:104DC0003FF49FD96BDBD1EFF200960002F420EEA6
:104DD0003BFD4E1CFD343731160E0AE066C488CB0D
:104DE00021EDD90FB11D56146304E800D40D5B1CEE
:104DF000811819FCABD6E3C29FD1B3FB7926873764
:104E00001428720869F1FFEF65FC2103FDF72AE21F
:104E1000DDD6B3E6BB0D06341E3F8B26A2FA20D8A2
:104E200078D24BE69CFEA50733FFEFF4C0FA1E13C1
:104E3000DA2C9230C0149AE7CEC532C564E47C0CFB
:104E400048230E1FF10B46FF38043D128515EC0177
:104E5000DADF94C72ACEA6F36321723A0C31081028
:104E6000E3F014E7B1F1DEFE57FDB9EC4BDE91E55E
:104E7000D3059A2CAB3E412D51028BD99DCB55DCED
:104E8000B5F9320C100ADFFD10FB050B2823F82CB6
:104E90008619E9EFFDC964C1DADBDC061026C028FB
:104EA00015157C004AFC2F07C40F79052EE9BDCEED
:104EB0007ECD61EC701A623A6238A71829F35CE083
:104EC000C0E625F81B00C2F6BDE751E740FFD3233B
:104ED000433BDA31750A98DD65C7D4D2BEF2EC0DDA
:104EE000BD133F0837FEC204B718A126D61B19F818
:104EF00084D078C060D49EFFE825A430081F6704E2
:104F0000A7F615FCA6075406C6F1CAD7C9CFB4E662
:104F100063126C376B3D7321E8F754DC78DC87EF64
:104F20000D0073FF77F2EDEBB5FA871A2F35CF330B
:104F30002E12CAE319C69DCA66EACC0C7A1B3C1332
:104F40000004E800670E031E561B4CFFBCD88AC243
:104F5000BCCE8CF7F9221B36EB289E0ABAF3CFF1B0
:104F6000C5FD5404D5F8F3E1F1D446E3150AE9315F
:104F7000B13F8C2992FE34DBA9D3C0E532FD18067F
:104F8000A3FD1CF3B5F89611EE2CD932A4186EEBE4
:104F9000C4C770C481E10709B920F21DF20BCEFF2E
:104FA0001805C313ED17BE04D7E171C788CB85EF91
:104FB000A71DC038DE318812ABF327E9E8F294FF71
:104FC000B5FD5CEC9CDC89E26602682AFC3E203080
:104FD0006806F4DC08CDA7DBD7F72C0A5C0856FC82
:104FE00087F9D9093923F22E1E1DB4F32ACCDBC070
:104FF000F0D816031F23892764158B018DFDB20895
:10500000CC11D607F9EAC2CE2ACB67E891166938E7
:1050100014395C1B61F6C8E2EEE76EF8F2FF24F685
:1050200038E6B3E428FCA721593B8034940E4AE1CA
:1050300014C91FD280F06D0BCC11E9062EFD0904B6
:10504000E11857280F1FB9FBD2D22FC08BD1A0FB7C
:105050009B223B2F871FF1055EF8B1FD5A093208EC
:1050600040F3DCD7C2CDFBE27F0E3735EB3D3E246B
:105070007EFB1EDFB5DD79EF5BFF78FE01F1B4E961
:1050800009F87E1816352E363616ACE712C800CA57
:10509000E4E7D6093719FB116B03B000C90E871F6F
:1050A000271EA20210DB80C215CC76F35A1F723481
:1050B0007D29930CEDF59EF33EFFB105E7F9F8E18C
:1050C00033D3E2DF4C06872FF23F4F2C6C025FDEBA
:1050D00011D574E5FEFBAE041FFC3CF183F6D10F45
:1050E000BD2CEA34771C64EFFFC9FDC3DCDEA905E3
:1050F000161EAC1CBD0B2000CC052F15581AB4078A
:1051000016E49BC722C978EBCC19CC366432CD1497
:105110005AF641EB40F478004AFE36EC16DB89DFA4
:10512000D8FEF227FE3EC0326B0A79E0ADCE3DDB01
:105130002FF64808AE06BCFAD6F774080823B93033
:10514000A6209DF79BCEA2C044D665FF1A2021263B
:1051500077156402A8FE210AD713570A01ED0ECF76
:105160000EC980E494122D367739D51D80F93DE5BE
:1051700041E9E9F80100B5F5D3E419E2F0F8391F87
:10518000203BE7369F1216E501CBB5D17CEE09092D
:10519000DA0F7905F9FB1803D018E0293A2275FFD8
:1051A00064D536C0F7CEB9F7361F9B2DC51F45070E
:1051B000F1F940FF190B360AF6F434D8F3CB55DF7A
:1051C0007E0ABD32193ECB26FBFEF9E11FDFA2EFBE
:1051D000E1FEAAFDA4EF7CE73CF53916B134503866
:1051E000281AA8EB4ACAAEC9A0E5FC06EF169A1029
:1051F000A5024300F40EE520EF201606A7DDC6C287
:10520000B0C977EFA41B8D32C7294F0E01F867F59F
:10521000C700370730FB3BE2A6D191DC6802E22CE5
:10522000E23FD22E2F069EE1ABD667E502FB6B0371
:10523000AEFA57EF30F4D10D452CC136362073F35A
:105240007CCCDAC374DC65026B1B3E1B550B3C0047
:105250004F067A16BC1CC50A92E613C8FEC682E742
:10526000D8159A34A132D716E9F85CEDAFF588016C
:1052700016FF48ECBDD997DC2FFB3925AD3E1F3515
:10528000530E12E489D017DBC1F487060C0515F91B
:1052900000F6D50696224A3218249FFB4DD1BBC09A
:1052A000DAD3D0FB061D8B245215060399FF770B2A
:1052B000E215F60C45EFA5CF32C7B1E07F0EB23351
:1052C0008E390E2081FCB8E7B3EA94F945007BF5EE
:1052D00096E38BDF9EF58D1C973A0D398E16F8E814
:1052E00029CD92D1B5ECCA06EF0DF6039DFAF00177
:1052F0008218372B53254B0335D890C0A5CCEFF33C
:10530000C21BCA2BC41F60085FFBBB00DF0C5A0C1A
:10531000E4F6CFD85FCAC7DB67060330F83D15292E
:105320005A02DCE4B2E001F09CFE0AFD6AEE4AE5B6
:1053300055F2B71301342F3AFF1DBAEFC0CCA8C9FC
:105340009CE34104A714200FB401A0FFE90E15222D
:10535000A623A2097BE05CC38FC797EBDB177030F5
:10536000CE29CF0FEFF924F75E02E008B2FCBFE2CE
:1053700050D056D96EFEFD29803F1031D209E8E4A5
:1053800072D895E53EFA540255F973EDC0F1980BC9
:10539000842B5938D82398F737CF06C450DA44FF06
:1053A000B918AE19BB0A22009F06A017151FEF0DF2
:1053B0004BE9D9C81BC5ACE3D3112E329332A118E7
:1053C00056FB71EF34F7C002170096EC95D8BAD9A6
:1053D00071F745220C3E36371C12B9E797D231DB04
:1053E0008FF3EE047B0368F70AF40005E2219F3394
:1053F0007027B4FF3ED423C1B4D15EF8EC19CE229D
:10540000F31470035B00AE0CE917B00FC1F186D046
:1054100098C504DD590AFC305639052260FF32EA8E
:1054200043EC6DFABE0076F584E20CDD36F2A51988
:10543000C039EC3A5B1AE8EC86CFB4D12BEBAF0461
:105440000D0C66021CF99300F617582C52283207EF
:1054500042DB3AC19CCA47F04218CA29871F420959
:105460009FFC2002A30E9A0E09F9B0D909C958D899
:105470003E020E2D863D1B2B9605C3E766E291F09A
:105480008EFE9DFC50ED23E357EFFD100433CB3B24
:10549000B321DAF36CCFECC9D7E1AF0164128F0D01
:1054A0009A00C7FEA40E17234726400D8AE342C484
:1054B000B6C5DCE70814222E93291311B2FBD1F8EC
:1054C000FC03A90A67FE84E336CF39D665FADF26E6
:1054D000CE3E06334E0D3AE863DAFAE5B1F96B01D8
:1054E0001AF892EB38EF2A097B2AAF395727C9FB04
:1054F0002BD27FC470D849FC0B160418F309D2FFD5
:10550000BC069C185C212D113BECECC982C3FCDF6E
:10551000C20D8F2F3E322C1A9AFD7AF1C7F81D0466
:105520004D0121EDA2D7F9D6A5F3181F1A3D063972
:10553000BC1567EBD2D488DB97F283030102B9F57F
:10554000FAF1F602E720B334A52AD70366D7DCC107
:10555000D8CF11F5CF16EE206114A203EC00C20DD6
:10556000E1197D1273F4B1D144C47BD927060E2E04
:10557000D338BA231502A6ECE6ED70FB6D01ABF54E
:10558000EFE165DB45EFA015C435E038E71B16F207
:1055900037D6B2D64EEC6B02E908B100C4F82BFF47
:1055A0003A131825FC22EB088FE5CECF89D566F19A
:1055B000900F551DAC1622075DFE64024F0B850B44
:1055C000E8FC7AE795DB84E4C5FEF8191225E91AB0
:1055D0001C059FF329F0C7F74BFF0CFE9AF5E8EF87
:1055E000F3F507075F18561D811153FC70EB73E844
:1055F00062F2B3FFA106C604C1FF23FF3C05EC0C19
:10560000470EC005B0F745ED72EDB0F7B204390CA6
:10561000190BB40452FFA8FE4A01C302100082FA1B
:1056200091F6F3F75CFEB0054509610729028CFD90
:1056300017FC75FD67FF0F005EFFAAFE08FF430021
:105640003C012C016D0000000000FFFF0100000084
:105650000000FFFF00000000FFFF0000FFFF000050
:105660000000010000000000010000000100000037
:10567000000000000000000000000000000000002A
:1056800000000000000000000000FFFF000000001C
:105690000000010000000000000000000000000009
:1056A0000000FFFF000000000000000000000000FC
:1056B00000000000000000000000010000000100E8
:1056C00000000000000000000000000000000100D9
:1056D00000000000010001000000FFFFFFFF0000CC
:1056E00000000000FFFF00000000FFFF00000000BE
:1056F00000000000FFFFFFFF00000000FFFF0000B0
:105700000000000000000000000000000000FFFF9B
:105710000000000001000000000000000000000088
:105720000000000000000000010000000000000078
:10573000FFFF000000000000000000000000FFFF6D
:105740000100010000000000000000000000000057
:105750000000000000000000FFFF0100000000004A
:105760000000000001000100000000000100000036
:1057700000000000000000000100FFFFFFFF00002C
:105780000000000000000000010000000000010017
:105790000000000000000000010000000000000008
:1057A00001000100000001000100FFFF00000000F7
:1057B00001000000FFFF00000100FFFFFFFF0000ED
:1057C00001000000000000000000000000000000D8
:1057D00000000000FFFFFFFF0000000000000000CD
:1057E000FFFFFFFF000000000100FFFF00000000BE
:1057F000000000000000000000000000FFFF0000AB
:10580000000000000000FFFF000000000100000099
:10581000FFFF00000000000000000000000000008A
:1058200001000000000000000000FFFF0000000079
:105830000000000000000000000000000000000068
:105840000000000000000000010000000000000057
:1058500000000100FFFF0000000000000000000049
:1058600000000000000000000000FFFF000000003A
:105870000000FFFFFFFF0000000000000000FFFF2E
:10588000FFFF010001000000000000000000000018
:105890000000000000000000000000000000000008
:1058A0000000000001000000FFFF000000000000F9
:1058B00000000000000000000000000000000000E8
:1058C00000000100000000000000000000000000D7
:1058D0003031323334353637383941424344454626
:1058E0004030580030313233343536373839616220
:1058F0006364656640307800040000080000000022
:10590000000000020001000010303132333435361F
:1059100037383961626364656678700030313233DC
:1059200034353637383941424344454658500000F3
:1059300002400000000000A0000000000540000040
:10594000000000C8000000000C4000000000409C67
:1059500000000000194000000020BCBE0000000054
:1059600034400000BFC91B8E00000004B540000099
:10597000504BCFD06607E2CF010000006C41000021
:105980003E8251AADFEEA73401000000D942000098
:10599000DCB5A0E23A301F97FFFFFFFFB4450000DF
:1059A000FD25A0C8E9A3C14FFFFFFFFFFF3F000097
:1059B0000000008000000000FF3F000000000080A9
:1059C000000000004D5832354C333230364500006F
:1059D0005732355136344A5653490000626F61726E
:1059E000645F737069666C6173680000636F7265F1
:1059F0005F737069666C617368000000485B000843
:105A00000000002094000000C4010008DC5B0008D6
:105A1000940000207C530000E00100081C000000FE
:105A200043000000F8FFFFFF0C0000000E00000024
:105A30000F0000002E0000001001000043000000D5
:105A4000F8FFFFFF0040404040404040404041419F
:105A50004141414040404040404040404040404043
:105A600040404040400502020202020202020202DD
:105A700002020202022020202020202020202002DA
:105A8000020202020202909090909090101010106A
:105A90001010101010101010101010101010101006
:105AA000020202020202888888888888080808089A
:105AB0000808080808080808080808080808080866
:105AC000020202024000000000000000000000008E
:105AD00000000000000000000000000000000000C6
