:020000040800F2
:10000000C88D01209D010008ED220008411E000856
:10001000CD2200087D0A0008696A0008000000007F
:10002000000000000000000000000000FB3F00088E
:10003000FD1800080000000019270008B54000085E
:10004000B7010008B7010008B7010008B7010008B0
:10005000B7010008B7010008B7010008B7010008A0
:100060005D1A0008B7010008B7010008B7010008D1
:10007000B7010008B7010008111600083D16000876
:10008000B7010008B701000823080008B7010008FD
:100090009D0A0008B7010008B7010008B701000871
:1000A000B7010008B7010008B7010008B701000850
:1000B0001541000819410008B7010008B701000800
:1000C000B7010008B7010008B7010008B701000830
:1000D000B7010008C9420008CD420008D14200081B
:1000E000291A0008B7010008B7010008B701000885
:1000F000B7010008B7010008B7010008B701000800
:10010000B7010008E12E00081D410008B7010008F2
:10011000B7010008B7010008B70100082141000835
:10012000B7010008B7010008B70100086916000808
:10013000B7010008B7010008B7010008B7010008BF
:10014000B7010008B7010008B701000885230008BF
:10015000B7010008B7010008B7010008B70100089F
:10016000B7010008B7010008B7010008B70100088F
:10017000B7010008B7010008B7010008B70100087F
:10018000B7010008B7010008DFF80CD000F0ECFA66
:10019000004800472DC50008C88D0120064880474B
:1001A00006480047FEE7FEE7FEE7FEE7FEE7FEE75C
:1001B000FEE7FEE7FEE7FEE7B94000088901000818
:1001C0002DE9F05F0546002092469B46884606468C
:1001D000814640241BE0284641464746224600F01F
:1001E00033F953465A46C01A914110D31146184666
:1001F000224600F01AF92D1A67EB01084F462246F5
:100200000120002100F011F917EB00094E41201EDA
:10021000A4F10104DFDC484631462A464346BDE8E6
:10022000F09F10B5431A934209D28318881803E04F
:1002300010F8011D03F8011D521EF9D210BD40EA4D
:1002400001039B0703D009E008C9121F08C0042A54
:10025000FAD203E011F8013B00F8013B521EF9D23B
:1002600010BDD2B201E000F8012B491EFBD270474D
:100270000022F6E710B513460A4604461946FFF772
:10028000F0FF204610BD421C10F8011B0029FBD1D5
:10029000801A704710B5002200E0521C835C8C5C11
:1002A000A34201D1002BF8D1D8B2E1B2401A10BD5F
:1002B0002DE9FE4F804681EA0300C00F0C460090F6
:1002C00021F0004123F00045B8EB0200A94105D21E
:1002D0004046214690461C460B46024623F000400D
:1002E000104347D0270DC7F30A00C3F30A51029009
:1002F000401A019040286BDAC3F3130040F4801BCE
:100300000098924620B10023D2EB030A63EB0B0B5B
:1003100001985946C0F14002504600F086F8064662
:100320000D4650465946019A00F09EF810EB080021
:100330006141002487EA115284EAE7731A4340D0EE
:10034000009A62B3019A012A4FEA075215DC001B9A
:1003500061EB02014FF0004202EA0752CDE9004290
:10036000001C41F5801132462B4600F09EF803B088
:10037000BDE8F08F40462146F9E7001B61EB020122
:10038000001C41F5801300185B412018A2F50017EE
:1003900047EB030140EAD570B6196D4111E06D08D5
:1003A0004FEA360645EAC0754FEA0752001B61EB7B
:1003B0000201001C41F5801149084FEA3000001984
:1003C000514132462B4603B0BDE8F04F00F05EB815
:1003D0000098012240000023D0EB020263EBE0739F
:1003E000009821464FEAE074B8EB000061EB04018D
:1003F000E9E783F000435BE781F0004158E730B55F
:100400000B46014600202022012409E021FA02F5D2
:100410009D4205D303FA02F5491B04FA02F528446C
:10042000151EA2F10102F1DC30BD202A04DB203AC6
:1004300000FA02F1002070479140C2F1200320FA37
:1004400003F3194390407047202A04DB203A21FA35
:1004500002F00021704721FA02F3D040C2F12002DD
:100460009140084319467047202A06DBCB17203AF3
:1004700041FA02F043EAE07306E041FA02F3D040A9
:10048000C2F12002914008431946704710B5141E6E
:1004900073F1000408DA401C41F1000192185B413D
:1004A0001A4301D120F0010010BD2DE9F04D924614
:1004B0009B4611B1B1FA81F202E0B0FA80F220322B
:1004C0009046FFF7B2FF04460F4640EA0A0041EAB1
:1004D0000B0153465A46084313D0114653EA010014
:1004E00019D0C8F140025046FFF7AEFF05460E4650
:1004F000504659464246FFF798FF084305D0012071
:1005000004E020463946BDE8F08D0020054346EA68
:10051000E0762C4337430A986305E40AA0EB080011
:100520000022FD0A44EA47540A3002D50020014661
:10053000E9E7010510196941DDE90845001969413C
:10054000BDE8F04DA2E72DE9FE4F81EA030404F077
:10055000004421F0004100944FF0000B23F00043D1
:1005600050EA01045ED052EA03045BD0C3F30A549C
:10057000C1F30A552C44A4F2F3340194A0FB0254B5
:10058000C1F3130141F48011C3F3130343F4801347
:1005900001FB024400FB034E840A970A44EA81549B
:1005A00047EA8357A4FB076802958D0A05FB078578
:1005B0004FEA932C04FB0C542705029D4FEA065882
:1005C00047EA1637B5EB08056EEB070C870E920E5F
:1005D00047EA811742EA8312A7FB0201B6EB0B013F
:1005E00064EB00042B0D43EA0C335E1844EB1C5003
:1005F000DA465146E7FB0201C5F313044FEA0B3319
:1006000043EA14534FEA0432019C43EA0603A4F17F
:100610000C040294009CCDE900B4FFF746FF03B040
:10062000BDE8F08F00200146F9E72DE9F04D81EAA1
:10063000030404F0004B21F0004514464FF0000A7B
:1006400023F0004150EA050220D054EA01021DD0F7
:10065000C5F30A570246C5F31303C1F31300C1F3F0
:100660000A5640F4801543F48013A7EB0608101BCC
:10067000D64608F2FD3873EB050002D308F10108F5
:1006800001E092185B41B8F1000F03DA0020014647
:10069000BDE8F08D00204FF48011064684460EE040
:1006A000171B73EB050705D3121B63EB050306430A
:1006B0004CEA010C49084FEA300092185B4150EABD
:1006C0000107EDD152EA030012D082EA040083EA66
:1006D0000501084305D0101BAB4106D201220023BF
:1006E00006E000224FF0004302E06FF001025310D9
:1006F0001AEB06004CEB085110EB0A0041EB0B0122
:10070000BDE8F04DFFF7C2BEC1F30A52C1F31301B9
:1007100040F2FF3341F480119A4202DA0020014690
:10072000704740F233439A42A2F2334202DC524213
:10073000FFF78ABEFFF779BE30B5041E71F10004E1
:1007400004DB4FF00044404264EB0101141E73F1DE
:10075000000405DB1C464FF00043524263EB0403E8
:10076000994208BF904230BD064C074D06E0E06854
:1007700040F0010394E8070098471034AC42F6D3E8
:10078000FFF706FDD0CF0308F0CF030870B58C1833
:1007900010F8015B15F0070301D110F8013B2A1195
:1007A00006D110F8012B03E010F8016B01F8016B82
:1007B0005B1EF9D12B0705D40023521E0DD401F87E
:1007C000013BFAE710F8013BCB1A921C03E013F847
:1007D000015B01F8015B521EF9D5A142D8D300207C
:1007E00070BDC94301607047090AC9430160704781
:1007F000C06C80B270470246002012680A4200D0E6
:100800000120704730B5024600200B0A54680125CC
:100810008D402C401168194202D0002C00D00120DC
:1008200030BD0BF025BF70B5072609290AD9C56868
:10083000A1F10A0404EB4404A640B543A3401D43C0
:10084000C56007E0056901EB4104A640B543A3403C
:100850001D4305611F23072A09D2446B521E02EB78
:10086000820293409C4391400C43446370BD0D2A27
:1008700009D2046BD21F02EB820293409C43914049
:100880000C43046370BDC46A0D3A02EB82029340CC
:100890009C4391400C43C46270BD816841F080412B
:1008A0008160704710B5074C2060084600F00CF8D6
:1008B00020680028FCD1BDE8104000214FF08040A6
:1008C00003F042BC8C0400203EB504464FF0804546
:1008D0000021284603F038FC00220121284603F0BD
:1008E0004BFC022C02D0012C03D005E00B20019020
:1008F00002E042F6DF6001900520ADF80000002024
:10090000ADF80800ADF802006946284603F090FCF7
:100910000121284603F015FC0121284603F002FCC2
:1009200001221146284603F027FC0121284603F046
:100930000BFC3EBD2DE9F04190B007460C46154634
:100940001E460121880501F0E9FEDFF84880404697
:1009500000F0C4FE4FF0007001900F480290039722
:10096000002004900594069007954FF4805108915B
:10097000099609110A9149020B9104210C91032156
:100980000D910E900F9001A9404600F08DFF10B020
:10099000BDE8F08128640240280005502DE9FC41A3
:1009A0000121172001F0BAFE304C0D22042120460F
:1009B00001F014FA0D220621204601F00FFA0D2253
:1009C0000921204601F00AFA294D0D220621284668
:1009D00001F004FA0D220721284601F0FFF9254E07
:1009E0000D220721304601F0F9F9234F0D22002195
:1009F000384601F0F3F90D220121384601F0EEF9F5
:100A00000D220421384601F0E9F90D22052138466E
:100A100001F0E4F90D220621384601F0DFF94FF428
:100A20001471009102218DF8041003218DF8051036
:100A300000218DF8061001208DF807006946204638
:100A400001F08EF9C02000906946284601F088F92F
:100A5000802000906946304601F082F973200090B2
:100A60006946384601F07CF9BDE8FC81000002408F
:100A700000040240000802400010024002A10120D0
:100A80000EF0C6FEFEE700004275734661756C7499
:100A90005F48616E646C65720D0A00000BF034BE35
:100AA00010B500EB0113D3F8B04104F00404147244
:100AB000002C2CD0D3F8B041E408546003F5D8736F
:100AC0001C6804F0020454725C6804F00F04947211
:100AD0005C68240AD4749C68D4729C68240A1473D9
:100AE0009C68240C54739C68240E9473DC68D47343
:100AF000DC68240A1474DC68240C5474DB681B0E54
:100B0000937449B1016941F02001016110BDD3F82E
:100B1000B041640D1460D1E7C16841F02001C160AB
:100B200010BD000010B5224CA078002809D0012883
:100B30003CD1E078062832D2DFE800F01C232A2AD4
:100B40002A2AE07840B101280DD0002001F052FDA2
:100B5000BDE8104001F08ABD002001F04BFDBDE86A
:100B6000104001F083BD012001F044FDBDE81040BC
:100B700001F094BD002001F017FCBDE8104001F029
:100B8000DBBC012001F010FCBDE8104001F0EEBC20
:100B900001F00AFCE078BDE8104001F045BC0020FF
:100BA00001F002FCBDE8104001F0C6BC10BD000021
:100BB0007002002070B500254FF4803400E0641E00
:100BC00024B1802002F066F90028F8D02CB140F260
:100BD000FF5002F01DF9284670BD032070BD0000D3
:100BE00070B5054600243B49086800E0086810F02D
:100BF000450FFBD0410705D50324042002F008F976
:100C0000204670BDC00705D00124012002F000F984
:100C1000204670BD02F038F9A84201D0102070BD06
:100C200040F2FF5002F0F4F8002002F04FF92A4998
:100C3000084201D1204670BD002801DA1C2070BD99
:100C4000410001D5092070BD810001D50A2070BD89
:100C5000C10001D50B2070BD010101D50C2070BD74
:100C6000410101D50D2070BDC10101D50E2070BD1F
:100C7000010201D50F2070BD410201D5102070BDC9
:100C8000810201D5112070BDC10201D5122070BDB5
:100C9000010301D5132070BD410301D5142070BD9F
:100CA000810301D5152070BDC10301D5162070BD8B
:100CB000010401D5172070BD410401D5182070BD75
:100CC000810401D5192070BD000701D51A2070BD1F
:100CD000204670BD342C014008E0FFFD10B5002413
:100CE0000E4A116800E0116811F0450FFBD048076B
:100CF00005D50324042002F08BF8204610BDC80758
:100D000005D00124012002F083F8204610BD40F2F6
:100D1000FF5002F07DF8204610BD0000342C014049
:100D200010B500240A4A116800E0116811F0450F5F
:100D3000FBD0480705D50324042002F069F82046BB
:100D400010BD40F2FF5002F063F8204610BD0000D5
:100D5000342C014070B506460C4600251C4A10682C
:100D600000E0106810F0450FFBD0410705D50324C3
:100D7000042002F04DF8204670BDC00705D00124C4
:100D8000012002F045F8204670BD02F07DF8B04227
:100D900001D0102070BD40F2FF5002F039F8002061
:100DA00002F094F810F4604F03D0810405D51320AD
:100DB00070BD000C2080284670BD410401D5102074
:100DC00070BD000401D50F2070BD284670BD000025
:100DD000342C014010B500204FF480310D4B1A68BF
:100DE00001E0491E1A6812F0450F01D10029F8D11F
:100DF00009B1510705D50324042002F009F8204663
:100E000010BD5106FCD50024402002F001F8204618
:100E100010BD0000342C014008B5034A10441430C2
:100E200000900098016008BD0074004010B50A46AB
:100E3000110602F07F0306D503EB830100EBC1012D
:100E400001F58E7105E002EB820100EBC10101F5B5
:100E50005D7100248C700B70D2094A7004F01AFC8A
:100E6000002010BD70B50D4605F07F0404EB840131
:100E70002E0600EBC10102D501F58E7101E001F5EE
:100E80005D710C70ED094D708A60CB7005B1CC803E
:100E9000022B01D100220A7104F0CEFB002070BDAC
:100EA00010B501F07F0404EB840100EBC10101F5F2
:100EB0005D71CA604B6100238B614B700C70C3780D
:100EC000012B00D10A610A781AB104F021FC00203C
:100ED00010BD04F027FBFAE7002261F30A12006953
:100EE000016811430160704710B50A46110602F00F
:100EF0007F0306D503EB830100EBC10101F58E7181
:100F000005E002EB820100EBC10101F55D710124F6
:100F10008C700B70D2094A7004F0DAFB002010BD0F
:100F200070B501F07F0404EB840100EBC10101F511
:100F30008E7101254D700C70CA600A6100228A61B1
:100F40004B61002C03D004F0E3FB002070BD04F0E3
:100F5000E9FAFAE770B586B00646304604F0B9FA09
:100F600001A801F043FC029DF068C16821F47054AF
:100F70000594C460304604F09FFC0146002003291C
:100F80000ED00120B0704020B0803E483E49284439
:100F900088420FD224F4705000F56050059066E04E
:100FA000B0704FF40070B08024F4705000F5105011
:100FB00005905CE0354836492844884205D224F43F
:100FC000705000F55050059051E0324832492844A5
:100FD000884205D224F4705000F54050059046E058
:100FE0002E482F492844884205D224F4705000F539
:100FF000305005903BE02B482B492844884205D2CD
:1010000024F4705000F52050059030E0274828491E
:101010002844884205D224F4705000F51050059001
:1010200025E0244824492844884205D224F47050FD
:1010300000F5005005901AE02048214928448842D4
:1010400005D224F4705000F5E05005900FE01D48E3
:101050001D492844884205D224F4705000F5C05040
:10106000059004E024F4705000F5A0500590F1685C
:101070000598C8604FF40050F168486106B001203F
:1010800070BD0000401E1BFF40420F0000DC0BFF44
:10109000E0C810002013FBFE20D61300003DE7FE41
:1010A000006A180000D3CEFE40771B00C05BB3FE81
:1010B000C091210000CA91FE40AC2700C01D6AFE0D
:1010C00040E13300803C36FEE09C4100F8B5054627
:1010D000002400200090284604F005FD064652E05A
:1010E000F0074ED0E1B2284600F0CEF90090C007DC
:1010F0001CD0012101FA04F22869436B9343436336
:10110000009105EB8400806981602148E1B20068AC
:10111000426828469047E878012807D134B995F805
:101120001101042802D1284604F070FA0098000743
:1011300005D50820009005EB840189698860009836
:10114000C00605D51020009005EB840189698860F0
:101150000098400605D54020009005EB8401896980
:1011600088600098800705D50220009005EB840177
:10117000896988600098000603D52146284600F05A
:1011800091F9641C7608002EAAD10120F8BD000058
:10119000EC0400202DE9FC410546002400200190CC
:1011A000284604F0A6FC0646274F47E0F00743D048
:1011B000E1B2284604F0A3FC0190C00726D001212B
:1011C000019105EB8400426D9160E97801290DD110
:1011D000406D0069009004EB840105EBC101C0F390
:1011E0001200D1F87C23101AC1F88C033868E1B2E0
:1011F000026828469047E878012807D134B995F865
:101200001101052802D1284604F000FA0198800750
:1012100005D50220019005EB8401496D8860019895
:10122000000709D53868816828468847082001905A
:1012300005EB8401496D8860641C7608002EB5D1E9
:101240000120BDE8FC810000EC04002038B5044614
:10125000A07A002808D0D4F80C01016821F002011E
:1012600021F00101009101602069416821F0010134
:101270004160054800688169204688474FF000407A
:10128000E1684861012038BDEC0400207CB50546CA
:1012900010200190E868816921F010018161E868FF
:1012A000006A009000F00F0101EB810105EBC10421
:1012B00004F55D74C0F34341072923D2DFE801F050
:1012C000222204222222160047F6F071084219D089
:1012D000C0F30A1632462846E16804F01BFCE068B9
:1012E0003044E060A0693044A0610BE0082205F2C0
:1012F000CC51284604F00EFC0099A069C1F30A11F4
:101300000844A061E868816941F010018161012011
:101310007CBD000010B50446044920460968C96830
:1013200088470821E0684161012010BDEC040020DD
:101330001FB504460020009094F812010090174851
:1013400000684169204688472069806801904FF411
:1013500000610391E2685161A17AE1B1C0071AD03E
:1013600094F81501012816D19DF80000032812D128
:10137000D4F80C01016841F00101016003200290E2
:10138000D4F80C01016841F00301016004480168D0
:1013900041F00601016004B0012010BDEC04002002
:1013A00010ED00E070B586B0044600250595049563
:1013B000039502950095012601962069416821F068
:1013C000010141600021204604F054FA0020FF2270
:1013D00006E004EB80018B699A60496D8A60401CCD
:1013E00061788142F5D821694FF0FF308861ADF80E
:1013F0001460ADF8166021690598C86145F00800D1
:1014000040F0010040F002002169486145F0010010
:1014100040F0080040F0020021690861206901687D
:1014200021F4FE610160204604F0F0F84FF4805092
:10143000E16848610348006801692046884706B0B2
:10144000012070BDEC04002010B50446054920467B
:101450000968C96988474FF48011E068416101203B
:1014600010BD0000EC04002010B5044605492046DC
:101470000968096A88474FF40011E068416101205A
:1014800010BD0000EC04002002691369526BCA40D1
:1014900002F0010243EAC21200EB81008069806819
:1014A000104070472DE9F84306460F460020009093
:1014B00007EB870006EBC00404F58E74D4E9050140
:1014C000401AA168814200D20846C01C4FEA900928
:1014D00006EB8708D8F818008069009021E0D51A3B
:1014E000A268AA4200D21546E81C4FEA9009ABB2A6
:1014F000FAB23046E16805F001FAE0682844E0609D
:10150000A0692844A061D8F8181089690091616920
:10151000814206D12078012181403069426B8A43A3
:101520004263009880B2484505D9D4E90523934227
:1015300001D2002AD3D10120BDE8F8830649002852
:1015400004D0086840F0010008607047086820F087
:10155000010008607047000000000550064900289F
:1015600004D0086840F4804008607047086820F4A0
:1015700080400860704700000000055030B50D49FC
:101580000A6844F201039A430A600A6840F6F2735B
:101590009A4303884488C588234384882C43234383
:1015A00004892343448980892343034313430B6005
:1015B00030BD0000000005501CB50121102001F0D5
:1015C000ADF80C20009002208DF8050001208DF868
:1015D000040000218DF806108DF807000B4C6946B9
:1015E000204600F0BDFB0421204600F00EFC0A203E
:1015F00000F092F90821204600F007FC0A2000F0D4
:101600008BF90821204600F002FC1CBD00100240AE
:1016100070B5084C084D2146284600F001F9012814
:1016200007D12146284600F037F8BDE870400BF09E
:1016300015BD70BD008000185860024070B5084CA0
:10164000084D2146284600F0EBF8012807D1214635
:10165000284600F021F8BDE870400BF0A9BC70BD31
:10166000208000207060024002F0CAB9074A904210
:1016700001D2074801E005481038064A8B0001EA0C
:10168000020101D5C160704781607047106402405B
:10169000006002407D0F7D0F074A904201D207484B
:1016A00001E005481038064A8B0001EA020101D525
:1016B000C160704781607047106402400060024062
:1016C0007D0F7D0F002904D0016841F00101016008
:1016D0007047016821F00101016070472DE9F04376
:1016E000016821F001010160002101604160816019
:1016F000C1600161212141613E493E4A10394FF0EC
:101700003D08904203D1C1F80880BDE8F083394A12
:101710004FF474651832904201D18D60F5E7354A77
:101720004FF474163032904201D18E60EDE7314AA9
:101730004FF074674832904201D18F60E5E72D4B3E
:101740002D4A6033984201D1CA60DEE7294C2B4B09
:101750007834A04201D1CB60D7E7DFF898C0284C9D
:101760000CF1900C604501D1CC60CEE7DFF884909D
:101770004FF03D5C09F1A809484502D1C1F80CC001
:10178000C3E72049DFF87C900839484502D1C1F809
:101790000080BAE7DFF86C8008F11808404501D1F5
:1017A0000D60B2E7174D3035A84201D10E60ACE7AD
:1017B000144D4835A84201D10F60A6E7114D1149DB
:1017C0006035091FA84201D10A609EE70D4A7832B0
:1017D000904201D10B6098E70A4A9032904201D1C1
:1017E0000C6092E7074AA83290428ED1C1F800C03F
:1017F0008BE70000106002403D000020400F0020F9
:1018000000003D2010640240002904D0016841F02E
:10181000200101607047016821F0200101607047DC
:1018200030B500240F4A904201D20F4A01E00D4A20
:10183000103A0E4B194205D01E2303EAD125036846
:101840002B4002E0406900F08003880001D5506819
:1018500000E01068064A1040084201D003B101249C
:10186000204630BD10640240006002403C0F3C0F37
:101870007D0F7D0F0B0609D522B1436943F080032C
:10188000436103E0436923F080034361802905D06D
:1018900001F01E011AB102680A4302607047026833
:1018A0008A4302607047000030B50368124A134053
:1018B000CC680A682243D1E905452C432243CC6910
:1018C00022430C6A22434C6A22438C6A22434C6BAB
:1018D00022438C6B22431A430260426922F00703C1
:1018E000D1E90B2422431A4342610A6942604A68E3
:1018F00082608968C16030BD3F801CF001A1012079
:101900000DF086BF44656275674D6F6E5F48616E0E
:10191000646C65720D0A000003490A68104448604F
:101920000A689042FCD87047000000201B4A5068AB
:1019300003681146002B89680DDB0368DB050AD5B7
:101940008B685B1C8B608B68012B00D10860506832
:101950004860012070470368002B0EDB03689B057D
:101960000BD50368DB0508D408600020486001201F
:1019700088605068C06850600DE00368002B0ADB87
:1019800003689B0507D40368DB0504D48B685B1CE4
:101990008B60C06850600020704700002405002064
:1019A0001EB500210191094B59680A68C2F30D4226
:1019B000121F00929A681468029412689268019249
:1019C000C96859609DE80E000EC01EBD24050020A8
:1019D00018B500220092124A136903F01C044FF656
:1019E000FF7303EAC02323434FF4F86000EA811039
:1019F000184320F0020040F00100106109490098EE
:101A0000401C00901069C00702D000988842F6D3AD
:101A10000098884201D1002018BD506980B218BDDD
:101A200000800240FFFF040010B54FF480442046C0
:101A300000F02EF828B1002000F034F8204600F025
:101A400021F84FF48064204600F022F8002804D0EA
:101A50002046BDE8104000F015B810BD10B50420B8
:101A600000F016F8002809D00548D0F89000406929
:101A70008047BDE81040042000F004B810BD00000D
:101A8000182001200149086070470000143C014003
:101A900001460020024A12680A4200D00120704725
:101AA000143C014010B5044612212046FFF790FF78
:101AB00080040FD510212046FFF78AFFC00704D00D
:101AC000BDE8104004480CF09EBABDE81040024842
:101AD0000CF08CBA10BD0000542301208000A0F14E
:101AE000C040002904D0016841F001010160704745
:101AF0000168024A1140016070470000FEFF0F00BC
:101B000070B501688900A1F1C0410B68344A1340E7
:101B1000D0E901242243D0E903452C432243446900
:101B2000224384692243C4692243046A2243446AEB
:101B30002243846A2243C46A2243046B22431A4329
:101B40000A608168082907D101688900A1F1C041B4
:101B50000A6842F040020A600168491C8A00A2F14A
:101B6000C042116801F04044416BD1E9003543EABD
:101B700005138D688E892D0245EA06452B430D8A93
:101B800043EA05530D7D896943EA05630B4323430B
:101B90001360C16AB1F5804F08D000686FF07041E2
:101BA0008000A0F1C040C0F8041170BD0168890038
:101BB000A1F1C041D1F804210A4B1A40806BD0E951
:101BC000003443EA041384688589240244EA054406
:101BD0008069234303431343C1F8043170BD0000FF
:101BE0008000F7FF0000F0CF2DE9FC470E460024EF
:101BF000002700970197574D4FF0080AC5F800A03D
:101C0000102068604FF04009C5F80890EF604FF46D
:101C10008068C5F81080284601F08EF91020FEF784
:101C2000DFFF002832D14C480089000428603720AB
:101C30006860C5F80890EF60C5F81080284601F08C
:101C40007BF93720FEF7CCFF00281FD1411E05F19C
:101C500014000160C0F804A0302181600221C1603D
:101C600007610121416101F0EBF82F6033206860CA
:101C7000C5F80890EF60C5F81080284601F05CF9BF
:101C80003320FEF7ADFF0546280001D0BDE8FC87F4
:101C90004FF4001A6F46DFF8C48040F22A6908E06A
:101CA000504601F0F7F820B101F040F947F8240060
:101CB000641CD8F8000010EA090FF1D0082001F0E8
:101CC000E9F820B1082001F0A3F80420DEE70220A3
:101CD00001F0E0F820B1022001F09AF80220D5E7E7
:101CE000202001F0D7F820B1202001F091F8062043
:101CF000CCE74FF40074204601F0CCF820B1204628
:101D000001F086F80720C1E740F2FF5001F080F8AB
:101D100000980099000601F47F4140EA01200099F3
:101D200001F47F0140EA1120009940EA11607060DF
:101D300001980199000601F47F4140EA01200199D0
:101D400001F47F0140EA1120019940EA11603060FE
:101D500028469BE7200800206C010020342C01401D
:101D60002DE9F041002201274FF0030C07FA02F59C
:101D70000B682B40AB422CD1066853000CFA03F4DD
:101D8000A64306600E79D0F800809E4046EA080619
:101D900006600E79012E01D0022E12D18668A6436C
:101DA00086604E79D0F808809E4046EA0806866034
:101DB0004668AE43466045688E799640B6B2354374
:101DC0004560C568A543C560CC799C40C3681C4389
:101DD000C460521C102AC9D3BDE8F08110B54B076E
:101DE000DB0E9A40C90800EB8100016A0F249C4079
:101DF000A1430162016A1143016210BD0246002045
:101E000012690A4200D00120704741837047018364
:101E10007047084490F88308704700EB8100D0F8C1
:101E200038087047D0F8F40770470022431883F849
:101E3000832800EB4113C3F8A82803F0A3BD0000DA
:101E400002A101200DF0E4FCFEE70000486172648D
:101E50004661756C745F48616E646C65720D0A0052
:101E6000002904D0018841F4806101807047018815
:101E700021F4806101807047034600209A8A1B8B01
:101E80001B041A4322F07F42914300D10120704786
:101E9000002904D0018841F00101018070470188C8
:101EA00021F001010180704710B5154988420AD11F
:101EB00001214C05204600F069FC2046BDE8104099
:101EC000002100F063BC0F4988420AD101218C0532
:101ED000204600F05BFC2046BDE81040002100F0E9
:101EE00055BC094988420AD10121CC05204600F0A1
:101EF0004DFC2046BDE81040002100F047BC10BD5D
:101F00000054004000580040005C0040002904D00C
:101F1000018841F4807101807047018821F480714B
:101F200001807047002904D0018841F400710180CC
:101F30007047018821F40071018070477FB5044625
:101F40000D46A08820F03F06684600F04FFC02983E
:101F50002749B0FBF1F189B20E43A680228822F016
:101F600001022280234B2A689A4209D85200B0FB12
:101F7000F2F080B2042800D20420491C218423E01E
:101F8000EB88A3F53F46FF3E0BD002EBC20303EB09
:101F90000212B0FBF2F080B240F48040020506D09D
:101FA00007E002EB4202B0FBF2F080B2F6E740F04D
:101FB000010040F400404FF4967251434FF47A729E
:101FC000B1FBF2F1491C2184A083208840F001007C
:101FD000208020884FF6F5310840A9886A8911438E
:101FE00001432180A8892989084320817FBD000001
:101FF00040420F00A0860100008AC0B27047002A4C
:1020000002D041F0010101E001F0FE0101827047C0
:102010000182704730B58BB0002507953D4C207884
:1020200001282FD002282BD13B494868E0600028C6
:102030003BD003202070084607F0B2FBE068010E99
:102040008DF81C10C0F307448DF81D40C0F3072322
:102050008DF81E30C2B28DF81F20CDE900412FA1AE
:1020600002A804F013FD31A103200DF0D1FB35A12E
:1020700003200DF0CDFB02AA38A103200DF0C8FB10
:102080000BB030BD02202070234807F02FFBE56025
:1020900034A103200DF0BCFB38A103200DF0B8FBE8
:1020A0003CA103200DF0B4FBEAE7486A407B04281A
:1020B000E6D904202070184807F072FB3B480A90CC
:1020C0006FF07F4009903A48089008AB09AA0AA926
:1020D00011480BF02FFF37A103200DF099FB0A20C8
:1020E0008DF81C008DF81D50A8238DF81E30C022DD
:1020F0008DF81F20CDE9005034A102A804F0C6FCE1
:1021000036A103200DF084FB02AA3AA103200DF0B2
:102110007FFBB5E70C050020542301202025642E09
:1021200025642E25642E256400000000495020619E
:102130006464726573732061737369676E65640D9F
:102140000A0000002020627920612044484350208A
:1021500073657276657220200D0A00002025730DCC
:102160000A00000020202020204C6F6F6B696E67F2
:1021700020666F72202020200D0A000020202020E1
:1021800020444843502073657276657220202020D9
:102190000D0A00002020202020706C6561736520EE
:1021A000776169742E2E2E200D0A0000C0A8000A47
:1021B000C0A8000120202020444843502074696DAD
:1021C000656F7574202020200D0A000020202564F2
:1021D0002E25642E25642E256400000020205374D3
:1021E000617469632049502061646472657373206F
:1021F0002020000025730D0A0000000031B51C4CA2
:1022000000996068081AFA2803D3009860600DF0FE
:1022100023F90098A168401A41F28831884203D31B
:102220000098A06008F002FF00982169401AB0F5FC
:10223000FA7F0ED30098206106F012FE2078032862
:1022400007D02078042804D02078052801D0FFF793
:10225000E1FE00986169401A4EF66021884205D37C
:1022600000986061BDE8384006F0DEBC38BD000073
:102270000C050020014808F0FBBE0000542301209B
:102280001CB5012000F0ACFA0121084600F046FA26
:102290000D4C002208212046FFF7A0FDA11500915A
:1022A00002218DF805108DF8041000218DF806101C
:1022B00001218DF8071069462046FFF751FD0021E6
:1022C000084600F00FFB1CBD0000024002A10120E7
:1022D0000DF09EFAFEE700004D656D4D616E616781
:1022E000655F48616E646C65720D0A0002A1012091
:1022F0000DF08EFAFEE700004E4D495F48616E64B6
:102300006C65720D0A00000030B50F23C2780125FC
:102310000178002A1FD0154A126802F4E062C2F563
:10232000E062C2F30722C2F10404D3404278A24023
:1023300084781C401443220101F1E02181F800243B
:10234000007800F01F018D404009800000F1E0207E
:10235000C0F8005130BD01F01F00854048098000E1
:1023600000F1E020C0F8805130BD00000CED00E02D
:102370000249084302490860704700000000FA055E
:102380000CED00E010B5074803F0A1FB20B1BDE85B
:102390001040044802F0D6BFBDE81040014802F0EA
:1023A0002DBA0000841501207FB50446012108469E
:1023B00000F0C2F90021ADF80010ADF802102020A5
:1023C000ADF80400ADF80610ADF80810ADF80A102D
:1023D000ADF80C108021134E05026CB1012C17D002
:1023E000ADF806106846FFF7C9F82B460022012118
:1023F0003046FEF79FFA7FBDADF806106846FFF73E
:10240000BDF82B46002201213046FEF793FA7FBD2E
:102410006846FFF7B3F82B46002201213046FEF74D
:1024200089FA7FBD0000016C70B5054600F0D1F857
:10243000C820FFF771FA00243C4E06EB44004178B7
:1024400016F8140000F0D0F8641CBE2CF5D300245C
:10245000374E06EB4400417816F8140000F0C4F83B
:10246000641C092CF5D30121FF2000F0BDF80021E8
:10247000152000F0B9F800242D4E123606EB44006A
:10248000417816F8140000F0AFF8641C082CF5D35E
:102490006420FFF741FA264E2236022D11D0032D7B
:1024A0001BD0042D27D0052D33D0002406EB44008B
:1024B000417816F8140000F097F8641C272CF5D327
:1024C00070BD002406EB4400417816F8140000F0BB
:1024D0008BF8641C272CF5D370BD0024144D703587
:1024E00005EB4400417815F8140000F07DF8641CF9
:1024F000272CF5D370BD00240D4DBE3505EB4400EF
:10250000417815F8140000F06FF8641C272CF5D3FF
:1025100070BD0024074D05EB4400417815F8140008
:1025200000F062F8641C272CF5D370BD30FD000864
:10253000ACFE0008B8FF000870B500F04AF8C820EB
:10254000FFF7EAF90024084D4FF4A47605EB4400A8
:10255000417815F8140000F047F80220FFF7DCF985
:10256000641CB442F2D370BDE8F8000870B500F006
:1025700030F8C820FFF7D0F90024074D05EB4400E0
:10258000417815F8140000F02FF80220FFF7C4F985
:10259000641CDC2CF2D370BD78FB000810B5044637
:1025A0000121FF2000F020F81C2000F00EF8207020
:1025B0001D2000F00AF860700A2000F006F8A070F4
:1025C0000B2000F002F8E07010BD0146612004F01D
:1025D00057BF10B50121FF2000F006F88021BDE8AB
:1025E00010401220AFF300800A460146602004F03C
:1025F000D9BF00007FB504460121084600F09CF8D1
:102600000021ADF80010ADF80210ADF804108022E2
:10261000ADF806204020ADF80800ADF80A10ADF87E
:102620000C10114EC5015CB1012C13D06846FEF7A9
:10263000A5FF2B46002201213046FEF77BF97FBD26
:102640006846FEF79BFF2B46002201213046FEF72D
:1026500071F97FBD6846FEF791FF2B4600220121EC
:102660003046FEF767F97FBD0000016C70B500F0E1
:1026700044F8C820FFF750F90024074D05EB44004B
:10268000417815F8140000F03CF80220FFF744F9F7
:10269000641C972CF2D370BD0600010870B500F0E1
:1026A0002CF8C820FFF738F90024074D05EB44004B
:1026B000417815F8140000F024F80220FFF72CF9F7
:1026C000641C972CF2D370BD3401010810B5044688
:1026D0001C2000F00EF820701D2000F00AF8607039
:1026E0000B2000F006F8A0700A2000F002F8E0705D
:1026F00010BD0146612004F0C3BE80211220AFF35B
:1027000000800A460146602004F04CBF014908627F
:102710007047000000000E4270470000054A002983
:1027200003D0116801431160704711688143116043
:102730007047000030380240054A002903D0116874
:1027400001431160704711688143116070470000B8
:1027500034380240054A002903D011680143116052
:10276000704711688143116070470000383802409B
:10277000054A002903D011680143116070471168B0
:10278000814311607047000040380240054A00292B
:1027900003D01168014311607047116881431160D3
:1027A0007047000020380240054A002903D0116814
:1027B0000143116070471168814311607047000048
:1027C00044380240054A002903D0116801431160D2
:1027D000704711688143116070470000243802403F
:1027E0000149C864704700000000474270B5244B9F
:1027F000196801F00C01234C00291ED06610042931
:102800001DD008291DD00460196801F0F0010909E4
:102810001D4A545C0168E14041601C6804F4E054C6
:10282000A40A145D21FA04F484601B6803F4604375
:102830005B0BD25CD140C16070BD0460E4E7066010
:10284000E2E70F4A121F1168C1F38055116801F0C9
:102850003F0135B1B6FBF1F11468C4F3881461434C
:1028600005E0B4FBF1F11468C4F388146143126805
:10287000C2F30142521C5200B1FBF2F10160C3E706
:10288000083802400024F40009000020024600201D
:10289000510901290BD002290DD00949096802F01C
:1028A0001F02012393400B4200D0012070470449CE
:1028B00074390968F3E70249091F0968EFE7000066
:1028C00074380240064900220A700A70012804D0B8
:1028D000042801D105200870704701200870704756
:1028E00070380240034B1A6822F0EC620843104330
:1028F00018607047083802400149086070470000BE
:102900003C0E4742C0F30121032907D1074B196848
:1029100021F4F8120649014011431960034A683254
:102920001168C0F30B000143116070470838024082
:10293000FFFCFF0F010901EB8101490000F00F00CE
:102940000844C0B27047002103E0491CC9B20A38EC
:10295000C0B20A28F9D2090740EA116070470000A6
:1029600008B5002000900E490868400615D44FF0C5
:10297000FF3008608B13086800F04000009A521C7A
:102980000092009A9A4201D00028F4D008684006CC
:1029900001D5012008BD002008BD012008BD0000B0
:1029A0000C2800400248016821F080010160704756
:1029B0000C28004010B502460C460E4801680E482F
:1029C0000140080CE070C1F30423637001F03F0381
:1029D000A370C1F342312170002A0AD1FFF7AAFF88
:1029E000E0706078FFF7A6FF6070A078FFF7A2FFA5
:1029F000A07010BD042800403FFFFF0010B5024644
:102A00000C460F4801680F480140C1F30540207093
:102A1000C1F30623637001F07F03A37001F480010A
:102A2000090CE170002A0AD1FFF784FF207060785A
:102A3000FFF780FF6070A078FFF77CFFA07010BDEB
:102A4000002800407F7F7F0070B504460025114EAE
:102A5000CA20306053203060FFF782FFA8B10D48D4
:102A60001C38016821F040010160016822681143AF
:102A700001600848A168143801600168A28841EA31
:102A800002410160FFF78EFF0125FF2030602846DC
:102A900070BD00002428004008B5034901EB800008
:102AA00000900098006808BD5028004070B50546A9
:102AB0000C460026002D06D16078C10603D520F013
:102AC00010000A3060702DB16078FFF733FFA078F6
:102AD000FFF730FF55B1A078E17840EA0145607812
:102AE0002178000240EA413005430FE0E078FFF72B
:102AF0002AFF05046078FFF726FF45EA0025A07845
:102B0000FFF721FF0543207845EA40350E4CCA20E7
:102B1000206053202060FFF723FF88B10B48054059
:102B2000094820380560FFF73DFF07481C3800685A
:102B3000800604D400F060F810B1012600E0012600
:102B4000FF202060304670BD242800403FFFFF007A
:102B50002DE9F04105460C4600260020244F002DAB
:102B600006D03968490608D52078FFF7E3FE05E06E
:102B70003968490602D4E07000E0E07055B1A078F1
:102B8000217840EA01456078E178000240EA01409E
:102B900005430FE02078FFF7D6FE05046078FFF7C5
:102BA000D2FE45EA0025A078FFF7CDFE0543E07888
:102BB00045EA00450E4CCA201C342060532020609A
:102BC000FFF7CEFE78B10B4805400948083805608C
:102BD000FFF7E8FE3868800604D400F00DF810B165
:102BE000012600E00126FF2020603046BDE8F0818C
:102BF000082800407F7F7F0018B500200090104B10
:102C0000CA201860532018600D491839086820F050
:102C1000A00008604FF40034086800F02000009A1B
:102C2000521C0092009AA24201D00028F4D00868F9
:102C3000800601D5012000E00020FF21196018BDA9
:102C40002428004008B5034A02EB80000090009859
:102C5000016008BD5028004030B587B001218805CB
:102C6000FFF786FD01212020FFF758FD1F4D0422AC
:102C700000212846FFF7B2F8042201212846FFF779
:102C8000ADF80321059102218DF8181000248DF86C
:102C9000194001218DF81A108DF81B4005A928460E
:102CA000FFF75EF8124D2846FFF7FEF8ADF8084032
:102CB0004BF6FF71ADF80A10FE21ADF80C10291586
:102CC000ADF80E100901ADF8101042F2107101912B
:102CD00001A92846FFF732F901212846FFF7D8F865
:102CE00001212846FFF7BCF807B030BD00140240B0
:102CF000005800402DE9FC4706460024009401944A
:102D0000002000F0E3F8800102D50E20BDE8FC872A
:102D100033A104200CF07CFD374D6946288980B230
:102D2000FEF762FF07463A4634A104200CF070FD1E
:102D30000FB13846EAE73720344F4FF0060A4FF01C
:102D400040094FF48068012E22D00199C90345D56E
:102D50002989090439607860C7F80890FC60C7F8D1
:102D60001080384600F0E8F83720FDF739FF0028DA
:102D7000CCD13C60C7F804A0C7F80890FC60C7F845
:102D80001080384600F0D8F80620FDF729FFBDE78F
:102D90000199490320D52989090439607860C7F869
:102DA0000890FC60C7F81080184800F0C5F837207C
:102DB000FDF716FF0028A9D102203860C7F804A04B
:102DC000C7F80890FC60C7F81080104800F0B4F80D
:102DD0000620FDF705FF99E7252097E7252095E7D1
:102DE0005344494F5F476574526573706F6E7365E6
:102DF000206F6B0D0A0000006C01002046696E64B4
:102E00005343523A25640D0A0000000020080020B8
:102E10000149086070470000382C014001490860F2
:102E200070470000382C01400149086070470000DD
:102E3000A080254201490860704700008C8525422A
:102E400010B50A4A01681160121D41681160141D15
:102E5000216821F0F701D0E902231A43D0E90430B8
:102E600003431A430A43226010BD0000242C014092
:102E700010B50121CC022046FFF7A4FC2046BDE896
:102E800010400021FFF79EBC01480068C0B27047A7
:102E9000102C014001460020024A12680A4200D06C
:102EA00001207047342C014001460020024A12687C
:102EB0000A4200D001207047342C014002480068CB
:102EC00000F0030070470000002C014008B50349E2
:102ED000084400900098006808BD0000142C0140D0
:102EE00000F0A2BD054A002903D01168014311601A
:102EF0007047116881431160704700003C2C01400D
:102F000030B5094B196847F6FF629143027D84682A
:102F1000C568224344682C43224304680069224365
:102F200002430A431A6030BD042C01400148006886
:102F300070470000802C014010B5084A01681160FC
:102F4000141D21686FF30A01D0E901231A43D0E967
:102F5000033003431A430A43226010BD082C01408A
:102F60000149086070470000002C014008B50120AD
:102F7000009041030448FEF741FF08B10020009093
:102F80009DF8000008BD0000000802402DE9F04156
:102F900000261E494968032905D039B1012905D009
:102FA000022903D030E02720BDE8F081B0F5805F32
:102FB00010D04FF400670024154DB84216D10120FF
:102FC000FFF798FE0646324612A104200CF020FCC2
:102FD00016B119E02720E7E72C752C606C60AC6017
:102FE000EF602C610A48FFF78BFF0DE00020FFF730
:102FF00081FE064646B92C752C606C60AC60EC60B6
:103000002C610348FFF77CFF3046CDE76C010020C0
:10301000080800205344456E576964654275733A49
:1030200025640D0A000000002DE9F04704469A4887
:10303000436884F856300089A4F85400DFF85C92A5
:10304000D9F80000010E8A092270C1F38302627070
:1030500001F00301A170010CE170010A217160719E
:10306000D9F80400010E0901E180C0F30741E288AC
:1030700042EA1112E28001F00F012172C0F307272A
:10308000F9096172C7F38011A172C7F34011E172AF
:10309000C7F3001121730026667349464FF00108FB
:1030A0008D68290EC5F30742C5F30725002B04D010
:1030B000012B02D0022B39D055E0BB071B0D236139
:1030C000C0B2236943EA80002061206940EA911080
:1030D0002061C1F3C200207501F00700607550093E
:1030E000A075C2F38200E0759007400F20762F464E
:1030F000207E40EAD710207625696D1C207E801C3A
:1031000008FA00F1A5FB0103CA1706FB013105FB14
:103110000211237A08FA03F22265A0FB023501FBB3
:10312000025100FB0610C4E912301CE08006800A40
:103130002061206940EA012020612069104320615C
:103140002F46226956A104200CF062FB2069401C26
:1031500046F10001C90441EA5031C004C4E912013A
:103160004FF4007020651C34C7F3801004F8030C82
:10317000B806400E04F8020C99F8080014F8021C76
:1031800041EAD01104F8021C00F07F0004F8010CA1
:10319000D9F80C10080EC2092270C0F341126270F7
:1031A000C0F38202A2708007000FE070C1F30740F5
:1031B000E27842EA9012E270C0F340122271667126
:1031C00000F00100A071C1F30720C209E271C0F351
:1031D00080122272C0F340126272C0F30012A27217
:1031E000C0F38102E27200F003002073C8B240080D
:1031F000607384F80E80294910310868020E227429
:10320000020C12026282C0F30722638A13436382B4
:10321000000660614868020E636943EA0242626127
:10322000C0F30742636943EA02226261C0F30722E6
:1032300063691343636120768868020E6276020C2C
:103240001206E261C0F30722E36943EA0242E26147
:10325000C0B2E26942EA0020E061C868010EE2699A
:103260000A43E261C0F3074194F8202042EA1112B8
:1032700084F820200907090D6184C0F30721628CBE
:103280000A436284C0B2400884F8240084F8258090
:103290003046BDE8F08700006C0100208007002068
:1032A0000D0A2D2D2D2D2D2D2D53445F6373642E6E
:1032B00044657669636553697A653A25642D2D2DD9
:1032C0002D2D2D2D2D2D2D0D0A00000008B50020CF
:1032D0000090FFF74BFE012801D0FF2008BD684693
:1032E00000F06AFC08B1FF2008BD0098C0F343203D
:1032F00008BD10B5FFF7EAFF042803D0FF2803D06C
:10330000012010BD002010BD022010BD38B50024E2
:10331000009400F099FA00F039FAFFF7A9FD00F0E7
:10332000ADFA00909DF8000010B19DF8000038BD86
:103330002FA104200CF06CFA00F012F900909DF817
:10334000000010B19DF8000038BD32A104200CF03F
:103350005FFA3B480475046044608460C4600461A3
:10336000FFF7CEFD36485838FFF75EFE009035A1D6
:1033700004200CF04DFA324C583C3CA10420E26C85
:103380000CF046FA39A10420A26C0CF041FA41A1DC
:103390000420226D0CF03CFAB4F8542047A104201C
:1033A0000CF036FA94F856204CA104200CF030FAB8
:1033B0009DF8000030B9B4F854000021000400F07A
:1033C000E5FB00909DF8000040B94DA104200CF0F1
:1033D0001FFA4FF40060FFF7D9FD00909DF8002020
:1033E00052A104200CF014FA9DF8000038BD000032
:1033F0000D0A2D2D2D2D2D2D2D53445F506F7765EA
:10340000724F4E206F6B2D2D2D2D2D2D2D2D2D2DF1
:103410000D0A00000D0A2D2D2D2D2D2D2D53445F4D
:10342000496E697469616C697A654361726473207D
:103430006F6B2D2D2D2D2D2D2D2D2D2D0D0A0000D9
:10344000080800200D0A2D2D2D2D2D2D2D53445F04
:1034500047657443617264496E666F206F6B2D2DF2
:103460002D2D2D2D2D2D2D2D0D0A00000D0A2D2D6C
:103470002D2D2D2D2D43617264436170616369743C
:10348000793A253038582D2D2D2D2D2D2D2D2D2DE2
:103490000D0A00000D0A2D2D2D2D2D2D2D436172AD
:1034A00064426C6F636B53697A653A2564202D2DF5
:1034B0002D2D2D2D2D2D2D2D0D0A00000D0A2D2D1C
:1034C0002D2D2D2D2D5243413A2564202D2D2D2DAE
:1034D0002D2D2D2D2D2D0D0A000000000D0A2D2D56
:1034E0002D2D2D2D2D43617264547970653A25641C
:1034F000202D2D2D2D2D2D2D2D2D2D0D0A000000D3
:103500000D0A2D2D2D2D2D2D2D53445F53656C65EA
:103510006374446573656C656374206F6B2D2D2D2A
:103520002D2D2D2D2D2D2D0D0A0000000D0A2D2DD8
:103530002D2D2D2D2D53445F456E61626C655769AD
:1035400064654275734F7065726174696F6E3A2578
:10355000642D2D2D2D2D2D2D2D2D2D0D0A0000002E
:103560002DE9F84F002401200090FFF7A7FCE0B1FF
:10357000DFF8FC8000263F4DD8F804004FF0C0096A
:103580004FF4806704282AD02E6002206860C5F8B6
:103590000890EE602F612846FFF7CEFCFDF79EFBFA
:1035A0000446200003D0BDE8F88F2520FBE700206B
:1035B000FFF78CFCDFF8BCA0AAF1900ACAF8000063
:1035C0000420FFF783FCCAF804000820FFF77EFC04
:1035D000CAF808000C20FFF779FCCAF80C00D8F8EC
:1035E000040028B1012803D0062801D0022811D1F7
:1035F0002E60032068604020A860EE602F611D48A7
:10360000FFF79AFC69460320FDF7A4FB044620005F
:1036100000D0C8E7D8F80400042826D0BDF8000080
:10362000C8F808000004286009206860C5F8089000
:10363000EE602F610F48FFF77FFCFDF74FFB04465C
:10364000200000D0AFE70020FFF740FC094DA03D6F
:1036500028600420FFF73AFC68600820FFF736FC7A
:10366000A8600C20FFF732FCE86020469BE70000D2
:103670006C0100202008002070B590B005460C4673
:103680001D4E4FF0FA513046FDF7F0FF0021304655
:10369000FEF718F83046FEF721F84FF00060019071
:1036A0001648029003950020049005940690311569
:1036B000079189000891890009910A904FF44030E0
:1036C0000B9004200C9003200D9048020E90801067
:1036D0000F9001A93046FEF7E7F80122102130468D
:1036E000FEF7C8F820213046FEF78EF8012130465B
:1036F000FDF7E8FF10B070BD58640240802C014017
:1037000070B590B004460D461E4E4FF0FA5130464B
:10371000FDF7ACFF00213046FDF7D4FF3046FDF742
:10372000DDFF4FF0006001901748029003944020A5
:1037300004900595002006903115079189000891A5
:10374000890009910A904FF440300B9004200C90AE
:1037500003200D9048020E9080100F9001A9304672
:10376000FEF7A2F8012210213046FEF783F820214F
:103770003046FEF749F801213046FDF7A3FF10B0AF
:1037800070BD000058640240802C01402DE9FC41CE
:1037900001210C20FEF7C2FF294E0C2208213046E1
:1037A000FEF71CFB0C2209213046FEF717FB0C220A
:1037B0000A213046FEF712FB0C220B213046FEF7A1
:1037C0000DFB0C2211463046FEF708FB1D4F0C2264
:1037D00002213846FEF702FB4FF470600090022190
:1037E0008DF805108DF8041000248DF80640012591
:1037F0008DF8075069463046FEF7B2FA0420009073
:1038000069463846FEF7ACFA280300908DF8074069
:1038100069463046FEF7A4FA680300908DF804402C
:103820008DF8075069463046FEF79AFA0121C80222
:10383000FEF7BAFF01218805FEF770FFBDE8FC81A5
:1038400000080240000C024038B531208DF800001D
:1038500000248DF801408DF8024001258DF80350B9
:103860006846FEF751FD3B208DF800008DF80150B1
:103870008DF802406846FEF747FD38BD2DE9F84F48
:1038800000270097BB460024A24600255948762110
:103890000175076047608760C7600761FFF730FB0D
:1038A0000320FFF75DFB0120FFF7BEFA514E1836EB
:1038B00037607760B760F7604FF48069C6F81090A2
:1038C0003046FFF739FBFDF775F900909DF80000D1
:1038D00018B19DF80000BDE8F88F4FF4D570306046
:1038E000082070604FF04008C6F80880F760C6F8FE
:1038F000109040481830FFF71FFBFDF76BFA00905F
:103900009DF8000018B3376037207060C6F8088053
:10391000F760C6F8109037481830FFF70DFB3720D6
:10392000FDF75EF90090376037207060C6F80880B8
:10393000F760C6F810902F481830FFF7FDFA3720CF
:10394000FDF74EF900909DF8000090B34FE02A4833
:10395000012141608D07E6E7376037207060C6F8C7
:103960000880F760C6F8109022481830FFF7E4FA94
:103970003720FDF735F900909DF8000010B19DF853
:103980000000A8E71D482843306029207060C6F871
:103990000880F760C6F8109016481830FFF7CCFA88
:1039A000FDF7BEF900909DF8000018B19DF80000E9
:1039B00091E706E00020FFF789FA83464FEADB7AB9
:1039C000641CBAF1000F03D14FF6FF708442C3D3D9
:1039D0004FF6FF70844204D31B2000909DF8000036
:1039E00079E71BF0804F02D00348022141609DF827
:1039F000000070E7080800206C0100200000108023
:103A00000748006810F0C05F08D0064901204861EF
:103A100003484FF0C2515830FDF728BE70470000F0
:103A2000006402406C01002070B54FF48075284698
:103A3000FFF73AFA1F4C30B1002020702846FFF7FC
:103A4000EDF9012020610220FFF72EFA20B10220BB
:103A5000FFF7E4F9022020700820FFF725FA20B1D3
:103A60000820FFF7DBF9042020702020FFF71CFA64
:103A700020B12020FFF7D2F9062020701020FFF798
:103A800013FA20B11020FFF7C9F9052020704FF478
:103A900000752846FFF708FA20B12846FFF7BEF95F
:103AA0000720207000214CF23A30FFF71BFA2078F3
:103AB00070BD00006C0100202DE9F05F8346DDE958
:103AC0000A6714461D46DFF8B8A04FF000088AF8D0
:103AD0000080CAF810804FF00109CAF80C902948FC
:103AE000C0F80080012140F22A30FFF7FBF907FB04
:103AF00006F15846FFF7C0FD0120FFF79BF9DAF801
:103B00000400022803D10602640A44EAC5541E4D8B
:103B10002E60102068604FF0400AC5F808A0C5F874
:103B20000C804FF4806BC5F810B02846FFF704FAFC
:103B30001020FDF755F8002820D1411E05F1140092
:103B4000016077434760902181600221C160C0F825
:103B50001080C0F81490FFF773F92C601220686091
:103B6000C5F808A0C5F80C80C5F810B02846FFF7C6
:103B7000E3F9BDE8F05F1220FDF732B8BDE8F09F31
:103B80006C0100202C2C01402008002010B5094AAF
:103B9000106007205060402090600020D0604FF4FB
:103BA000806010611046FFF7C7F9BDE8104007209C
:103BB000FDF716B82008002070B50546002D16D078
:103BC0000F48008901040F4801600D214160402128
:103BD00081600021C1604FF480610161FFF7ACF9A1
:103BE0000D20FCF7FDFF04461CB1204670BD2620C9
:103BF00070BD0020FFF76AF92860204670BD000004
:103C00006C0100202008002010B508480021016048
:103C10000C22426040228260C16011010161FFF705
:103C20008BF9BDE810400C20FCF7DABF200800201B
:103C30002DE9F04100256C1E2146154E00E0491E7D
:103C4000706928B9306918B9307808B90029F6D1F7
:103C5000002777610F4800E0641E0168890401D5E0
:103C6000002CF9D1F068012803D1FFF7CDFF0546FC
:103C7000F7602C4300D1042540F2FF50FFF7C8F84D
:103C8000307810B13078BDE8F0812846FBE70000BD
:103C90006C010020342C01402DE9F04100256C1E00
:103CA0002146154E00E0491E706928B9306918B9DF
:103CB000307808B90029F6D1002777610F4800E075
:103CC000641E0168C90401D5002CF9D1F0680128EF
:103CD00003D1FFF799FF0546F7602C4300D1042577
:103CE00040F2FF50FFF794F8307810B13078BDE81B
:103CF000F0812846FBE700006C010020342C0140D5
:103D00002DE9F05F8246DDE90A6714461D46DFF8BB
:103D100004914FF0000889F80080C9F81080012054
:103D2000C9F80C003C48C0F80080012140F22A305C
:103D3000FFF7D8F807FB06F15046FFF7E1FC01203A
:103D4000FFF778F8D9F80400022803D10602640AC4
:103D500044EAC554314D2E60102068604FF0400B8E
:103D6000C5F808B0C5F80C804FF4806AC5F810A0FB
:103D70002846FFF7E1F81020FCF732FF002847D172
:103D8000B9F808000004286037206860C5F808B05A
:103D9000C5F80C80C5F810A02846FFF7CDF83720ED
:103DA000FCF71EFF002833D12F6017206860C5F88C
:103DB00008B0C5F80C80C5F810A02846FFF7BCF87D
:103DC0001720FCF70DFF002822D12C601920686015
:103DD000C5F808B0C5F80C80C5F810A02846FFF754
:103DE000ABF81920FCF7FCFE002811D105F11402F4
:103DF000401E10607743576090209060C2F80C809E
:103E0000C2F81080012050611046FFF719F84046B3
:103E1000BDE8F09F6C0100202C2C01402008002000
:103E200010B5FFF773FA08B1012010BD002010BDD6
:103E3000002908D00C48012907D002290AD00329FB
:103E40000DD00420704700207047806C400A10603D
:103E5000002070474FF40070108000207047006D04
:103E60001060002070470000B00700201CB5084615
:103E70004FF40074CDE9004352020023FFF71CFE0B
:103E8000044634B9FFF7D4FE0446FFF732FA00289F
:103E9000FBD10CB101201CBD00201CBD00207047CF
:103EA0001CB508464FF40074CDE9004352020023CC
:103EB000FFF726FF044634B9FFF7EEFE0446FFF78E
:103EC00018FA0028FBD10CB101201CBD00201CBD3C
:103ED000002904D0018841F0400101807047018829
:103EE00021F040010180704710B52A4988420AD16B
:103EF000841401212046FEF765FC2046BDE81040F1
:103F00000021FEF75FBC244988420AD10414012134
:103F10002046FEF73BFC2046BDE810400021FEF79E
:103F200035BC1E4988420AD1C41301212046FEF740
:103F30002DFC2046BDE810400021FEF727BC1849A3
:103F400088420AD1441401212046FEF73BFC20465A
:103F5000BDE810400021FEF735BC124988420AD165
:103F600001210C052046FEF72DFC2046BDE810403F
:103F70000021FEF727BC0C4988420AD101214C05DB
:103F80002046FEF71FFC2046BDE810400021FEF74A
:103F900019BC10BD0030014000380040003C00401A
:103FA000003401400050014000540140024600200E
:103FB00012890A4200D001207047808970478181B0
:103FC000704730B5028802F441530A884C88CD8886
:103FD00022438C882C4322430C8922434C89224360
:103FE0008C892243CC8922431A430280828B22F49B
:103FF00000628283098A018230BD70470CB50022BD
:10400000019200922749086840F4803008604FF41C
:10401000A043086800F4003000900198401C019013
:10402000009810B901989842F3D10868800302D52E
:104030000120009000E000920098012831D1194839
:104040004030026842F0805202601748026842F431
:10405000404202601348083002680260026842F47D
:1040600000420260026842F4A0520260021F0F4B3D
:1040700013600A6842F080720A600A689201FCD5F7
:104080000B4A40F205711160016821F003010160E3
:10409000016841F0020101600168C1F38101022958
:1040A000FAD10CBD003802400070004008544007AF
:1040B000003C024000F000B910B51248016841F41C
:1040C000700101601048016841F0010101600E4A71
:1040D00000210832116002680C4B1A400260031D77
:1040E0000B4A1A60026822F48022026006480C30F3
:1040F0000160FFF783FF03494FF0006080390860DB
:1041000010BD000088ED00E000380240FFFFF6FE21
:104110001030002401F0B6B909F0B8B809F012B9AE
:1041200009F064B9002904D0018841F080010180C0
:104130007047018821F0800101807047C9430182E6
:104140007047C94301827047002904D0018841F0BB
:10415000010101807047018821F001010180704751
:1041600002460020138A0B4092890A40002B02D09D
:10417000002A00D001207047002A03D082890A4318
:104180008281704782898A438281704770B5028C30
:1041900022F010020284028C8388048B24F4E04411
:1041A00024F440760D884FF6FF7404EA0525354364
:1041B00022F020028E8904EA061616434A8804EA91
:1041C00002123243114EB04202D0114EB04217D10A
:1041D00022F08002CE8904EA0616164326F0400635
:1041E0008A8804EA0212324323F4806323F40063D2
:1041F0000E8A04EA86061E434B8A04EA830333438D
:104200008380058389688163028470BD000001405A
:1042100000040140028B22F400624FF6FF7303EAB0
:1042200001211143018370478163704741627047E8
:1042300030B50288164C174DA0420DD0A8420BD0C5
:10424000B0F1804F08D0144B984205D0134B9842E0
:1042500002D0134B984203D122F070034A881A43CC
:10426000104B984206D0104B984203D022F4407372
:104270000A891A4302804A68C2620A880285A042FB
:1042800001D0A84201D1897A01860121818230BD05
:10429000000001400004014000040040000800400C
:1042A000000C00400010004000140040014800686D
:1042B000704700000000002002480168491C0160AE
:1042C000704700000000002009F00AB909F052B957
:1042D00009F09CB98A05C9430180704740F66A120B
:1042E0000A0A01219140C94301807047002904D086
:1042F000818941F4005181817047818921F4005105
:10430000818170470246002012880A4200D00120B5
:10431000704770B5002440F66A12C1F3421301F0F1
:104320001F05012606FA05F2012B0CD0022B0DD039
:10433000838A1340090A8E40008830400BB100B1D7
:104340000124204670BD83891340F3E7038A13409C
:10435000F0E710B540F66A13C1F3421301F01F04F1
:104360000121A140012B07D0022B07D014303AB114
:1043700002680A43026010BD0C30F8E71030F6E71F
:1043800002688A43026010BD7FB504460D46208A4C
:1043900020F44051E88808432082A08941F20C6152
:1043A0008843A9882A8911436A8902431143A1815C
:1043B000A08A20F44071A8890843A0826846FEF7CD
:1043C00015FA1E48844202D01D48844201D1039848
:1043D00000E00298A189090408D500EBC00101EBB7
:1043E000001029684900B0FBF1F007E000EBC001C4
:1043F00001EB001029688900B0FBF1F06422B0FBEA
:10440000F2F109010B096FF018056B4300EB830013
:10441000A3891D044FF0320307D503EBC000B0FBA6
:10442000F2F000F00700084306E003EB0010B0FBD9
:10443000F2F000F00F00084320817FBD0010014022
:10444000001401408088C0F308007047C1F30801E0
:104450008180704710B5D0F8E4255268904700205D
:1044600010BD10B5044694F81201022806D00328A6
:1044700004D02046BDE8104000F023B84888012849
:104480000CD10020C4F81801D4F8E4058268204655
:1044900090472046BDE8104000F043B810BD10B56D
:1044A000002413460A460021FCF7FAFC204610BD02
:1044B00010B5002413460A460021FCF731FD2046C2
:1044C00010BD10B5044680212046FCF70DFD0021EB
:1044D0002046FCF709FD2046BDE8104001F096B8E3
:1044E00070B505460024052085F8110100231A4601
:1044F00019462846FCF7D4FC284601F087F82046E8
:1045000070BD10B50024C0F83C21C0F8382102234A
:1045100080F8113113460A460021FCF701FD2046C0
:1045200010BD70B505460024042085F81101002354
:104530001A4619462846FCF7F3FC284601F066F8AF
:10454000204670BD70B50546002909D0D5F8E405B0
:104550004269002A56D095F81201032850D051E044
:1045600005F58E7495F81101002602283ED1E16907
:10457000A068814215D9081AE061E878012803D1C2
:10458000D4E902100844E060A08BE16882B22846BA
:10459000FFF78EFF00231A4619462846FCF780FCD9
:1045A00024E0216AB1FBF0F200FB12128AB98142C9
:1045B0000FD3606A81420CD2002211462846FFF7D1
:1045C00077FF666200231A4619462846FCF768FC06
:1045D0000CE0D5F8E405C16829B195F8120103286B
:1045E00001D1284688472846FFF77AFF95F816013B
:1045F000012807D1284600F09DF985F8166101E0F1
:1046000028469047002070BD70B50546002908D0A7
:10461000D5F8E40582690AB395F8120103282CD075
:104620002DE005F55D7495F81101032827D1E169A6
:10463000A068814213D9081AE061E878012803D103
:10464000D4E902100844E060E169A068814200D228
:10465000084682B22846E168FFF721FF0FE0D5F84F
:10466000E405016929B195F81201032801D1284612
:1046700088472846FFF755FF01E02846904700206D
:1046800070BD0000CA88012A01D0FFF71ABF90F858
:104690001221022A03D0032A05D0FFF712BF0122FC
:1046A0000349FFF72EBF012200F58871FFF729BFEC
:1046B000FC04002038B504460D46E8880090688860
:1046C000010A08296ED2DFE801F06D040C186D6D47
:1046D0006368D4F8EC15A0780A68694690470146EB
:1046E00042E0D4F8E415A0788A6A6946904701460A
:1046F00002204870C4F8F01536E0C0B2062842D255
:10470000DFE800F0030B131B232BD4F8EC15A07883
:104710004A6869469047014626E0D4F8EC15A0782F
:104720008A686946904701461EE0D4F8EC15A078E7
:10473000CA6869469047014616E0D4F8EC15A0789F
:104740000A696946904701460EE0D4F8EC15A07856
:104750004A6969469047014606E0D4F8EC15A0780E
:104760008A69694690470146BDF80000002809D0D3
:10477000EA88002A06D0824200D9024600922046EA
:10478000FFF7BFFE38BD29462046FFF79AFE38BD29
:1047900029462046FFF795FE38BD29462046FFF7FB
:1047A00090FE38BD29462046FFF78BFE38BD00003D
:1047B00090F81221022A03D0032A01D0FFF781BE0C
:1047C00006490122CA60D0F818210AB10322CA6042
:1047D000024902220C31FFF794BE0000F4040020CD
:1047E00010B5D0F8E415096A8847002010BD10B54F
:1047F000D0F8E415496A8847002010BD7CB506460C
:104800000024304601F054F9002849D0304601F028
:1048100065F905460190E8B3280303D53046FCF757
:10482000B9FC0446680303D53046FCF74FFC04434B
:10483000A80703D502200090F1684861002D03DA33
:104840003046FCF703FD0443280503D53046FCF74A
:104850006FFD0443280703D53046FCF75BFD044396
:10486000E80603D53046FCF711FD0443E80403D500
:104870003046FCF797FD0443A80403D53046FCF707
:1048800069FB0443E80203D53046FCF7DDFD044331
:10489000A80200E006E003D53046FCF7E5FD04433E
:1048A00020467CBD00207CBD90F8CC250A7090F895
:1048B000CD254A7090F8CE2590F8CF3502EB032233
:1048C0004A8090F8D02590F8D13502EB03228A80F7
:1048D00090F8D22590F8D33502EB032292B2CA8029
:1048E000C0F84021012180F81111704710B504462D
:1048F0000023402219462046FCF7B4FA0023402248
:1049000080212046FCF7AEFA012084F81201D4F889
:10491000E815A07849688847002010BD10B5044606
:10492000D4F8E80500698047032084F812010020CC
:1049300010BD00000249096800694160002070470D
:10494000F004002010B5D0F8E415C969002900D0A2
:104950008847002010BD70B504468888002801D122
:10496000C88820B12046BDE87040FFF7AABD88780E
:1049700000F07F0594F8120103280DD084F814513B
:1049800029462046FCF7A8FA2046FFF7CAFD45B1A4
:10499000022084F8120170BD2046BDE87040FFF788
:1049A00090BD012084F8120170BD10B50446D4F802
:1049B000E405026820469047D4F8E80580688047FF
:1049C000002010BD70B504460846284D8178297036
:1049D000012905D901462046BDE87040FFF771BDA9
:1049E00094F81221022A07D0032A18D00146204643
:1049F000BDE87040FFF765BD61B184F81011032078
:104A000084F812012046FFF7D0FF2046BDE8704031
:104A1000FFF787BD2046BDE87040FFF782BD91B12A
:104A200094F8100188421BD001462046FFF712FD82
:104A3000297884F810112046FFF7B7FF2046BDE81B
:104A40007040FFF76EBD022084F8120184F8101147
:104A50002046FFF7FFFC2046BDE87040FFF761BD30
:104A60002046BDE87040FFF75CBD0000F404002064
:104A700038B5044648880122012810D0022841D1C7
:104A8000888810F0FF0F3DD1216949680091000A24
:104A9000062829D2DFE800F0280F14191E23C4F8D5
:104AA0001821D4F8E4058268204690472046BDE8E6
:104AB0003840FFF736BD21F070001030009017E04D
:104AC00021F070002030009012E021F070003030B2
:104AD00000900DE021F070004030009008E021F0DF
:104AE00070005030009003E021F070001030009012
:104AF00005480099016084F816212046BDE8384039
:104B0000FFF70FBD38BD0000F00400201CB50446BF
:104B100069462046FFF7C8FE9DF8002012F01F01ED
:104B20000AD001290DD0022910D002F080012046C0
:104B3000FCF7DAF900201CBD6946204600F00BF8AE
:104B4000F8E76946204600F0C9F8F3E769462046D1
:104B500000F026F8EEE710B500244A780A2A1BD2A6
:104B6000DFE802F011171A141A08051A0E0BFFF7E6
:104B7000A1FD13E0FFF7EFFE10E0FFF723FF0DE0CC
:104B8000FFF780FD0AE0FFF713FE07E0FFF770FF75
:104B900004E0FFF766FC01E0FFF793FC204610BD40
:104BA00070B504460D46002629792878C0F34110D7
:104BB000012806D0687880B301282FD003285BD164
:104BC00007E0D4F8E405294682682046904730463D
:104BD00070BD94F81201022806D003280BD0294694
:104BE0002046FFF76EFC47E011B3802944D02046F1
:104BF000FCF77AF940E0688828B921B1802902D011
:104C00002046FCF771F9D4F8E4052946826820466D
:104C100090472046FFF785FC2EE023E094F8120130
:104C2000022806D003280BD029462046FFF749FC6E
:104C300022E009B380291FD02046FCF755F91BE07C
:104C40006888C8B951B1802908D02046FCF7EEF831
:104C5000D4F8E40529468268204690472046FFF7AD
:104C600060FC09E094F81201022807D003280DD057
:104C700029462046FFF725FC304670BD0029FBD0B1
:104C80008029F9D02046FCF72FF9F5E7124A0806EB
:104C90004FF000054FF001030CD501F07F0000EB51
:104CA000800004EBC00090F81E0108B153600BE0D7
:104CB000556009E001EB810004EBC00090F8760339
:104CC00008B1536000E0556003490222091D2046E7
:104CD000FFF717FCD0E70000F404002070B504468D
:104CE0000D46002694F81201032805D029462046D7
:104CF000FFF7E7FB304670BD287901280CD8D4F8BF
:104D0000E4052946826820469047E8880028F1D1CA
:104D10002046FFF706FCEDE729462046FFF7D1FBCA
:104D2000E8E710B500F58970017841700421017041
:104D3000D0F8D604C0688047002010BD70B50D467D
:104D4000194600EB4114012384F89638C4F8A058A2
:104D5000C4F8A42894F8AC28002A06D0022284F8CB
:104D60009C28FDF762F8002070BD002284F89C2882
:104D7000F7E770B50D46194600EB4114002384F89F
:104D80009638C4F8A058C4F8A42894F8AD28002A8E
:104D900006D0022284F89C28FDF747F8002070BD59
:104DA00084F89C38F8E730B402240C7501244C7563
:104DB0000024CC820A834C83150600EB431202D5F3
:104DC00082F8AC4801E082F8AD48002330BC1A46B6
:104DD00000F005B80121C0F8F4170020704770B545
:104DE0000C4611461A460125E078012802D0022817
:104DF00019D105E0204600F005FB0220E07012E02A
:104E0000207F01210D2804D00B2807D00C2808D0C2
:104E100009E0E17000202077002504E0E170022520
:104E200001E0E1700325284670BD70B504460021FD
:104E3000204600F0F1FAE06800258561E168681E0F
:104E40004861204600F03DFBC4F8F457002070BDD7
:104E500070B5044601200C4D002A02D0012A0BD166
:104E600005E02B78EA782046FFF79DFF04E06B7899
:104E7000AA782046FFF797FF044A1169491C11617F
:104E8000042900D9042070BDEC200120A8040020D2
:104E900070B5054601242846FCF7C4FFF8B1124856
:104EA00001782846FCF7B9FF0D2801D0022416E04E
:104EB0000E480F4A0168914210D1A0F120024168CA
:104EC000526891420BD1007B20B1012807D0022803
:104ED00002D004E0002402E0022400E0022403489F
:104EE0001030C473204670BDEC200120CC2001207E
:104EF000555342532DE9F35F0098FCF793FF0028C8
:104F000021D0AD4C0227AD482179AD4D00264FF0A0
:104F100008094FF0070B4FF005084FF0010A092967
:104F200011D2DFE801F0100512498CEAFDFCFB000C
:104F3000A14943781F2230390098FFF71AFF84F8FF
:104F400005A027716E70BDE8FC9F41780098FCF7C2
:104F500060FF01280ED0022824D0042825D0032881
:104F6000F1D16878401CC0B26870032822D2607901
:104F70002071E8E72E6167718F483038017B01F0BE
:104F80008001806858B16860A068A860E8608029E6
:104F900002D004202071D6E703202071D3E784F8E3
:104FA0000480D0E760792071CDE785F800A084F80F
:104FB0000490C8E7E773C6E7814601780098FCF7DC
:104FC00028FF0146012902D06079032823D02E61F1
:104FD00003206071B9F80420686882420ED299F803
:104FE0000030A9680098FFF7A9FEB9F804006968C5
:104FF000091A6960A9680844A860A4E740B182B2B0
:1050000099F80030A9680098FFF798FE6E609AE75B
:1050100084F8048097E7042909D0032993D169789B
:10502000491CC9B26970032907D220718BE72E7021
:1050300084F804B084F8058085E7E77383E7834646
:1050400041780098FCF7E5FE01280ED0022832D006
:10505000042849D003288CD16878401CC0B26870FD
:10506000032848D2607920716DE72E6104206071B9
:10507000BBF806206868824210D29BF80130A9680C
:105080000098FFF776FEA868E860BBF806100844B1
:10509000A8606868401A68606E7054E740B182B2D8
:1050A0009BF80130A9680098FFF763FE6E604AE73D
:1050B00084F8048047E7D5E9021081420AD0BBF8A2
:1050C00006209BF80130009802B0891ABDE8F05F15
:1050D000FFF74FBE9BF80130BBF80620009802B0E6
:1050E000BDE8F05FFFF745BE85F800A084F80490A6
:1050F00084F8058027E7E77325E784F805802E49C3
:105100001039A1603F22A2810C228E54521ED2B2CD
:10511000002AFAD10E7003783F2202E03FE02BE034
:1051200006E00098FFF70AFE062020716E700AE77D
:1051300001780098FCF76DFE01280CD0042815D0EA
:10514000032891D16878401CC0B26870032811D23E
:1051500060792071F7E62E6184F80580A0782070D0
:10516000DDE90001FFF794FEE073ECE62E7084F8B1
:1051700004B0E8E6E773E6E6DDE900010022FFF7A8
:1051800067FE18B1042888D1E773DCE62878022886
:1051900002D060792071D6E684F80490D3E6DDE988
:1051A00000010122FFF754FE18B10428A2D1E773D1
:1051B000C9E660792071C6E6DC200120EC200120E0
:1051C000A80400202DE9FF4F81B083460E461F46FC
:1051D000304C4FF0030884F800805846FCF722FE5C
:1051E000C8B32D4A01254FF0020AD0784FF00009CC
:1051F000012802D0022849D12EE028498F60802062
:1052000008730A20887396600F200B1883F80F909C
:10521000401EC0B20028F8D12820C8739DF80F00A6
:1052200048749DF80E0088749DF80D00C8749DF8B0
:105230000C000875780A00909DF8010088759DF8AB
:105240000000C87515710720107082F80F8082F871
:1052500003A084F8008019E0D07B164638B9584680
:10526000FCF7E0FD18B1F57084F800900EE0F07BDB
:10527000012805D15846FCF7D5FD08B1F57005E0C9
:10528000F07B022802D1F57084F800A0207805B0E8
:10529000BDE8F08FBD040020DC200120AC200120FF
:1052A000FFB581B00F461D460324FCF7BBFD98B344
:1052B000224E0123F078012802D002283BD12CE0B5
:1052C0001F4A9560002414730A209073B7600F2062
:1052D0001118CC73401EC0B20028F9D12A20D07317
:1052E0009DF80F0050749DF80E0090749DF80D000D
:1052F000D0749DF80C001075680A00909DF80100AC
:1053000090759DF80000D075337107203070032030
:10531000F0730220F07003240DE0F07B20B101282F
:1053200005D0022805D006E0F370002403E0F370F6
:1053300001E0F370022405B02046F0BDDC2001201E
:10534000AC20012038B505460024002000902846F6
:1053500000F0BDFB002847D0284600F0BFFB0090BE
:10536000009808B9002038BD0098C0F3C00018B1FB
:10537000284601F0ADFA04430098C0F3001018B1BC
:10538000284601F0F2F904430098C0F3401018B128
:10539000284601F01EF804430098C0F3806018B15D
:1053A000284601F04BF904430098C0F3406018B15F
:1053B000284600F0F8FB04430098C0F3006018B1E1
:1053C000284601F09DF804430098C0F3407018B1DE
:1053D000284600F0AFFB04430098C0F3405018B1DA
:1053E000284600F0BDFB04432046BCE70021C0F87E
:1053F000F817002070470121C0F8F8170020704707
:105400000020704703784370082303708160828115
:1054100001210177002070472DE9FC41002403267B
:10542000174F4FF48065002917D001214020FDF768
:1054300075F900958DF8056001228DF804208DF82E
:1054400006208DF8074069463846FCF789FC294656
:105450003846FCF7DAFCBDE8FC8101214020FDF76D
:105460005DF900958DF805608DF804408DF80640D3
:105470008DF8074069463846FCF772FCEBE7000000
:105480000018024010B501218C072046FEF768FE87
:10549000002809D001212046FEF753FE06490A687C
:1054A0001AB10868401E086010BD2046BDE81040D3
:1054B0000021FEF749BE00008C0400200221FBF70A
:1054C000F1B90022C068816821F0010181601046B5
:1054D00070471EB50024002100910169896802917E
:1054E00083691A680192C1F34101002911D0012991
:1054F0000FD0022911D003290BD0D10AC902019182
:10550000019919600069416841F480714160204649
:105510001EBDD10AC9020191F2E7D10AC902C91C14
:105520000191EDE7FCB500260022019200924A7835
:105530004B69012A16D00A7800EB8204626D156867
:10554000019512690092EBB38B684B6163F306021D
:1055500042F400220092636D009A1A61C278012A17
:1055600041D046E0826917680197146900943BB105
:105570008D68AB420AD94D6165F30604009408E0DA
:1055800024F07F0343F40023009306E063F3060452
:105590000094009B43F400230093009B1361C378A5
:1055A000012B05D10C780B6900EB8404A4696361BD
:1055B00047F0806343F0004301931360C27812BB4D
:1055C0004A6900E008E0F2B10A78012191400069DF
:1055D000426B0A43426316E00B7A63F3060242F41D
:1055E00000220092B7E70B780A6900EB83035B6D3A
:1055F0005A6145F0806242F000420192097800EB66
:105600008100406D02603046FCBD00000CB50949C8
:105610000191426D1161C178012909D1426D00F2F9
:10562000CC515161416D08684FF0802000900860B6
:105630000CBD0000180008607CB500250022019216
:1056400000920C784E780123A34000EB8402012ED7
:105650001CD0526DADF80230136801931C040ED4B7
:105660000C8964F30A03CC7864F39343897961F37A
:10567000995343F0805141F4004101911160006958
:10568000C169009A1143C16128467CBD9269ADF899
:105690000030E1E718B503460020002200924C7864
:1056A0000A78012C03EB82020AD0526D136823F4AE
:1056B00000130093C978032904D0022902D004E022
:1056C0009269F3E743F0805100910099116018BD91
:1056D00008B502460020002300934B780978012B7F
:1056E00002EB810106D0496D0A6842F40012009273
:1056F0000A6008BD8A6911680091002902DA41F048
:1057000080410091009941F400110091116008BDA1
:10571000FEB500250022029201924C780B784A696E
:105720004FF0010C00EB8303012C1DD05C6D26684B
:10573000029624690194002A76D08F683A44521E5A
:10574000B2FBF7F262F3DC44C4F3C9427A4362F37A
:1057500012040194C4F312024A615B6D019A1A614A
:10576000C278012A67D06CE09B691E6802961C69AA
:1057700001946AB162F312048F683A44521EB2FB7C
:10578000F7F262F3DC440194CA78012A06D00AE0F9
:10579000E20CD2046CF3DC42019204E024F0C0423B
:1057A00002F100520192019A1A61C278012A10D0C6
:1057B000CA78012A09D04A693AB10A780CFA02FC7F
:1057C0000269536B43EA0C035363CA78012A07D07A
:1057D0000FE00B780A6900EB83039B695A61F4E7D9
:1057E000026992680092120AD20711D046F08052E4
:1057F0000292029A42F0806242F0004202920B78DA
:1058000000EB83039B691A60CA78012A04D02FE059
:1058100046F000520292ECE78A8A93B20A78C9688D
:1058200001F06CF824E0FFE78A6862F312046CF37D
:10583000DC44019491E70B780A6900EB83035B6D0C
:105840005A61CA78012A08D14A791AB146F0005241
:10585000029202E046F080520292029A42F0806286
:1058600042F000420292097800EB8100406D026034
:105870002846FEBD38B50025002200230093009B7A
:1058800043F020030093009B61F38A130093009977
:10589000C3681961074BC1680C690094521C9A4295
:1058A00002D8009CA006F7D40320FFF707FE284685
:1058B00038BD0000400D030008B500698068009005
:1058C000C0F34100002807D0012807D0022807D0E4
:1058D000032803D0022008BD032008BD022008BD14
:1058E000012008BDC068406900F00100704710B594
:1058F000034600204FF00042012464F3DC4203EB36
:10590000810151F8903F1A6109680A6842F000422B
:1059100022F080420A6010BD30B586B0002400221B
:105920000392019200EB8103D3F89020116841F0BB
:105930008041009111F4402F0BD0C1F38145022D1D
:1059400007D0406900690190019810F47F0F0CD0D6
:105950000FE0C068C06A0390039810F47F0F08D16D
:1059600021F000400090106003E021F00040009022
:105970001060009840F00040D3F89010086006B026
:10598000204630BDF0B588B0054600264FF4807C37
:10599000002206920792009205EB4114D4F8A478F5
:1059A000002F0DD0B4F89A38F818401EB0FBF3F071
:1059B00080B2604505D960461B02C4F8A43800E0F7
:1059C000012094F8963823B1B4F89A384343C4F8C8
:1059D000A438D4F8A43863F3120260F3DC4294F8DC
:1059E0009C0860F35E72069205EB8103D3F8900089
:1059F0000261E878012804D1D3F89020D4F8A008F7
:105A0000506153F8900F0268284600F05AF860F38E
:105A10005D7242F0004020F0804007901A681060EC
:105A2000E878E0BB94F89608C8BBD4F8A438B3B3C0
:105A300094F8990830B1012815D0022802D0032823
:105A400023D110E0E868C26A0392DB1CC3F38F0223
:105A5000039B9BB2934218D220220092826942F0AB
:105A60002002826111E0686900690190DB1CC3F3C8
:105A70008F00019A92B2824207D24FF0806000906C
:105A8000E868826942F080628261B4F8A4080A463C
:105A900083B2D4F8A0080146284600F02FFF08B0D2
:105AA0003046F0BD4069026861F301020260704750
:105AB00000B5FFF717FF012801D0012000BD00202D
:105AC00000BD4069806840F30000401C704700B58D
:105AD000FFF708FF012800D0002000BDC068416921
