:020000040800F2
:10000000B8EC01205D0200087D3D00080D340008B9
:100010005D3D0008010F00084DAD00080000000024
:10002000000000000000000000000000D561000892
:10003000E51E000800000000BD4100089D620008A8
:1000400077020008770200087702000877020008AC
:10005000770200087702000877020008770200089C
:10006000492E00087702000877020008770200088E
:100070007702000877020008B91B0008E51B00089A
:1000800077020008770200082F0C000877020008AA
:10009000210F0008770200087702000877020008A5
:1000A000770200087702000877020008770200084C
:1000B000D5630008D96300087702000877020008BA
:1000C000770200087702000877020008770200082C
:1000D0007702000853660008576600085B66000850
:1000E000152E000877020008770200087702000842
:1000F00077020008770200087702000877020008FC
:1001000077020008D94F0008DD6300087702000875
:10011000770200087702000877020008E163000810
:10012000770200087702000877020008111C000817
:1001300077020008770200087702000877020008BB
:10014000770200087702000877020008293E0008BD
:10015000770200087702000877020008770200089B
:10016000770200087702000877020008770200088B
:10017000770200087702000877020008770200087B
:100180007702000877020008DFF80CD000F0C4FC0A
:1001900000480047AD3C0108B8EC01202C4B196821
:1001A0000868B0E8F04F80F30988BFF36F8F4FF015
:1001B000000080F3118870470000000008480068C4
:1001C000006880F308884FF0000080F3148862B65E
:1001D00061B6BFF34F8FBFF36F8F00DF00BF00BF6B
:1001E00008ED00E0DFF80C00016841F470010160E7
:1001F000704700BF88ED00E0EFF30980BFF36F8F19
:10020000134B1A681EF0100F08BF20ED108A20E96A
:10021000F04F106009B44FF0500080F31188BFF325
:100220004F8FBFF36F8F1BF04DF94FF0000080F33D
:10023000118809BC19680868B0E8F04F1EF0100F6B
:1002400008BFB0EC108A80F30988BFF36F8F704746
:1002500038090020EFF3058070470000064880470A
:1002600006480047FEE7FEE7FEE7FEE7FEE7FEE79B
:10027000FEE7FEE7FEE7FEE7AD6200088901000841
:100280002DE9F05F0546002092469B4688460646CB
:10029000814640241BE0284641464746224600F05E
:1002A00021FA53465A46C01A914110D311461846B6
:1002B000224600F008FA2D1A67EB01084F46224645
:1002C0000120002100F0FFF917EB00094E41201E2C
:1002D000A4F10104DFDC484631462A464346BDE826
:1002E000F09F2DE9FE43994615468846074601AC26
:1002F000022942D3002D40D000200290A8F1010035
:100300004FF0FF36009022E000FB057201FB057004
:1003100011464A469047002805DC54F82600304430
:1003200044F8260013E060682A4600FB057154F883
:10033000040C00FB057007E00B7890F800C001F892
:1003400001CB00F8013B521E002AF5D1764254F849
:10035000040C61688842D7DC4B462A463846FFF7D2
:10036000C0FF54F8040C4B46A8EB0001401C00FBF6
:1003700005702A46491EFFF7B4FFBDE8FE8310B59D
:10038000431A934209D28318881803E010F8011D1C
:1003900003F8011D521EF9D210BD40EA01039B076C
:1003A00003D009E008C9121F08C0042AFAD203E0EA
:1003B00011F8013B00F8013B521EF9D210BDD2B238
:1003C00001E000F8012B491EFBD270470022F6E73E
:1003D00010B513460A4604461946FFF7F0FF2046BB
:1003E00010BD421E12F8013F002BFBD111F8013B5A
:1003F00002F8013B002BF9D1704710B5044604E028
:100400000B7800F8013B03B1491C521EF8D220467C
:1004100010BDCAB2401E10F8011F8A4202D0002946
:10042000F9D100207047421C10F8011B0029FBD1B4
:10043000801A704710B5002200E0521C835C8C5C6F
:10044000A34201D1002BF8D1D8B2E1B2401A10BDBD
:1004500030B504460020034600E05B1C934203D203
:10046000E05CCD5C401BF8D030BD034611F8012B99
:1004700000F8012B002AF9D1184670472DE9F05FEA
:1004800093460F468046044600260AF0A7FCD0F8A3
:100490000090824614F8015B2DB100F045F9006828
:1004A000405DC007F6D12B2D02D02D2D1AD0641E31
:1004B0000021CAF800105A463946204600F038F9A3
:1004C000014627B13868A04201D1C7F80080DAF8A8
:1004D0000000022809D0CAF80090700505D54842EE
:1004E000BDE8F09F46F48066E2E70846F8E72DE9AC
:1004F000FE4F804681EA0300C00F0C46009021F0B9
:10050000004123F00045B8EB0200A94105D2404666
:10051000214690461C460B46024623F000401043FD
:1005200047D0270DC7F30A00C3F30A510290401ABF
:10053000019040286BDAC3F3130040F4801B00984D
:10054000924620B10023D2EB030A63EB0B0B019818
:100550005946C0F14002504600F0B5F806460D4637
:1005600050465946019A00F0CDF810EB0800614161
:10057000002487EA115284EAE7731A4340D0009AB4
:1005800062B3019A012A4FEA075215DC001B61EBA6
:1005900002014FF0004202EA0752CDE90042001C7E
:1005A00041F5801132462B4600F057F903B0BDE803
:1005B000F08F40462146F9E7001B61EB0201001C69
:1005C00041F5801300185B412018A2F5001747EB96
:1005D000030140EAD570B6196D4111E06D084FEA8C
:1005E000360645EAC0754FEA0752001B61EB02016F
:1005F000001C41F5801149084FEA300000195141B3
:1006000032462B4603B0BDE8F04F00F017B9009812
:10061000012240000023D0EB020263EBE07300985C
:1006200021464FEAE074B8EB000061EB0401E9E712
:1006300083F000435BE781F0004158E700F000429F
:1006400030F000400AD0C10D01F56071C0F3160012
:1006500042EA0151C2084007114370470020014699
:10066000704701F0004330B421F0004150EA01022C
:1006700006D00A0DA2F56072C1F31301002A02DC54
:1006800030BC00207047440F44EAC104C100E018A8
:1006900030BC00EBC25000F09AB830B50B460146B2
:1006A00000202022012409E021FA02F59D4205D311
:1006B00003FA02F5491B04FA02F52844151EA2F1BB
:1006C0000102F1DC30BD202A04DB203A00FA02F1FD
:1006D000002070479140C2F1200320FA03F3194330
:1006E00090407047202A04DB203A21FA02F00021D2
:1006F000704721FA02F3D040C2F120029140084332
:1007000019467047202A06DBCB17203A41FA02F03F
:1007100043EAE07306E041FA02F3D040C2F120025E
:100720009140084319467047004870477CA204086E
:100730002DE9F05F82460078002715468B460AF1C6
:100740000104B946302801D09DB113E014F8010B23
:100750000127782803D0582801D045B10AE00DB10F
:10076000102D07D10027102514F8010B02E00825F1
:1007700000E00A250026B0460EE005FB080005FB58
:1007800006F1012701EB10461FFA80F8B6F5803F0D
:1007900000D3B94614F8010B294600F0CFF9002820
:1007A000EBDABBF1000F05D00FB1641E00E0544638
:1007B000CBF80040B9F1000F06D00AF00FFB022180
:1007C0000160C81EBDE8F09F48EA0640FAE700292C
:1007D000A8BF7047401C490008BF20F001007047C7
:1007E00010B4B0FA80FC00FA0CF050EA010404BF27
:1007F00010BC704749B1CCF1200421FA04F411FA7D
:100800000CF118BF012121430843A3EB0C01CB1DC0
:100810004FEA00614FEA102042BF002010BC704731
:1008200000EBC35010440029A4BF10BC7047401C0B
:10083000490008BF20F0010010BC704710B5141E1D
:1008400073F1000408DA401C41F1000192185B4189
:100850001A4301D120F0010010BD2DE9F04D924660
:100860009B4611B1B1FA81F202E0B0FA80F2203277
:100870009046FFF728FF04460F4640EA0A0041EA87
:100880000B0153465A46084313D0114653EA010060
:1008900019D0C8F140025046FFF724FF05460E4626
:1008A000504659464246FFF70EFF084305D0012047
:1008B00004E020463946BDE8F08D0020054346EAB5
:1008C000E0762C4337430A986305E40AA0EB08005E
:1008D0000022FD0A44EA47540A3002D500200146AE
:1008E000E9E7010510196941DDE908450019694189
:1008F000BDE8F04DA2E72DE9FE4F81EA030404F0C4
:10090000004421F0004100944FF0000B23F000431D
:1009100050EA01045ED052EA03045BD0C3F30A54E8
:10092000C1F30A552C44A4F2F3340194A0FB025401
:10093000C1F3130141F48011C3F3130343F4801393
:1009400001FB024400FB034E840A970A44EA8154E7
:1009500047EA8357A4FB076802958D0A05FB0785C4
:100960004FEA932C04FB0C542705029D4FEA0658CE
:1009700047EA1637B5EB08056EEB070C870E920EAB
:1009800047EA811742EA8312A7FB0201B6EB0B018B
:1009900064EB00042B0D43EA0C335E1844EB1C504F
:1009A000DA465146E7FB0201C5F313044FEA0B3365
:1009B00043EA14534FEA0432019C43EA0603A4F1CC
:1009C0000C040294009CCDE900B4FFF746FF03B08D
:1009D000BDE8F08F00200146F9E72DE9F04D81EAEE
:1009E000030404F0004B21F0004514464FF0000AC8
:1009F00023F0004150EA050220D054EA01021DD044
:100A0000C5F30A570246C5F31303C1F31300C1F33C
:100A10000A5640F4801543F48013A7EB0608101B18
:100A2000D64608F2FD3873EB050002D308F1010841
:100A300001E092185B41B8F1000F03DA0020014693
:100A4000BDE8F08D00204FF48011064684460EE08C
:100A5000171B73EB050705D3121B63EB0503064356
:100A60004CEA010C49084FEA300092185B4150EA09
:100A70000107EDD152EA030012D082EA040083EAB2
:100A80000501084305D0101BAB4106D2012200230B
:100A900006E000224FF0004302E06FF00102531025
:100AA0001AEB06004CEB085110EB0A0041EB0B016E
:100AB000BDE8F04DFFF7C2BEC1F30A52C1F3130106
:100AC00040F2FF3341F480119A4202DA00200146DD
:100AD000704740F233439A42A2F2334202DC524260
:100AE000FFF700BEFFF7EFBD30B5041E71F1000443
:100AF00004DB4FF00044404264EB0101141E73F12B
:100B0000000405DB1C464FF00043524263EB040334
:100B1000994208BF904230BD064C074D06E0E068A0
:100B200040F0010394E8070098471034AC42F6D334
:100B3000FFF72EFB44A6040884A604083A2800D236
:100B4000303820F02002412A01D3A2F13700884238
:100B500001D34FF0FF30704770B58C1810F8015B6F
:100B600015F0070301D110F8013B2A1106D110F846
:100B7000012B03E010F8016B01F8016B5B1EF9D14A
:100B80002B0705D40023521E0DD401F8013BFAE7D0
:100B900010F8013BCB1A921C03E013F8015B01F83B
:100BA000015B521EF9D5A142D8D3002070BDC943C4
:100BB00001607047090AC94301607047002904D0E9
:100BC000816841F0010181607047816821F0010175
:100BD0008160704710B5074C226807490A40D0E988
:100BE00000131943D0E90230034319431143216034
:100BF00010BD000004230140E030FCFFC06C80B257
:100C000070470246002012680A4200D00120704757
:100C100030B5024600200B0A546801258D402C4057
:100C20001168194202D0002C00D0012030BD13F011
:100C3000A1B8000030B542680F4B1A400C790B6820
:100C400042EA04221343436083680C4A1340D1E90B
:100C5000034222434D798C6844EA450422431A43F7
:100C60008260C26A22F47002097D491EC9B242EA5A
:100C70000151C16230BD0000FFFEFFFCFDF7FFC067
:100C800070B5072609290AD9C568A1F10A0404EB41
:100C90004404A640B543A3401D43C56007E0056971
:100CA00001EB4104A640B543A3401D4305611F234A
:100CB000072A09D2446B521E02EB820293409C43E6
:100CC00091400C43446370BD0D2A09D2046BD21FBE
:100CD00002EB820293409C4391400C43046370BD3D
:100CE000C46A0D3A02EB820293409C4391400C434C
:100CF000C46270BD816841F080418160704700002E
:100D00000849002806D0D1F8040340F40000C1F8D7
:100D100004037047D1F8040320F40000C1F8040371
:100D2000704700000020014010B5074C20600846C5
:100D300000F00CF820680028FCD1BDE8104000212C
:100D40004FF0804005F060BB640600203EB50446CD
:100D50004FF080450021284605F056FB0022012176
:100D6000284605F0A5FB022C02D0012C03D005E09B
:100D70000B20019002E042F6DF6001900520ADF803
:100D800000000020ADF80800ADF8020069462846D2
:100D900005F012FC0121284605F033FB012128460D
:100DA00005F020FB01221146284605F081FB0121B8
:100DB000284605F029FB3EBD2DE9F04190B00746DD
:100DC0000C4615461E460121880503F0F9F9DFF8A7
:100DD0004880404600F056FF4FF0007001900F48E9
:100DE00002900397002004900594069007954FF415
:100DF00080510891099609110A9149020B91042129
:100E00000C9103210D910E900F9001A9404601F025
:100E10003FF810B0BDE8F08128640240280005507A
:100E20002DE9FC410121172003F0CAF9304C0D22B5
:100E30000421204602F05CFA0D220621204602F031
:100E400057FA0D220921204602F052FA294D0D22AF
:100E50000621284602F04CFA0D220721284602F00E
:100E600047FA254E0D220721304602F041FA234F62
:100E70000D220021384602F03BFA0D2201213846AE
:100E800002F036FA0D220421384602F031FA0D2222
:100E90000521384602F02CFA0D220621384602F0D0
:100EA00027FA4FF41471009102218DF804100321E8
:100EB0008DF8051000218DF8061001208DF807002F
:100EC0006946204602F0D6F9C020009069462846BF
:100ED00002F0D0F9802000906946304602F0CAF94D
:100EE000732000906946384602F0C4F9BDE8FC81E1
:100EF00000000240000402400008024000100240CE
:100F000002A101201AF00AFCFEE7000042757346B8
:100F100061756C745F48616E646C65720D0A0000E7
:100F200012F0C0BF10B500EB0113D3F8B04104F0CC
:100F300004041472002C2CD0D3F8B041E40854609F
:100F400003F5D8731C6804F0020454725C6804F062
:100F50000F0494725C68240AD4749C68D4729C68F0
:100F6000240A14739C68240C54739C68240E947394
:100F7000DC68D473DC68240A1474DC68240C5474B0
:100F8000DB681B0E937449B1016941F020010161D6
:100F900010BDD3F8B041640D1460D1E7C16841F0D1
:100FA0002001C16010BD000010B5224CA0780028BF
:100FB00009D001283CD1E078062832D2DFE800F0E1
:100FC0001C232A2A2A2AE07840B101280DD00020CB
:100FD00003F062F8BDE8104003F09AB8002003F077
:100FE0005BF8BDE8104003F093B8012003F054F81B
:100FF000BDE8104003F0A4B8002002F027FFBDE8D0
:10100000104002F0EBBF012002F020FFBDE81040CD
:1010100002F0FEBF02F01AFFE078BDE8104002F0D7
:1010200055BF002002F012FFBDE8104002F0D6BF0D
:1010300010BD00003C04002070B500254FF4803442
:1010400000E0641E24B1802003F0A0FF0028F8D047
:101050002CB140F2FF5003F057FF284670BD03202B
:1010600070BD000070B5054600243B49086800E0EB
:10107000086810F0450FFBD0410705D50324042074
:1010800003F042FF204670BDC00705D001240120B7
:1010900003F03AFF204670BD03F072FFA84201D072
:1010A000102070BD40F2FF5003F02EFF002003F02F
:1010B00089FF2A49084201D1204670BD002801DA83
:1010C0001C2070BD410001D5092070BD810001D5F3
:1010D0000A2070BDC10001D50B2070BD010101D5F2
:1010E0000C2070BD410101D50D2070BDC10101D59D
:1010F0000E2070BD010201D50F2070BD410201D547
:10110000102070BD810201D5112070BDC10201D532
:10111000122070BD010301D5132070BD410301D51C
:10112000142070BD810301D5152070BDC10301D508
:10113000162070BD010401D5172070BD410401D5F2
:10114000182070BD810401D5192070BD000701D59C
:101150001A2070BD204670BD342C014008E0FFFD10
:1011600010B500240E4A116800E0116811F0450F17
:10117000FBD0480705D50324042003F0C5FE204614
:1011800010BDC80705D00124012003F0BDFE204694
:1011900010BD40F2FF5003F0B7FE204610BD000026
:1011A000342C014010B500240A4A116800E011688F
:1011B00011F0450FFBD0480705D50324042003F0A8
:1011C000A3FE204610BD40F2FF5003F09DFE2046D6
:1011D00010BD0000342C014070B506460C460025B9
:1011E0001C4A106800E0106810F0450FFBD0410762
:1011F00005D50324042003F087FE204670BDC007F8
:1012000005D00124012003F07FFE204670BD03F0CD
:10121000B7FEB04201D0102070BD40F2FF5003F085
:1012200073FE002003F0CEFE10F4604F03D0810463
:1012300005D5132070BD000C2080284670BD4104E8
:1012400001D5102070BD000401D50F2070BD2846C7
:1012500070BD0000342C014010B500204FF48031E7
:101260000D4B1A6801E0491E1A6812F0450F01D1B2
:101270000029F8D109B1510705D50324042003F052
:1012800043FE204610BD5106FCD50024402003F04B
:101290003BFE204610BD0000342C01400122064BCD
:1012A0008240002903D018681043186070471868FE
:1012B00090431860704700000074004030B5084C3F
:1012C000236840F6FE7282409343D1E900252A4309
:1012D000D1E902510D432A4382401A43226030BDB6
:1012E0000074004008B5034A104414300090009880
:1012F000016008BD007400400069416841F00201CE
:101300004160032007F080BE10B50B4603F07F025A
:1013100002EB82011C0600EBC10102D501F58E71C2
:1013200001E001F55D710A70DA094A7008F018F9F8
:10133000002010BD10B50A46110602F07F0306D545
:1013400003EB830100EBC10101F58E7105E002EBB7
:10135000820100EBC10101F55D7100248C700B70FE
:10136000D2094A7008F0DEF8002010BD10B50A0658
:1013700004D501F07F0108F065FA01E008F044FAB5
:10138000002010BD70B50D4605F07F0404EB84010C
:101390002E0600EBC10102D501F58E7101E001F5C9
:1013A0005D710C70ED094D708A60CB7005B1CC8019
:1013B000022B01D100220A7108F086F8002070BDCE
:1013C00010B501F07F0404EB840100EBC10101F5CD
:1013D0005D71CA604B6100238B614B700C70C378E8
:1013E000012B00D10A610A781AB108F0F4F8002044
:1013F00010BD07F0E0FFFAE7002261F30A1200696E
:10140000016811430160704710B50A46110602F0E9
:101410007F0306D503EB830100EBC10101F58E715B
:1014200005E002EB820100EBC10101F55D710124D1
:101430008C700B70D2094A7008F0ADF8002010BD16
:1014400070B501F07F0404EB840100EBC10101F5EC
:101450008E7101254D700C70CA600A6100228A618C
:101460004B61002C03D008F0B6F8002070BD07F0E7
:10147000A2FFFAE770B586B00646304607F072FF65
:1014800001A802F013FF029DF068C16821F47054B6
:101490000594C460304608F0F7F90146002003299E
:1014A0000ED00120B0704020B0803E483E49284414
:1014B00088420FD224F4705000F56050059066E029
:1014C000B0704FF40070B08024F4705000F51050EC
:1014D00005905CE0354836492844884205D224F41A
:1014E000705000F55050059051E032483249284480
:1014F000884205D224F4705000F54050059046E033
:101500002E482F492844884205D224F4705000F513
:10151000305005903BE02B482B492844884205D2A7
:1015200024F4705000F52050059030E027482849F9
:101530002844884205D224F4705000F510500590DC
:1015400025E0244824492844884205D224F47050D8
:1015500000F5005005901AE02048214928448842AF
:1015600005D224F4705000F5E05005900FE01D48BE
:101570001D492844884205D224F4705000F5C0501B
:10158000059004E024F4705000F5A0500590F16837
:101590000598C8604FF40050F168486106B001201A
:1015A00070BD0000401E1BFF40420F0000DC0BFF1F
:1015B000E0C810002013FBFE20D61300003DE7FE1C
:1015C000006A180000D3CEFE40771B00C05BB3FE5C
:1015D000C091210000CA91FE40AC2700C01D6AFEE8
:1015E00040E13300803C36FEE09C4100F8B5054602
:1015F000002400200090284608F001FB064652E037
:10160000F0074ED0E1B2284600F012FA0090C00771
:101610001CD0012101FA04F22869436B9343436310
:10162000009105EB8400806981602148E1B2006887
:10163000426828469047E878012807D134B995F8E0
:101640001101042802D1284607F028FF009800075E
:1016500005D50820009005EB840189698860009811
:10166000C00605D51020009005EB840189698860CB
:101670000098400605D54020009005EB840189695B
:1016800088600098800705D50220009005EB840152
:10169000896988600098000603D52146284600F035
:1016A000D5F9641C7608002EAAD10120F8BD0000EF
:1016B000B80700202DE9FC410546002400200190D8
:1016C000284608F0A2FA0646274F47E0F00743D025
:1016D000E1B2284608F09FFA0190C00726D0012108
:1016E000019105EB8400426D9160E97801290DD1EB
:1016F000406D0069009004EB840105EBC101C0F36B
:101700001200D1F87C23101AC1F88C033868E1B2BA
:10171000026828469047E878012807D134B995F83F
:101720001101052802D1284607F0B8FE019880076C
:1017300005D50220019005EB8401496D8860019870
:10174000000709D538688168284688470820019035
:1017500005EB8401496D8860641C7608002EB5D1C4
:101760000120BDE8FC810000B807002038B5044620
:10177000A07A002808D0D4F80C01016821F00201F9
:1017800021F00101009101602069416821F001010F
:101790004160054800688169204688474FF0004055
:1017A000E1684861012038BDB80700207CB50546D6
:1017B00010200190E868816921F010018161E868DA
:1017C000006A009000F00F0101EB810105EBC104FC
:1017D00004F55D74C0F34341072923D2DFE801F02B
:1017E000222204222222160047F6F071084219D064
:1017F000C0F30A1632462846E16808F023FAE0688A
:101800003044E060A0693044A0610BE0082205F29A
:10181000CC51284608F016FA0099A069C1F30A11C4
:101820000844A061E868816941F0100181610120EC
:101830007CBD000010B50446044920460968C9680B
:1018400088470821E0684161012010BDB8070020E9
:101850001FB504460020009094F81201009017482C
:1018600000684169204688472069806801904FF4EC
:1018700000610391E2685161A17AE1B1C0071AD019
:1018800094F81501012816D19DF80000032812D103
:10189000D4F80C01016841F00101016003200290BD
:1018A000D4F80C01016841F00301016004480168AB
:1018B00041F00601016004B0012010BDB80700200E
:1018C00010ED00E070B586B004460025059504953E
:1018D000039502950095012601962069416821F043
:1018E000010141600021204607F0ACFF0020FF22EB
:1018F00006E004EB80018B699A60496D8A60401CA8
:1019000061788142F5D821694FF0FF308861ADF8E8
:101910001460ADF8166021690598C86145F00800AB
:1019200040F0010040F002002169486145F00100EB
:1019300040F0080040F00200216908612069016858
:1019400021F4FE610160204607F0A8FD4FF48050AD
:10195000E16848610348006801692046884706B08D
:10196000012070BDB807002070B50446204608F07D
:101970008FF9012584F81251002084F81401002207
:1019800040230DE002EB820104EBC10101F58E71F1
:101990004D700A70CA80C8708B60C8604861521C64
:1019A00061789142EED800220DE002EB820104EB57
:1019B000C10101F55D7148700A70CA80C8708B6002
:1019C000C8604861521C61789142EED8204607F009
:1019D0009DFC204607F01EFB0021204608F0B8F9C8
:1019E000204607F069FB2046BDE8704007F0DEBEE8
:1019F00010B50446054920460968C96988474FF46F
:101A00008011E0684161012010BD0000B80700208E
:101A100010B50446054920460968096A88474FF40D
:101A20000011E0684161012010BD0000B8070020EE
:101A300002691369526BCA4002F0010243EAC21202
:101A400000EB810080698068104070472DE9F84301
:101A500006460F460020009007EB870006EBC00407
:101A600004F58E74D4E90501401AA168814200D2C0
:101A70000846C01C4FEA900906EB8708D8F8180002
:101A80008069009021E0D51AA268AA4200D21546CA
:101A9000E81C4FEA9009ABB2FAB23046E16809F0AF
:101AA0009FF8E0682844E060A0692844A061D8F865
:101AB0001810896900916169814206D1207801215D
:101AC00081403069426B8A434263009880B2484546
:101AD00005D9D4E90523934201D2002AD3D10120AC
:101AE000BDE8F8830649002804D0086840F00100EA
:101AF00008607047086820F0010008607047000027
:101B0000000005500649002804D0086840F48040D1
:101B100008607047086820F4804008607047000043
:101B20000000055030B50D490A6844F201039A439C
:101B30000A600A6840F6F2739A4303884488C588AD
:101B4000234384882C432343048923434489808985
:101B50002343034313430B6030BD000000000550D6
:101B60001CB50121102002F02BFB0C20009002205C
:101B70008DF8050001208DF8040000218DF8061075
:101B80008DF807000B4C6946204601F073FB0421D9
:101B9000204601F0C7FB0A2000F0B2F908212046D8
:101BA00001F0C0FB0A2000F0ABF90821204601F04B
:101BB000BBFB1CBD0010024070B5084C084D21460F
:101BC000284600F021F9012807D12146284600F0D7
:101BD00037F8BDE8704012F0E1BE70BD008000181B
:101BE0005860024070B5084C084D2146284600F068
:101BF0000BF9012807D12146284600F021F8BDE85D
:101C0000704012F0F5BD70BD208000207060024071
:101C100003F072BF074A904201D2074801E005482D
:101C20001038064A8B0001EA020101D5C1607047F5
:101C30008160704710640240006002407D0F7D0F9C
:101C4000074A904201D2074801E005481038064A89
:101C50008B0001EA020101D5C160704781607047C5
:101C600010640240006002407D0F7D0F002904D007
:101C7000016841F0010101607047016821F0010134
:101C8000016070472DE9F043016821F00101016016
:101C90000021016041608160C160016121214161D9
:101CA0003E493E4A10394FF03D08904203D1C1F8F9
:101CB0000880BDE8F083394A4FF4746518329042C9
:101CC00001D18D60F5E7354A4FF4741630329042F9
:101CD00001D18E60EDE7314A4FF07467483290428F
:101CE00001D18F60E5E72D4B2D4A6033984201D139
:101CF000CA60DEE7294C2B4B7834A04201D1CB607F
:101D0000D7E7DFF898C0284C0CF1900C604501D162
:101D1000CC60CEE7DFF884904FF03D5C09F1A80974
:101D2000484502D1C1F80CC0C3E72049DFF87C90D8
:101D30000839484502D1C1F80080BAE7DFF86C8065
:101D400008F11808404501D10D60B2E7174D303554
:101D5000A84201D10E60ACE7144D4835A84201D12C
:101D60000F60A6E7114D11496035091FA84201D146
:101D70000A609EE70D4A7832904201D10B6098E7E5
:101D80000A4A9032904201D10C6092E7074AA83289
:101D900090428ED1C1F800C08BE700001060024075
:101DA0003D000020400F002000003D201064024054
:101DB000002904D0016841F4802101607047016866
:101DC00021F4802101607047002A04D0026842F4A7
:101DD0000022026003E0026822F400220260016136
:101DE0007047002904D0016841F02001016070476C
:101DF000016821F020010160704701460020096858
:101E0000C90700D00120704730B500240F4A904226
:101E100001D20F4A01E00D4A103A0E4B194205D08B
:101E20001E2303EAD12503682B4002E0406900F03D
:101E30008003880001D5506800E01068064A104011
:101E4000084201D003B10124204630BD1064024095
:101E5000006002403C0F3C0F7D0F7D0F0B0609D543
:101E600022B1436943F08003436103E0436923F0F7
:101E700080034361802905D001F01E011AB1026878
:101E80000A430260704702688A430260704700009C
:101E900030B50368124A1340CC680A682243D1E97E
:101EA00005452C432243CC6922430C6A22434C6AE9
:101EB00022438C6A22434C6B22438C6B22431A438D
:101EC0000260426922F00703D1E90B2422431A433E
:101ED00042610A6942604A6882608968C16030BDB7
:101EE0003F801CF001A1012019F018BC4465627507
:101EF000674D6F6E5F48616E646C65720D0A00001D
:101F000003490A68104488600A689042FCD8704708
:101F1000000000202DE9FC47914D2878012600247F
:101F2000002812D04FF00308012812D0A5F11007A5
:101F300002287DD003280AD1687870B1012806D123
:101F4000884801F04DFAA0B115E02E70EC70BDE8A4
:101F5000FC8785F800806C70F9E72E71824800904C
:101F6000824B834A01217F4805F046FE6E702C713A
:101F7000EDE700F0CBF9F878DFF8F891012824D1EB
:101F80007DA1042019F0CAFB002285A185480FF02D
:101F900095FA18B184A1042019F0C0FB8BA104208C
:101FA00019F0BCFBB9F80800D9F800208FA1424312
:101FB000042019F0B3FB6A480021083000F0D0F982
:101FC000EC708020E8700220F870F8780228BED10A
:101FD000E87839798842BAD0E8783871614807F0F2
:101FE00095F9E87800F07F015D48083000F0B8F915
:101FF0005C4807F0DBFBE8780006A8D5E87800F03D
:102000007F00E870E87840B301282ED0022861D024
:1020100003289CD100F07AF9002260A110460FF04D
:102020004DFA504807F0D4FE514C8C34606800E003
:102030005CE0006980474E494A4805F019FB60683A
:10204000406880472068A4F16C0142684548904789
:102050006EA1042019F062FB79E72E71012150A0D6
:1020600000F032FF7C702C7171E76FA1042019F031
:1020700055FB99F80C0001280CD02E71002248A1C4
:1020800048480FF01BFA0A2270A173480FF03CFA7F
:1020900038B11DE071A1042019F040FB87F80080E1
:1020A00055E73E222E4901AB24316B480FF064FC0A
:1020B000BDF8041001B120B171A1042019F02EFB6C
:1020C00003E077A1042019F029FB63480FF039F9E8
:1020D0002C713CE7002232A132480FF0EFF90028C2
:1020E000BAD176A1042019F019FB30E7A87848B3DB
:1020F0000128B1D1E87839798842ADD0E8783871D3
:1021000072B6E87800F07F011548183000F028F921
:1021100062B6E87800069FD5E87800F07F00E870A6
:10212000E878002898D172B62C70EC706CA104206D
:1021300019F0F4FA62B60B48FFF7DEF8094807F029
:1021400022FE04E72E716E4800906E4B6E4A01210C
:10215000044804F03DFDAE70EC702C71F7E6000011
:1021600000060020E0360120F80600207807002055
:1021700074410120D44401203E2055534220486F31
:1021800073742046756C6C20737065656420696E8D
:10219000697469616C697A65642E0D0A000000003B
:1021A000323A2F008C3201203E2043616E6E6F74F4
:1021B00020696E697469616C697A652046696C652D
:1021C0002053797374656D2E0D0A00003E20466918
:1021D0006C652053797374656D20696E69746961EB
:1021E0006C697A65642E0D0A000000003E20446987
:1021F000736B206361706163697479203A20256490
:102200002042797465730D0A000000003E2075734A
:102210006220686F737420646973636F6E6E6563A8
:10222000742E0D0A000000003E2057726974696E1A
:10223000672046696C6520746F206469736B206643
:102240006C617368202E2E2E0A000000303A535421
:102250004D33322E54585400BC3401203E20446982
:10226000736B20666C617368206973207772697480
:10227000652070726F746563746564200A000000E5
:102280003E2053544D33322E5458542043414E4E29
:102290004F542062652077726974656E2E0A0000C3
:1022A0003E202753544D33322E545854272066690C
:1022B0006C6520637265617465640A003E20536C2E
:1022C0006964652073686F77206170706C69636101
:1022D00074696F6E20636C6F7365642E0A00000072
:1022E0003E20446576696365206170706C69636146
:1022F00074696F6E20636C6F7365642E0A00000052
:10230000DC060020D40700206806002070B5064DCA
:1023100000242C700549A1F6942005F0A9F9A5F137
:102320001000C4702C7170BD0006002074410120A3
:1023300010B508480078032807D1074801F050F885
:1023400018B10649044806F0D9FBBDE81040FFF774
:10235000E1BD000000060020E036012074410120AC
:102360007047000010B51CA1042019F0D7F900F047
:102370003DF900F041FB1DA1042019F0CFF9022125
:10238000002000F011FC04460321002000F00CFCAA
:102390000346224619A1042019F0C0F901210020AA
:1023A00000F002FC0446224619A1042019F0B6F9F7
:1023B00060070AD51A48016841F010010160BDE8C4
:1023C000104018A1042019F0A9B9BDE810401AA1C5
:1023D000042019F0A3B900004554485F4253505FF0
:1023E000436F6E6669670D0A0000000072656164E4
:1023F000207068792069640D0A0000005048592057
:1024000049443A2530327820253032780D0A0000D0
:102410005048595F4253523A20253032780D0A0015
:1024200068080020706879204554485F4C494E4B3D
:102430005F464C41470D0A00706879204554485F5B
:102440004C494E4B5F464C4147206E6F2121212164
:102450000D0A00001B4A506803681146002B89686A
:102460000DDB0368DB050AD58B685B1C8B608B6812
:10247000012B00D108605068486001207047036854
:10248000002B0EDB03689B050BD50368DB0508D426
:10249000086000204860012088605068C068506073
:1024A0000DE00368002B0ADB03689B0507D4036873
:1024B000DB0504D48B685B1C8B60C0685060002017
:1024C00070470000700800200649002804D0886981
:1024D00040F0020088617047886920F0020088613E
:1024E00070470000009002402DE9F0410023124F98
:1024F00078604FF0004C44F2F458561E14E000EBA4
:102500004314C4F800C0C4F80480C3EBC31505EB42
:10251000450501EB8505A560B34203D204F1200512
:10252000E56000E0E0605B1C9342E8D30349C860CB
:102530000348B860BDE8F0817008002000900240B8
:10254000D48801200649002804D0886940F400504E
:1025500088617047886920F40050886170470000E6
:1025600000900240F0B500230E4C20604FF480171D
:10257000561E11E000EB43142760C3EBC31505EBB7
:10258000450501EB8505A560B34203D204F12005A2
:10259000E56000E0E0605B1C9342EBD30249086118
:1025A000F0BD0000700800200090024002680A435D
:1025B0000260704710B501214C06204601F00EFE66
:1025C0002046BDE81040002101F008BE38B5064C99
:1025D000A06940F48010A061A06900900120FFF77D
:1025E0008FFC0098A06138BD009002407CB50121AD
:1025F0004D2001F0E5FD0121880301F035FE0120A9
:1026000003F0EAFD8620009003208DF805000220EB
:102610008DF8040000208DF806008DF807002C4C82
:102620006946204600F026FE0B220121204600F0DC
:102630005FFE0B220221204600F05AFE0B220721EA
:10264000204600F055FE32200090224C694620467C
:1026500000F010FE0B220121204600F049FE0B2263
:102660000421204600F044FE0B220521204600F004
:102670003FFE4FF4D0410091174D6946284600F0C7
:10268000F9FD0B221146284600F032FE0B220D21E7
:10269000284600F02DFE0B220E21284600F028FED1
:1026A000012100918DF804106946204600F0E2FDFA
:1026B0000121204600F036FE3220FFF721FC0121E7
:1026C000204600F031FE3220FFF71AFC7CBD0000EE
:1026D00000000240000802400018024000200349A8
:1026E0000968C90700D0012070470000009002402F
:1026F0001EB500210191094B59680A68C2F30D42C9
:10270000121F00929A6814680294126892680192EB
:10271000C96859609DE80E000EC01EBD70080020FB
:102720002DE9F04788B004468846002707970297AE
:1027300001200190984E306920F01C0503A801F09B
:10274000B5FD04989549964A0144914202D245F05C
:10275000080516E09349944A0144914202D245F09B
:102760000C050EE09149924A0144914209D39149E6
:1027700008449149884202D245F0040501E045F041
:10278000100535614FF400420021404600F0B0FAD8
:102790004FF400694FF4804AB0B1FF20FFF7B0FB5F
:1027A0002068B8B3854D0298401C02900121404634
:1027B00000F0FAF9400702D40298A842F3D3029835
:1027C000A84203D101973FE001973DE002974FF403
:1027D00080520021404600F08BFA00B90197029820
:1027E000401C02900121404600F0DEF9800602D430
:1027F0000298A842F3D30298A84201D1019723E09E
:1028000002971021404600F0CFF9410703D5C4F8E4
:10281000209001E007E02762800701D5676113E09F
:10282000C4F814A010E0206A0021C0F3CF02606950
:10283000C0F34F000243404600F05AFA00B9019736
:1028400040F6FF70FFF75CFB019818B9C4F82090C0
:10285000C4F814A030685A490840D4E90112114361
:10286000E26854F8103F1A43114362681143A268AA
:102870001143E26811432269114362691143A2695D
:102880001143E2691143226A1143626A143411430D
:102890000143316035680120FFF732FB356054F8A1
:1028A000140F61680843D4E90212114308432169F7
:1028B000084361690843A1690843E16908437060FE
:1028C00075680120FFF71CFB7560206AB060606AC4
:1028D000F060B1694FF641700140D4E90B0210433A
:1028E000238D626B42EA03421043A26B1043E26BFA
:1028F00010430843B061B5690120FFF701FBB561E2
:10290000D4E910010843F061F5690120FFF7F8FAF6
:10291000F5612C4DA9692C480140D4E912021043FD
:10292000D4E914231A431043A26D1043E26D1043FF
:10293000226E1043626E1043A26E10430843A861DA
:10294000AE690120FFF7DCFAAE61D4E91B01084350
:10295000616F54F8782F11430843616840EA8100A1
:10296000A168084340F4000028602C680120FFF7AC
:10297000C7FA2C60286840F0800028602C6801208D
:10298000FFF7BEFA2C600198012803D0002008B0A0
:10299000BDE8F0870120FAE70080024000D3CEFEB8
:1029A000C0E1E40040F1E9FD40787D0100796CFC74
:1029B000005A6202001F0AFA80F0FA02FFFF0400C8
:1029C0000F8120FF00900240233FDEF80A794B7907
:1029D00042EA0322074B184402640A78CB7842EAA1
:1029E00003628B7849781B0443EA01210A4342645D
:1029F000704700000080024010B501214FF0606078
:102A000001F0DEFBFFF7D6FD00F0FAF8FFF766FEF7
:102A10000128FBD01B4800F01DF91A4801211C3089
:102A200040F81C1C002140F8081C4FF40062426072
:102A300001609210C2600161C16181620163416302
:102A40008163520082604166D2038266131103677C
:102A50008167C1670421C0F88410C0F88820890309
:102A6000C0F88C108901C0F890104912C0F8941079
:102A70004900C0F89C1000211C38FFF751FE0249A4
:102A8000086010BD785701206808002038B5002183
:102A900000910A4C002804D0206840F00400206017
:102AA00003E0206820F004002060206800900120EE
:102AB000FFF726FA0098206038BD00000080024031
:102AC00038B5002100910A4C002804D0206840F05D
:102AD0000800206003E0206820F0080020602068E3
:102AE00000900120FFF70CFA0098206038BD00002C
:102AF0000080024070B50023294E31680A68002A20
:102B000001DA002070BD40F2F455A84208D9B0FBAC
:102B1000F5F2B0FBF5F405FB140414B1521C00E00F
:102B20000122012A2ED10A6842F040520A60C0F305
:102B30000C004860086840F000400860C96823E065
:102B40000C6824F040540C601BB90C6844F08054AD
:102B50000C604D60541EA3420ED10C6844F000542A
:102B60000C60C2F10104C4EBC41404EB440400EB98
:102B70008404C4F30C044C600C6844F000440C6002
:102B8000C9685B1C9342DBD3316006484169490741
:102B900003D50421416100214160012070BD000086
:102BA000700800200090024018B500220092124ADE
:102BB000136903F01C044FF6FF7303EAC023234399
:102BC0004FF4F86000EA8110184320F0020040F052
:102BD0000100106109490098401C00901069C0076D
:102BE00002D000988842F6D30098884201D1002094
:102BF00018BD506980B218BD00800240FFFF04007C
:102C00000248016841F001010160704700900240F4
:102C100010B50120FFF754FF0120FFF737FFFFF742
:102C2000D5FC0120FFF78EFCBDE810400120FFF726
:102C30004BBC10B50020FFF785FC0020FFF744FCDB
:102C40000020FFF723FFFFF7C1FCBDE81040002084
:102C5000FFF736BF01210160002141608160C16042
:102C600001614FF4804242618161C161D210026210
:102C700041628162C162016341638163C163402239
:102C80000264202242648164C164016541658165FA
:102C9000C1650166802242668166C166016741673F
:102CA0008167C167D204C0F880205210C0F8842028
:102CB000C0F888101311C0F88C30C0F89010C0F81C
:102CC0009410C0F89810C0F89C10C0F8A010C0F87C
:102CD000A4205212C0F8A8209201C0F8AC205212D1
:102CE000C0F8B020C0F8B410C0F8B81070470000A9
:102CF00038B500230093124B1C6904F01C054FF6F5
:102D0000FF7404EAC0242C434FF4F86000EA8110F9
:102D1000204340F0020040F001005A611861094967
:102D20000098401C00901869C00702D000988842A3
:102D3000F6D30098884201D1002038BD012038BD6B
:102D400000800240FFFF04002DE9FF4104460026F9
:102D5000039694F831002A4FC00646D5294D2868BD
:102D600088B300214FF480520846FFF7C1FF264C7C
:102D70000398401C039001210020FFF715FF8006F7
:102D800002D40398A042F3D3039610210020FFF74A
:102D90000BFF410703D54FF40061296200E02E626A
:102DA000800701D56E6102E04FF480406861174CE6
:102DB00021682A6A68691043084320600120FFF7F0
:102DC0009FF820682060FFF723FF02960196009687
:102DD000012038706B4601AA02A90D4813F02EF8A5
:102DE0000B4813F0C6F8BDE8FF81FFF722FF05206E
:102DF000387020460CF050F8054813F037F8F2E729
:102E00005008002078570120FFFF04000080024096
:102E10004057012010B54FF48044204600F02EF8B2
:102E200028B1002000F034F8204600F021F84FF4DB
:102E30008064204600F022F8002804D02046BDE837
:102E4000104000F015B810BD10B5042000F016F8C1
:102E5000002809D00548D0F8900040698047BDE8B7
:102E60001040042000F004B810BD0000744101209F
:102E70000149086070470000143C014001460020F1
:102E8000024A12680A4200D001207047143C0140F7
:102E900010B5044612212046FFF786FE80040FD5A8
:102EA00010212046FFF780FEC00704D0BDE8104087
:102EB000044813F036B8BDE81040024813F024B8B7
:102EC00010BD0000405701202DE9F04196B00D469D
:102ED000014605A80EF0D0FB0446200064D100276F
:102EE000334E5CE00EA905A80EF0BCFC0446002C95
:102EF0005AD19DF84100002856D02E284FD00DF110
:102F00004108414601A8FDF7B0FA7078401CC0B2F4
:102F100070700C2810D977700120B07025A10320A3
:102F200018F0FCFB01E003F093FB2A4800F058FA8C
:102F300010B1B0780228F6D1B770012D02D0022D61
:102F400005D008E024A1032018F0E8FB03E024A149
:102F5000032018F0E3FB9DF8400000F03F0010282C
:102F60000ED022A101A8FDF73CFA01A9032018F018
:102F7000D5FB9DF8400000F03F0010280FD108E07D
:102F80001AA101A8FDF72DFA01A9032018F0C6FB2C
:102F9000EFE7012D03D102214046FFF795FF0D48D1
:102FA00000F01EFA00289DD116B02046BDE8F08141
:102FB000F0050020507265737320616E79206B6597
:102FC0007920746F20636F6E74696E75652E2E2E76
:102FD00000000000E03601202020207C5F5F000020
:102FE0002020207C2020207C5F5F00000A00000061
:102FF0008000A0F1C040002904D0016841F0010127
:10300000016070470168024A11400160704700008A
:10301000FEFF0F0070B501688900A1F1C0410B6887
:10302000344A1340D0E901242243D0E903452C431C
:1030300022434469224384692243C4692243046AC7
:103040002243446A2243846A2243C46A2243046BB3
:1030500022431A430A608168082907D10168890060
:10306000A1F1C0410A6842F040020A600168491CAF
:103070008A00A2F1C042116801F04044416BD1E9DD
:10308000003543EA05138D688E892D0245EA064511
:103090002B430D8A43EA05530D7D896943EA056395
:1030A0000B4323431360C16AB1F5804F08D0006819
:1030B0006FF070418000A0F1C040C0F8041170BDF5
:1030C00001688900A1F1C041D1F804210A4B1A40DE
:1030D000806BD0E9003443EA0413846885892402B4
:1030E00044EA05448069234303431343C1F8043190
:1030F00070BD00008000F7FF0000F0CF2DE9FC4715
:103100000E460024002700970197574D4FF0080AFC
:10311000C5F800A0102068604FF04009C5F808907D
:10312000EF604FF48068C5F81080284601F080FFFA
:103130001020FDF797FF002832D14C480089000489
:10314000286037206860C5F80890EF60C5F81080E7
:10315000284601F06DFF3720FDF784FF00281FD1BE
:10316000411E05F114000160C0F804A03021816007
:103170000221C16007610121416101F0DDFE2F6084
:1031800033206860C5F80890EF60C5F810802846C5
:1031900001F04EFF3320FDF765FF0546280001D002
:1031A000BDE8FC874FF4001A6F46DFF8C48040F298
:1031B0002A6908E0504601F0E9FE20B101F032FF33
:1031C00047F82400641CD8F8000010EA090FF1D079
:1031D000082001F0DBFE20B1082001F095FE04205C
:1031E000DEE7022001F0D2FE20B1022001F08CFEC9
:1031F0000220D5E7202001F0C9FE20B1202001F0F7
:1032000083FE0620CCE74FF40074204601F0BEFE9A
:1032100020B1204601F078FE0720C1E740F2FF50C0
:1032200001F072FE00980099000601F47F4140EA27
:103230000120009901F47F0140EA1120009940EA41
:103240001160706001980199000601F47F4140EA25
:103250000120019901F47F0140EA1120019940EA1F
:103260001160306028469BE7E80B002054030020E3
:10327000342C01402DE9F041002201274FF0030CCE
:1032800007FA02F50B682B40AB422CD106685300BD
:103290000CFA03F4A64306600E79D0F800809E4035
:1032A00046EA080606600E79012E01D0022E12D1E0
:1032B0008668A64386604E79D0F808809E4046EA2C
:1032C000080686604668AE43466045688E7996403B
:1032D000B6B235434560C568A543C560CC799C400E
:1032E000C3681C43C460521C102AC9D3BDE8F081D6
:1032F00010B54B07DB0E9A40C90800EB8100016A4C
:103300000F249C40A1430162016A1143016210BD78
:10331000006980B270470246002012690A4200D05C
:1033200001207047418370470183704710B50B48F7
:103330000168001D0468001D0068084400280BD0C7
:103340000822074900F0EEF9054920460422BDE8AD
:103350001040103100F0E6B910BD0000107AFF1FD8
:103360009C0600204069806880B27047D0F8CC008D
:103370000068C0F341407047084490F883087047E4
:1033800000EB8100D0F83808704710B504460022E1
:103390000023C4F8F43704EB8200C0F8FC37C0F80F
:1033A0003838A01880F87438521CD2B20F2AF2D3E1
:1033B0000820A4F89A08204606F06AFC204605F08A
:1033C000A5FF204605F026FE0121204606F0C0FCA0
:1033D000204605F013FF204606F0E8F9002010BD56
:1033E000D0F8F4077047D0F8F807704710B506F02A
:1033F00039FC002010BD0022431883F8832800EB1D
:103400004113C3F8A82806F043BB000002A1012025
:1034100018F084F9FEE70000486172644661756C3B
:10342000745F48616E646C65720D0A00002904D0F7
:10343000018841F4806101807047018821F4806136
:1034400001807047034600209A8A1B8B1B041A4395
:1034500022F07F42914300D101207047002904D01F
:10346000018841F0010101807047018821F00101CC
:103470000180704710B5154988420AD101214C05D9
:10348000204600F0E3FE2046BDE81040002100F099
:10349000DDBE0F4988420AD101218C05204600F08B
:1034A000D5FE2046BDE81040002100F0CFBE0949FE
:1034B00088420AD10121CC05204600F0C7FE2046F3
:1034C000BDE81040002100F0C1BE10BD0054004016
:1034D00000580040005C0040002904D0018841F4FD
:1034E000807101807047018821F4807101807047EC
:1034F000002904D0018841F40071018070470188DF
:1035000021F40071018070477FB504460D46A08804
:1035100020F03F06684600F0C9FE02982749B0FB3C
:10352000F1F189B20E43A680228822F001022280A6
:10353000234B2A689A4209D85200B0FBF2F080B2BD
:10354000042800D20420491C218423E0EB88A3F541
:103550003F46FF3E0BD002EBC20303EB0212B0FB6F
:10356000F2F080B240F48040020506D007E002EBA2
:103570004202B0FBF2F080B2F6E740F0010040F406
:1035800000404FF4967251434FF47A72B1FBF2F15E
:10359000491C2184A083208840F0010020802088DD
:1035A0004FF6F5310840A9886A891143014321800B
:1035B000A8892989084320817FBD000040420F006F
:1035C000A0860100008AC0B27047002A02D041F0F4
:1035D000010101E001F0FE010182704701827047A4
:1035E000002904D0818B41F4806181837047818BF5
:1035F00021F480618183704730B50023828B4FF2C4
:1036000040042240828302220284848B0A884FF481
:103610008075B2F5007F00D002B92B464A888D88AC
:1036200089892A4319430A43224342F40061818372
:1036300030BD0000F0B5022200230124858B4FF23B
:1036400040063540858302250584868B8D68022DD2
:1036500042D08A8802B102242F4A13681B0203D584
:10366000136823F4000313602B4A7C321368C3F3FE
:1036700088131268C2F30275274F3F1F3A6802F0A1
:103680003F023F687F0206D5244FB7FBF2F25A4350
:10369000B2FBF5F205E0224FB7FBF2F25A43B2FB60
:1036A000F5F2CB88B3F5007F2BD06301B2FBF3F2C8
:1036B00002EB82028B685200B2FBF3F2521D92B20F
:1036C0000A23B2FBF3F202F00103D21AC2F34F0253
:1036D0004FF6FF7404EA0323941EFE2C01D302224A
:1036E0000023CC881A43144304840A884B881A4365
:1036F0008B8889890B431A43324342F400618183EA
:10370000F0BD120A02EB82028B685200B2FBF3F2A8
:10371000521D92B2D4E700000838024000127A002D
:103720000024F400F0B500230A25302637270024B2
:1037300012E0B5EB107F04D906EB107C01F813C042
:1037400003E007EB107C01F813C0000101EB430C10
:103750008CF801405B1CDBB29342EAD3F0BD000061
:1037600030B58BB0002507953D4C207801282FD02F
:1037700002282BD13B494868E06000283BD0032059
:10378000207008460BF088FBE068010E8DF81C10D5
:10379000C0F307448DF81D40C0F307238DF81E3099
:1037A000C2B28DF81F20CDE900412FA102A807F079
:1037B000EFFA31A1032017F0B1FF35A1032017F074
:1037C000ADFF02AA38A1032017F0A8FF0BB030BD4F
:1037D0000220207023480BF005FBE56034A1032094
:1037E00017F09CFF38A1032017F098FF3CA103209D
:1037F00017F094FFEAE7486A407B0428E6D90420E2
:10380000207018480BF048FB3B480A906FF07F404F
:1038100009903A48089008AB09AA0AA9114812F081
:103820000DFB37A1032017F079FF0A208DF81C004B
:103830008DF81D50A8238DF81E30C0228DF81F2052
:10384000CDE9005034A102A807F0A2FA36A1032066
:1038500017F064FF02AA3AA1032017F05FFFB5E753
:1038600050080020405701202025642E25642E2575
:10387000642E256400000000495020616464726574
:1038800073732061737369676E65640D0A000000CD
:10389000202062792061204448435020736572766D
:1038A000657220200D0A00002025730D0A0000001B
:1038B00020202020204C6F6F6B696E6720666F722E
:1038C000202020200D0A00002020202020444843F2
:1038D0005020736572766572202020200D0A00004A
:1038E0002020202020706C656173652077616974E9
:1038F0002E2E2E200D0A0000C0A8000AC0A800012C
:1039000020202020444843502074696D656F7574F1
:10391000202020200D0A0000202025642E25642E62
:1039200025642E25640000002020537461746963AF
:103930002049502061646472657373202020000068
:1039400025730D0A0000000010B586B012F048F88B
:1039500012F036F900200590049003901849194A96
:10396000CDE90121009003AB04AA05A9164812F085
:103970003FFA154812F074FA14480068144C1128E4
:1039800012D0114812F072FA0520207011A1032004
:1039900017F0C4FE15A1032017F0C0FE19490A480C
:1039A00012F0AEFA06B010BD07483130017841F090
:1039B00010010170313812F0DCFA01202070EDE7BF
:1039C0005D120108F112010840570120680800202B
:1039D0005008002020204E6574776F726B20436181
:1039E000626C6520697320200D0A000020202020D1
:1039F0006E6F7420636F6E6E656374656420202043
:103A00000D0A0000492D000831B51C4C0099606872
:103A1000081AFA2803D30098606015F069FD009831
:103A2000A168401A41F28831884203D30098A0600F
:103A30000DF0B2FB00982169401AB0F5FA7F0ED361
:103A4000009820610AF088FD2078032807D02078AC
:103A5000042804D02078052801D0FFF781FE0098C3
:103A60006169401A4EF66021884205D30098606172
:103A7000BDE838400AF018BC38BD000050080020EE
:103A800001480DF049BC0000405701201CB5012041
:103A900000F006FC0121084600F092FB0D4C0022CC
:103AA00008212046FFF724FCA115009102218DF882
:103AB00005108DF8041000218DF8061001218DF8F5
:103AC000071069462046FFF7D5FB0021084600F0A5
:103AD0006FFC1CBD0000024070B505460E490F4C3E
:103AE0000A7B002A07D1896829B1617819B90121B7
:103AF0002846FDF789FC81212846FDF785FC607882
:103B0000022807D12846BDE870401F23024A012140
:103B1000FDF756BC70BD0000E4560120D007002020
:103B200070B50546234C04F1200061684160A1682E
:103B300081600121284603F00CF81F4E1F280AD18E
:103B40001E492068884206D1617B012903D8A27BE7
:103B50000AB1102A0BD9607B2022052101F056F80A
:103B6000022070702846BDE87040FFF7B5BF114ACB
:103B700028460F3200F040FE002804DA2846BDE84F
:103B80007040FFF7A9BF3178022911D001290FD069
:103B900003290DD072882AB12846BDE87040084933
:103BA00000F0C0B82846BDE87040002100F09CB885
:103BB00070BD0000E4560120D00700205553424359
:103BC000E446012010B5094C6278022A08D00906A3
:103BD0000BD5012A09D0BDE81040012100F084B8BE
:103BE0008121FDF711FC0020607010BDD00700207E
:103BF00010B504460E480078022809D0032801D0E9
:103C0000042814D12046BDE81040002100F06CB813
:103C1000084800F10F02417B204600F0EDFD00282E
:103C200005DA2046BDE81040012100F05DB810BD66
:103C3000D0070020E456012010B504460D48007856
:103C4000002810D0012813D10B4800F10F02417B4E
:103C5000204600F0D1FD00280ADA2046BDE81040D9
:103C6000012100F041B82046BDE81040FFF758BFE1
:103C700010BD0000D0070020E456012001490020BB
:103C800008707047D007002010B504460C4A002188
:103C9000117051700B4800680168002088470121AD
:103CA0002046FDF763FB81212046FDF75FFB2046A0
:103CB0001F23BDE81040044A0121FDF781BB00002D
:103CC000D0070020D4060020E45601200449002239
:103CD0000A7001224A701F23024A0121FDF770BBBE
:103CE000D0070020E456012010B504460B4A0A4BC9
:103CF000136011730A4A002111700D23074A8121B4
:103D00002046FDF79DFB054A20461F23203ABDE8CB
:103D100010400121FDF754BB555342530457012075
:103D2000D007002030B413460A4A92689A4200D362
:103D30001A4693B2074A20329468E41A9460002429
:103D40001473054C042222700A4630BC8121FDF711
:103D500077BB0000E4560120D007002002A101201B
:103D600017F0DCFCFEE700004D656D4D616E61678C
:103D7000655F48616E646C65720D0A0002A10120E6
:103D800017F0CCFCFEE700004E4D495F48616E64C1
:103D90006C65720D0A00000030B50F23C278012552
:103DA0000178002A1FD0154A126802F4E062C2F5B9
:103DB000E062C2F30722C2F10404D3404278A24079
:103DC00084781C401443220101F1E02181F8002491
:103DD000007800F01F018D404009800000F1E020D4
:103DE000C0F8005130BD01F01F0085404809800037
:103DF00000F1E020C0F8805130BD00000CED00E083
:103E00000249084302490860704700000000FA05B3
:103E10000CED00E0024A1140014302480160704786
:103E200080FFFF1F08ED00E010B5074805F0DBFE3E
:103E300020B1BDE81040044804F0ECBCBDE81040DF
:103E4000014802F0A7BF0000E03601207FB504461C
:103E50000121084600F0D0F90021ADF80010ADF8BE
:103E600002102020ADF80400ADF80610ADF80810DF
:103E7000ADF80A10ADF80C108021134E05026CB19C
:103E8000012C17D0ADF806106846FDF74BFE2B4607
:103E9000002201213046FCF78FFF7FBDADF80610F0
:103EA0006846FDF73FFE2B46002201213046FCF715
:103EB00083FF7FBD6846FDF735FE2B4600220121BA
:103EC0003046FCF779FF7FBD0000016C70B50546F8
:103ED00000F0D1F8C820FEF713F800243C4E06EBA2
:103EE0004400417816F8140000F0D0F8641CBE2C91
:103EF000F5D30024374E06EB4400417816F8140041
:103F000000F0C4F8641C092CF5D30121FF2000F057
:103F1000BDF80021152000F0B9F800242D4E12360E
:103F200006EB4400417816F8140000F0AFF8641C6A
:103F3000082CF5D36420FDF7E3FF264E2236022D30
:103F400011D0032D1BD0042D27D0052D33D00024F4
:103F500006EB4400417816F8140000F097F8641C52
:103F6000272CF5D370BD002406EB4400417816F8E9
:103F7000140000F08BF8641C272CF5D370BD0024CE
:103F8000144D703505EB4400417815F8140000F02D
:103F90007DF8641C272CF5D370BD00240D4DBE3573
:103FA00005EB4400417815F8140000F06FF8641C2C
:103FB000272CF5D370BD0024074D05EB4400417854
:103FC00015F8140000F062F8641C272CF5D370BDBE
:103FD00044CF0108C0D00108CCD1010870B500F071
:103FE0004AF8C820FDF78CFF0024084D4FF4A47652
:103FF00005EB4400417815F8140000F047F8022062
:10400000FDF77EFF641CB442F2D370BDFCCA010808
:1040100070B500F030F8C820FDF772FF0024074D9E
:1040200005EB4400417815F8140000F02FF8022049
:10403000FDF766FF641CDC2CF2D370BD8CCD01084B
:1040400010B504460121FF2000F020F81C2000F0EC
:104050000EF820701D2000F00AF860700A2000F0B1
:1040600006F8A0700B2000F002F8E07010BD0146C9
:10407000612007F017BD10B50121FF2000F006F800
:104080008021BDE810401220AFF300800A460146AF
:10409000602007F099BD00007FB504460121084665
:1040A00000F0AAF80021ADF80010ADF80210ADF84C
:1040B00004108022ADF806204020ADF80800ADF8CD
:1040C0000A10ADF80C10114EC5015CB1012C13D0D3
:1040D0006846FDF727FD2B46002201213046FCF7FC
:1040E0006BFE7FBD6846FDF71DFD2B4600220121BA
:1040F0003046FCF761FE7FBD6846FDF713FD2B4699
:10410000002201213046FCF757FE7FBD0000016C04
:1041100070B500F044F8C820FDF7F2FE0024074D0A
:1041200005EB4400417815F8140000F03CF802203B
:10413000FDF7E6FE641C972CF2D370BD1AD201087D
:1041400070B500F02CF8C820FDF7DAFE0024074D0A
:1041500005EB4400417815F8140000F024F8022023
:10416000FDF7CEFE641C972CF2D370BD48D3010836
:1041700010B504461C2000F00EF820701D2000F041
:104180000AF860700B2000F006F8A0700A2000F01A
:1041900002F8E07010BD0146612007F083BC802169
:1041A0001220AFF300800A460146602007F00CBDE4
:1041B000014908627047000000000E42FCF71CB87D
:1041C000054A002903D01168014311607047116846
:1041D000814311607047000030380240054A0029D1
:1041E00003D0116801431160704711688143116069
:1041F0007047000010380240054A002903D01168BA
:1042000001431160704711688143116070470000DD
:1042100034380240054A002903D011680143116077
:1042200070471168814311607047000038380240C0
:10423000054A002903D011680143116070471168D5
:10424000814311607047000040380240054A002950
:1042500003D01168014311607047116881431160F8
:104260007047000020380240054A002903D0116839
:10427000014311607047116881431160704700006D
:1042800044380240054A002903D0116801431160F7
:104290007047116881431160704700002438024064
:1042A0000149C864704700000000474270B5244BC4
:1042B000196801F00C01234C00291ED06610042956
:1042C0001DD008291DD00460196801F0F00109090A
:1042D0001D4A545C0168E14041601C6804F4E054EC
:1042E000A40A145D21FA04F484601B6803F460439B
:1042F0005B0BD25CD140C16070BD0460E4E7066036
:10430000E2E70F4A121F1168C1F38055116801F0EE
:104310003F0135B1B6FBF1F11468C4F38814614371
:1043200005E0B4FBF1F11468C4F38814614312682A
:10433000C2F30142521C5200B1FBF2F10160C3E72B
:10434000083802400024F4005E02002002460020EB
:10435000510901290BD002290DD00949096802F041
:104360001F02012393400B4200D0012070470449F3
:1043700074390968F3E70249091F0968EFE700008B
:104380007438024001490860704700005C014742F0
:10439000064900220A700A70012804D0042801D1BD
:1043A000052008707047012008707047703802407F
:1043B000034B1A6822F0EC62084310431860704700
:1043C00008380240014988667047000000004742F3
:1043D00001490860704700003C0E4742C0F30121CC
:1043E000032907D1074B196821F4F8120649014047
:1043F00011431960034A68321168C0F30B0001438E
:104400001160704708380240FFFCFF0F010901EB03
:104410008101490000F00F000844C0B2704700213C
:1044200003E0491CC9B20A38C0B20A28F9D2090708
:1044300040EA11607047000008B5002000900E4966
:104440000868400615D44FF0FF3008608B130868E9
:1044500000F04000009A521C0092009A9A4201D04B
:104460000028F4D00868400601D5012008BD0020CE
:1044700008BD012008BD00000C280040024801686A
:1044800021F08001016070470C28004070B504469F
:104490000025114ECA20306053203060FFF7CCFF5A
:1044A000A8B10D481C38016821F040010160016885
:1044B0002268114301600848A1681438016001684E
:1044C000A28841EA02410160FFF7D8FF0125FF20E1
:1044D0003060284670BD00002428004008B503491C
:1044E00001EB800000900098006808BD5028004053
:1044F00070B505460C460026002D06D16078C10631
:1045000003D520F010000A3060702DB16078FFF7FD
:104510007DFFA078FFF77AFF55B1A078E17840EAF7
:10452000014560782178000240EA413005430FE000
:10453000E078FFF774FF05046078FFF770FF45EA45
:104540000025A078FFF76BFF0543207845EA40354A
:104550000E4CCA20206053202060FFF76DFF88B109
:104560000B480540094820380560FFF787FF0748DA
:104570001C380068800604D400F060F810B10126F1
:1045800000E00126FF202060304670BD2428004056
:104590003FFFFF002DE9F04105460C4600260020B4
:1045A000244F002D06D03968490608D52078FFF73A
:1045B0002DFF05E03968490602D4E07000E0E070A4
:1045C00055B1A078217840EA01456078E178000291
:1045D00040EA014005430FE02078FFF720FF050483
:1045E0006078FFF71CFF45EA0025A078FFF717FF6A
:1045F0000543E07845EA00450E4CCA201C34206093
:1046000053202060FFF718FF78B10B480540094898
:1046100008380560FFF732FF3868800604D400F0E0
:104620000DF810B1012600E00126FF202060304681
:10463000BDE8F081082800407F7F7F0018B500208A
:104640000090104BCA201860532018600D4918398B
:10465000086820F0A00008604FF40034086800F0FB
:104660002000009A521C0092009AA24201D0002819
:10467000F4D00868800601D5012000E00020FF2169
:10468000196018BD2428004008B5034A02EB8000D9
:1046900000900098016008BD5028004030B587B0F8
:1046A00001218805FFF7C4FD01212020FFF788FDC7
:1046B0001F4D042200212846FEF71AFE0422012184
:1046C0002846FEF715FE0321059102218DF81810EA
:1046D00000248DF8194001218DF81A108DF81B4027
:1046E00005A92846FEF7C6FD124D2846FEF7C2FE74
:1046F000ADF808404BF6FF71ADF80A10FE21ADF899
:104700000C102915ADF80E100901ADF8101042F289
:104710001071019101A92846FEF7F6FE01212846F5
:10472000FEF79CFE01212846FEF780FE07B030BD53
:10473000001402400058004000B51144064A926837
:10474000914206D92122052100F060FA4FF0FF3096
:1047500000BD002000BD0000280800204A78D207D4
:1047600002D00D4A07200CE00C4A00EBC000126892
:10477000D26902EB80021079401D0979814200D88C
:10478000084607490880074903E0401E80B2135CD1
:104790000B540028F9D170476FF40108D4060020AB
:1047A000D2070020E4460120082006490880064977
:1047B000064A03E0401E80B20B5C13540028F9D176
:1047C00070470000D20700207EF40108E446012073
:1047D0000820064908800649064A03E0401E80B2C8
:1047E0000B5C13540028F9D170470000D207002059
:1047F00076F40108E4460120034610B50846114648
:104800002B4A13610A78232A3DD00DDC1A2A32D0B4
:1048100005DCE2B1032A1ED0122A11D11FE01B2AA7
:1048200021D01E2A0CD122E02A2A38D004DC252AE5
:104830002DD0282A04D12EE02F2A34D05A2A1ED077
:104840002022052100F0E2F94FF0FF3010BDBDE855
:10485000104000F0F7B9BDE8104000F0A3B9BDE882
:104860001040FFF77BBFBDE8104000F0E5B9BDE8A0
:10487000104000F0E1B9BDE81040FFF7A9BFBDE866
:104880001040FFF791BFBDE8104000F053B9BDE8FC
:10489000104000F01BB9BDE8104000F0A9B8BDE819
:1048A000104000F023BABDE8104000F0F1B900005C
:1048B000280800202DE9F04106461F4D4FF4805096
:1048C000EC68844200D304466A680027B4FBF2F027
:1048D0001FFA80F8D5E906013B46FBF7D1FC0246FA
:1048E0001648434616490068D0F810C03046E047E5
:1048F000002807DA11220421304600F087F9781EDB
:10490000BDE8F08123460E4A81212869FCF798FD15
:10491000D5E9061009197841C5E90610E868001BB9
:10492000E86008498A68121B8A6010B906490320AA
:1049300008700020E4E7000028080020D4060020CA
:10494000E446012004570120D00700202DE9F0475C
:104950000746234D4FF48056EC68B44200D33446EA
:104960006A684FF00008B4FBF2F01FFA80F9D5E94D
:1049700006014346FBF784FC02461A484B461A4997
:104980000068D0F814C03846E047002808DA03224F
:104990000421384600F03AF94FF0FF30BDE8F087C7
:1049A000D5E90610091940EB0800C5E90610E868CA
:1049B000001BE8600D498A68121B8A6050B1B04242
:1049C00000D3304683B2084A01212869FCF7F8FC7D
:1049D0000020E3E700212869FFF786F9F8E70000E7
:1049E00028080020D4060020E446012004570120B6
:1049F0002DE9F04780460C46DFF8BC9099F800009E
:104A0000002850D12D4E4FF0FF37307B000607D4E1
:104A1000707B2022052100F0F9F83846BDE8F087C8
:104A20002748006881684046884730B13A22022111
:104A3000404600F0EBF83846F0E76079A17822793B
:104A400040EA0161E0781F4D000440EA0220014382
:104A5000C817C5E90610207AE27940EA0222EA6026
:104A60004046FFF769FE002801DA3846D6E7022003
:104A700089F80000D5E9061268680023A1FB004C04
:104A800002FB00C201FB0321C5E90641E96841437D
:104A9000E960B068884206D0707B2022052100F0D2
:104AA000B5F83846BAE708494FF4805008804046C8
:104AB000BDE8F047FFF7FEBED0070020E456012016
:104AC000D406002028080020D207002010B5044694
:104AD0001448154A0068111D43682046984738B1AC
:104AE0003A220221204600F091F84FF0FF3010BD2D
:104AF0000D4A0E48121F9168491E0B0E03700B0CD5
:104B000043700B0A8370C17051680A0E02710A0C5F
:104B100042710A0A8271C17105490820088000208B
:104B200010BD0000D40600202C080020E44601201F
:104B3000D20700207CB505460021174C00226254A4
:104B4000491C89B20C29FAD3144801AA69460068A5
:104B500043682846984738B13A220221284600F097
:104B600055F84FF0FF307CBD0820E0700098401EE3
:104B7000010E2171010C6171010AA171E071022025
:104B800020720198010C6172010AA172E07204495D
:104B90000C20088000207CBDE4460120D4060020C3
:104BA000D207002070B50020144A00231354401C83
:104BB000C0B21228FAD3702010700C20D071104DA2
:104BC00028786C78A0420FD00E4C14F830609670A4
:104BD00004EBC0046679167324795473401CC0B288
:104BE0002870042800D12B70074A12201080087901
:104BF000122800D81080002070BD0000E44601207B
:104C00002808002014570120D207002010B5094BB6
:104C1000074C587804F83010110204EBC0025160C0
:104C2000401CC0B25870042801D10020587010BD3B
:104C300014570120280800200149002008807047EF
:104C4000D207002070B505460E484FF0FF3481684A
:104C5000002906D0407B20220521FFF7D7FF204600
:104C600070BD0948006881682846884730B13A22FB
:104C700002212846FFF7CAFF204670BD03490020E5
:104C8000088070BDE4560120D4060020D207002021
:104C900070B54A784FF0FF35920705D524220521DB
:104CA000FFF7B4FF284670BD4A798B780C7942EA49
:104CB0000363CA78120442EA04220A4C1343DA1747
:104CC000C4E906320A7AC97942EA0122E260194649
:104CD000FFF732FD002801DA284670BD02490020A6
:104CE000088070BD28080020D20700202DE9F04779
:104CF00081460C46384F3878002804D04846BDE835
:104D0000F047FFF723BE354E4FF0FF38307B0006EB
:104D100007D5707B20220521FFF778FF4046BDE8CC
:104D2000F0872F4D286881684846884730B13A227D
:104D300002214846FFF76AFF4046F0E72868C1684D
:104D40004846884730B1272202214846FFF75EFFD8
:104D50004046E4E76079A178224D40EA0161E078BD
:104D60000204207942EA00200143C817C5E9061071
:104D7000207AE27940EA0222EA604846FFF7DCFC4A
:104D8000002801DA4046CAE7D5E906136868002220
:104D9000A1FB004C03FB00C301FB0231C5E9064146
:104DA000E9684143E960B068884206D0707B202200
:104DB0000521FFF72BFF4046B1E7012038700003C3
:104DC000814200D301468BB2074A01212869FCF7D2
:104DD000F7FA0020A3E70000D0070020E4560120E6
:104DE000D406002028080020E44601202DE9FC47D5
:104DF0000646002400940194002000F0E3F88001AE
:104E000002D50E20BDE8FC8733A1042016F086FCF5
:104E1000374D6946288980B2FEF770F907463A4651
:104E200034A1042016F07AFC0FB13846EAE73720A7
:104E3000344F4FF0060A4FF040094FF48068012EBE
:104E400022D00199C90345D52989090439607860C0
:104E5000C7F80890FC60C7F81080384600F0E8F802
:104E60003720FCF7FFF80028CCD13C60C7F804A03D
:104E7000C7F80890FC60C7F81080384600F0D8F8F2
:104E80000620FCF7EFF8BDE70199490320D52989F1
:104E9000090439607860C7F80890FC60C7F8108092
:104EA000184800F0C5F83720FCF7DCF80028A9D135
:104EB00002203860C7F804A0C7F80890FC60C7F863
:104EC0001080104800F0B4F80620FCF7CBF899E702
:104ED000252097E7252095E75344494F5F476574A0
:104EE000526573706F6E7365206F6B0D0A00000062
:104EF0005403002046696E645343523A25640D0AF8
:104F000000000000E80B0020014908607047000025
:104F1000382C01400149086070470000382C0140DE
:104F20000149086070470000A080254201490860DF
:104F3000704700008C85254210B50A4A016811604F
:104F4000121D41681160141D216821F0F701D0E99C
:104F500002231A43D0E9043003431A430A43226070
:104F600010BD0000242C014010B50121CC022046C8
:104F7000FFF788F92046BDE810400021FFF782B90D
:104F800001480068C0B27047102C01400146002063
:104F9000024A12680A4200D001207047342C0140B6
:104FA00001460020024A12680A4200D001207047E0
:104FB000342C01400248006800F0030070470000F4
:104FC000002C014008B5034908440090009800688F
:104FD00008BD0000142C014000F0A2BD054A0029C4
:104FE00003D011680143116070471168814311605B
:104FF000704700003C2C014030B5094B196847F65A
:10500000FF629143027D8468C568224344682C4353
:10501000224304680069224302430A431A6030BDF8
:10502000042C01400148006870470000802C0140BA
:1050300010B5084A01681160141D21686FF30A0158
:10504000D0E901231A43D0E9033003431A430A434A
:10505000226010BD082C0140014908607047000023
:10506000002C014008B50120009041030448FEF7E0
:1050700052F908B1002000909DF8000008BD000022
:10508000000802402DE9F04100261E494968032925
:1050900005D039B1012905D0022903D030E02720FD
:1050A000BDE8F081B0F5805F10D04FF400670024B8
:1050B000154DB84216D10120FFF798FE064632463C
:1050C00012A1042016F02AFB16B119E02720E7E709
:1050D0002C752C606C60AC60EF602C610A48FFF7A7
:1050E0008BFF0DE00020FFF781FE064646B92C75C8
:1050F0002C606C60AC60EC602C610348FFF77CFFB7
:105100003046CDE754030020D00B00205344456EB9
:10511000576964654275733A25640D0A0000000002
:105120002DE9F04704469A48436884F856300089D0
:10513000A4F85400DFF85C92D9F80000010E8A0947
:105140002270C1F38302627001F00301A170010CAF
:10515000E170010A21716071D9F80400010E0901A2
:10516000E180C0F30741E28842EA1112E28001F0D7
:105170000F012172C0F30727F9096172C7F380118B
:10518000A172C7F34011E172C7F300112173002629
:10519000667349464FF001088D68290EC5F3074232
:1051A000C5F30725002B04D0012B02D0022B39D0E8
:1051B00055E0BB071B0D2361C0B2236943EA8000A1
:1051C0002061206940EA91102061C1F3C20020757E
:1051D00001F0070060755009A075C2F38200E07508
:1051E0009007400F20762F46207E40EAD710207689
:1051F00025696D1C207E801C08FA00F1A5FB0103C7
:10520000CA1706FB013105FB0211237A08FA03F2E3
:105210002265A0FB023501FB025100FB0610C4E928
:1052200012301CE08006800A2061206940EA0120DB
:1052300020612069104320612F46226956A1042075
:1052400016F06CFA2069401C46F10001C90441EADD
:105250005031C004C4E912014FF4007020651C34C1
:10526000C7F3801004F8030CB806400E04F8020CD3
:1052700099F8080014F8021C41EAD01104F8021C45
:1052800000F07F0004F8010CD9F80C10080EC209D8
:105290002270C0F341126270C0F38202A2708007D4
:1052A000000FE070C1F30740E27842EA9012E2702A
:1052B000C0F340122271667100F00100A071C1F3C9
:1052C0000720C209E271C0F380122272C0F34012BB
:1052D0006272C0F30012A272C0F38102E27200F0A7
:1052E00003002073C8B24008607384F80E80294917
:1052F00010310868020E2274020C12026282C0F39E
:105300000722638A13436382000660614868020EC5
:10531000636943EA02426261C0F30742636943EA98
:1053200002226261C0F3072263691343636120763E
:105330008868020E6276020C1206E261C0F3072250
:10534000E36943EA0242E261C0B2E26942EA002054
:10535000E061C868010EE2690A43E261C0F30741F7
:1053600094F8202042EA111284F820200907090D40
:105370006184C0F30721628C0A436284C0B2400892
:1053800084F8240084F825803046BDE8F0870000CA
:1053900054030020480B00200D0A2D2D2D2D2D2DFE
:1053A0002D53445F6373642E446576696365536966
:1053B0007A653A25642D2D2D2D2D2D2D2D2D2D0D7C
:1053C0000A00000008B500200090FFF74BFE0128FE
:1053D00001D0FF2008BD684600F06AFC08B1FF203C
:1053E00008BD0098C0F3432008BD10B5FFF7EAFFE1
:1053F000042803D0FF2803D0012010BD002010BDD9
:10540000022010BD38B50024009400F099FA00F095
:1054100039FAFFF7A9FD00F0ADFA00909DF8000001
:1054200010B19DF8000038BD2FA1042016F076F9C8
:1054300000F012F900909DF8000010B19DF80000F6
:1054400038BD32A1042016F069F93B4804750460A8
:1054500044608460C4600461FFF7CEFD364858386C
:10546000FFF75EFE009035A1042016F057F9324C8C
:10547000583C3CA10420E26C16F050F939A10420FC
:10548000A26C16F04BF941A10420226D16F046F9EA
:10549000B4F8542047A1042016F040F994F856209F
:1054A0004CA1042016F03AF99DF8000030B9B4F888
:1054B00054000021000400F0E5FB00909DF800007E
:1054C00040B94DA1042016F029F94FF40060FFF710
:1054D000D9FD00909DF8002052A1042016F01EF97D
:1054E0009DF8000038BD00000D0A2D2D2D2D2D2D0D
:1054F0002D53445F506F7765724F4E206F6B2D2D8B
:105500002D2D2D2D2D2D2D2D0D0A00000D0A2D2DAB
:105510002D2D2D2D2D53445F496E697469616C6981
:105520007A654361726473206F6B2D2D2D2D2D2DA7
:105530002D2D2D2D0D0A0000D00B00200D0A2D2D34
:105540002D2D2D2D2D53445F4765744361726449A1
:105550006E666F206F6B2D2D2D2D2D2D2D2D2D2D4C
:105560000D0A00000D0A2D2D2D2D2D2D2D436172BC
:105570006443617061636974793A253038582D2D20
:105580002D2D2D2D2D2D2D2D0D0A00000D0A2D2D2B
:105590002D2D2D2D2D43617264426C6F636B536909
:1055A0007A653A2564202D2D2D2D2D2D2D2D2D2D77
:1055B0000D0A00000D0A2D2D2D2D2D2D2D524341AC
:1055C0003A2564202D2D2D2D2D2D2D2D2D2D0D0A1F
:1055D000000000000D0A2D2D2D2D2D2D2D43617263
:1055E00064547970653A2564202D2D2D2D2D2D2D97
:1055F0002D2D2D0D0A0000000D0A2D2D2D2D2D2DE8
:105600002D53445F53656C656374446573656C65C5
:105610006374206F6B2D2D2D2D2D2D2D2D2D2D0DEA
:105620000A0000000D0A2D2D2D2D2D2D2D53445F28
:10563000456E61626C65576964654275734F70654C
:10564000726174696F6E3A25642D2D2D2D2D2D2DCF
:105650002D2D2D0D0A0000002DE9F84F002401200A
:105660000090FFF7A7FCE0B1DFF8FC8000263F4D7B
:10567000D8F804004FF0C0094FF4806704282AD0FE
:105680002E6002206860C5F80890EE602F61284601
:10569000FFF7CEFCFBF764FD0446200003D0BDE815
:1056A000F88F2520FBE70020FFF78CFCDFF8BCA07B
:1056B000AAF1900ACAF800000420FFF783FCCAF898
:1056C00004000820FFF77EFCCAF808000C20FFF752
:1056D00079FCCAF80C00D8F8040028B1012803D0DE
:1056E000062801D0022811D12E60032068604020D6
:1056F000A860EE602F611D48FFF79AFC6946032001
:10570000FBF76AFD0446200000D0C8E7D8F8040083
:10571000042826D0BDF80000C8F80800000428605E
:1057200009206860C5F80890EE602F610F48FFF708
:105730007FFCFBF715FD0446200000D0AFE70020FA
:10574000FFF740FC094DA03D28600420FFF73AFC1C
:1057500068600820FFF736FCA8600C20FFF732FCD9
:10576000E86020469BE7000054030020E80B00207F
:1057700070B590B005460C461D4E4FF0FA513046BC
:10578000FCF748FA00213046FCF770FA3046FCF787
:1057900079FA4FF0006001901648029003950020BE
:1057A00004900594069031150791890008918900AD
:1057B00009910A904FF440300B9004200C90032084
:1057C0000D9048020E9080100F9001A93046FCF712
:1057D0005FFB012210213046FCF740FB20213046C0
:1057E000FCF7FFFA01213046FCF740FA10B070BD1B
:1057F00058640240802C014070B590B004460D46BC
:105800001E4E4FF0FA513046FCF704FA00213046A4
:10581000FCF72CFA3046FCF735FA4FF000600190A7
:1058200017480290039440200490059500200690AC
:105830003115079189000891890009910A904FF468
:1058400040300B9004200C9003200D9048020E90E5
:1058500080100F9001A93046FCF71AFB012210219D
:105860003046FCF7FBFA20213046FCF7BAFA01215A
:105870003046FCF7FBF910B070BD000058640240E0
:10588000802C01402DE9FC4101210C20FEF798FC01
:10589000294E0C2208213046FDF72AFD0C22092151
:1058A0003046FDF725FD0C220A213046FDF720FD8C
:1058B0000C220B213046FDF71BFD0C221146304611
:1058C000FDF716FD1D4F0C2202213846FDF710FD95
:1058D0004FF47060009002218DF805108DF80410CF
:1058E00000248DF8064001258DF8075069463046A2
:1058F000FDF7C0FC0420009069463846FDF7BAFC6D
:10590000280300908DF8074069463046FDF7B2FC49
:10591000680300908DF804408DF8075069463046C2
:10592000FDF7A8FC0121C802FEF79EFC01218805B5
:10593000FEF746FCBDE8FC8100080240000C024076
:1059400038B531208DF8000000248DF801408DF825
:10595000024001258DF803506846FEF71DFA3B20F2
:105960008DF800008DF801508DF802406846FEF772
:1059700013FA38BD2DE9F84F00270097BB460024E5
:10598000A246002559487621017507604760876067
:10599000C7600761FFF730FB0320FFF75DFB0120C5
:1059A000FFF7BEFA514E183637607760B760F76080
:1059B0004FF48069C6F810903046FFF739FBFBF7CB
:1059C0003BFB00909DF8000018B19DF80000BDE879
:1059D000F88F4FF4D5703060082070604FF04008A9
:1059E000C6F80880F760C6F8109040481830FFF7F6
:1059F0001FFBFBF731FC00909DF8000018B33760E7
:105A000037207060C6F80880F760C6F810903748F5
:105A10001830FFF70DFB3720FBF724FB00903760B1
:105A200037207060C6F80880F760C6F810902F48DD
:105A30001830FFF7FDFA3720FBF714FB00909DF8B4
:105A4000000090B34FE02A48012141608D07E6E74E
:105A5000376037207060C6F80880F760C6F810908D
:105A600022481830FFF7E4FA3720FBF7FBFA0090E2
:105A70009DF8000010B19DF80000A8E71D482843DC
:105A8000306029207060C6F80880F760C6F8109072
:105A900016481830FFF7CCFAFBF784FB00909DF80E
:105AA000000018B19DF8000091E706E00020FFF724
:105AB00089FA83464FEADB7A641CBAF1000F03D1FE
:105AC0004FF6FF708442C3D34FF6FF70844204D375
:105AD0001B2000909DF8000079E71BF0804F02D05A
